{
	"Staking Contract/SimPLstake.sol": {
		"NFTStaking": {
			"abi": [
				{
					"inputs": [
						{
							"internalType": "address",
							"name": "_nftAddress",
							"type": "address"
						},
						{
							"internalType": "address",
							"name": "_rewardTokenAddress",
							"type": "address"
						}
					],
					"stateMutability": "nonpayable",
					"type": "constructor"
				},
				{
					"anonymous": false,
					"inputs": [
						{
							"indexed": true,
							"internalType": "address",
							"name": "owner",
							"type": "address"
						},
						{
							"indexed": true,
							"internalType": "uint256",
							"name": "tokenId",
							"type": "uint256"
						},
						{
							"indexed": false,
							"internalType": "uint256",
							"name": "reward",
							"type": "uint256"
						}
					],
					"name": "RewardClaimed",
					"type": "event"
				},
				{
					"anonymous": false,
					"inputs": [
						{
							"indexed": true,
							"internalType": "address",
							"name": "owner",
							"type": "address"
						},
						{
							"indexed": true,
							"internalType": "uint256",
							"name": "tokenId",
							"type": "uint256"
						},
						{
							"indexed": false,
							"internalType": "uint256",
							"name": "stakedTime",
							"type": "uint256"
						}
					],
					"name": "Staked",
					"type": "event"
				},
				{
					"anonymous": false,
					"inputs": [
						{
							"indexed": true,
							"internalType": "address",
							"name": "owner",
							"type": "address"
						},
						{
							"indexed": true,
							"internalType": "uint256",
							"name": "tokenId",
							"type": "uint256"
						},
						{
							"indexed": false,
							"internalType": "uint256",
							"name": "reward",
							"type": "uint256"
						}
					],
					"name": "Unstaked",
					"type": "event"
				},
				{
					"inputs": [],
					"name": "DECIMALS",
					"outputs": [
						{
							"internalType": "uint256",
							"name": "",
							"type": "uint256"
						}
					],
					"stateMutability": "view",
					"type": "function"
				},
				{
					"inputs": [],
					"name": "MINIMUM_STAKING_TIME",
					"outputs": [
						{
							"internalType": "uint256",
							"name": "",
							"type": "uint256"
						}
					],
					"stateMutability": "view",
					"type": "function"
				},
				{
					"inputs": [],
					"name": "REWARD_RATE",
					"outputs": [
						{
							"internalType": "uint256",
							"name": "",
							"type": "uint256"
						}
					],
					"stateMutability": "view",
					"type": "function"
				},
				{
					"inputs": [],
					"name": "claimReward",
					"outputs": [],
					"stateMutability": "nonpayable",
					"type": "function"
				},
				{
					"inputs": [],
					"name": "nft",
					"outputs": [
						{
							"internalType": "contract IERC721",
							"name": "",
							"type": "address"
						}
					],
					"stateMutability": "view",
					"type": "function"
				},
				{
					"inputs": [
						{
							"internalType": "address",
							"name": "",
							"type": "address"
						},
						{
							"internalType": "address",
							"name": "",
							"type": "address"
						},
						{
							"internalType": "uint256",
							"name": "",
							"type": "uint256"
						},
						{
							"internalType": "bytes",
							"name": "",
							"type": "bytes"
						}
					],
					"name": "onERC721Received",
					"outputs": [
						{
							"internalType": "bytes4",
							"name": "",
							"type": "bytes4"
						}
					],
					"stateMutability": "pure",
					"type": "function"
				},
				{
					"inputs": [],
					"name": "rewardToken",
					"outputs": [
						{
							"internalType": "contract IERC20",
							"name": "",
							"type": "address"
						}
					],
					"stateMutability": "view",
					"type": "function"
				},
				{
					"inputs": [
						{
							"internalType": "uint256",
							"name": "_tokenId",
							"type": "uint256"
						}
					],
					"name": "stake",
					"outputs": [],
					"stateMutability": "nonpayable",
					"type": "function"
				},
				{
					"inputs": [
						{
							"internalType": "address",
							"name": "",
							"type": "address"
						}
					],
					"name": "stakes",
					"outputs": [
						{
							"internalType": "uint256",
							"name": "tokenId",
							"type": "uint256"
						},
						{
							"internalType": "uint256",
							"name": "stakedTime",
							"type": "uint256"
						},
						{
							"internalType": "uint256",
							"name": "lastClaimedTime",
							"type": "uint256"
						},
						{
							"internalType": "bool",
							"name": "active",
							"type": "bool"
						}
					],
					"stateMutability": "view",
					"type": "function"
				},
				{
					"inputs": [],
					"name": "unstake",
					"outputs": [],
					"stateMutability": "nonpayable",
					"type": "function"
				}
			],
			"devdoc": {
				"kind": "dev",
				"methods": {},
				"version": 1
			},
			"evm": {
				"assembly": "    /* \"Staking Contract/SimPLstake.sol\":480:3427  contract NFTStaking is IERC721Receiver, ReentrancyGuard {... */\n  mstore(0x40, 0x80)\n    /* \"Staking Contract/SimPLstake.sol\":1289:1445  constructor(address _nftAddress, address _rewardTokenAddress) {... */\n  callvalue\n  dup1\n  iszero\n  tag_1\n  jumpi\n  0x00\n  dup1\n  revert\ntag_1:\n  pop\n  mload(0x40)\n  sub(codesize, bytecodeSize)\n  dup1\n  bytecodeSize\n  dup4\n  codecopy\n  dup2\n  add\n  0x40\n  dup2\n  swap1\n  mstore\n  tag_2\n  swap2\n  tag_3\n  jump\t// in\ntag_2:\n    /* \"@openzeppelin/contracts/security/ReentrancyGuard.sol\":1716:1717  1 */\n  0x01\n    /* \"@openzeppelin/contracts/security/ReentrancyGuard.sol\":1821:1828  _status */\n  0x00\n    /* \"@openzeppelin/contracts/security/ReentrancyGuard.sol\":1821:1843  _status = _NOT_ENTERED */\n  dup2\n  swap1\n  sstore\n    /* \"Staking Contract/SimPLstake.sol\":1361:1387  nft = IERC721(_nftAddress) */\n  dup1\n  sload\n  sub(shl(0xa0, 0x01), 0x01)\n  swap4\n  dup5\n  and\n  not(sub(shl(0xa0, 0x01), 0x01))\n  swap2\n  dup3\n  and\n  or\n  swap1\n  swap2\n  sstore\n    /* \"Staking Contract/SimPLstake.sol\":1397:1408  rewardToken */\n  0x02\n    /* \"Staking Contract/SimPLstake.sol\":1397:1438  rewardToken = IERC20(_rewardTokenAddress) */\n  dup1\n  sload\n  swap3\n  swap1\n  swap4\n  and\n  swap2\n  and\n  or\n  swap1\n  sstore\n    /* \"Staking Contract/SimPLstake.sol\":480:3427  contract NFTStaking is IERC721Receiver, ReentrancyGuard {... */\n  jump(tag_10)\n    /* \"#utility.yul\":14:191   */\ntag_9:\n    /* \"#utility.yul\":93:106   */\n  dup1\n  mload\n  sub(shl(0xa0, 0x01), 0x01)\n    /* \"#utility.yul\":135:166   */\n  dup2\n  and\n    /* \"#utility.yul\":125:167   */\n  dup2\n  eq\n    /* \"#utility.yul\":115:185   */\n  tag_12\n  jumpi\n    /* \"#utility.yul\":181:182   */\n  0x00\n    /* \"#utility.yul\":178:179   */\n  dup1\n    /* \"#utility.yul\":171:183   */\n  revert\n    /* \"#utility.yul\":115:185   */\ntag_12:\n    /* \"#utility.yul\":14:191   */\n  swap2\n  swap1\n  pop\n  jump\t// out\n    /* \"#utility.yul\":196:489   */\ntag_3:\n    /* \"#utility.yul\":275:281   */\n  0x00\n    /* \"#utility.yul\":283:289   */\n  dup1\n    /* \"#utility.yul\":336:338   */\n  0x40\n    /* \"#utility.yul\":324:333   */\n  dup4\n    /* \"#utility.yul\":315:322   */\n  dup6\n    /* \"#utility.yul\":311:334   */\n  sub\n    /* \"#utility.yul\":307:339   */\n  slt\n    /* \"#utility.yul\":304:356   */\n  iszero\n  tag_14\n  jumpi\n    /* \"#utility.yul\":352:353   */\n  0x00\n    /* \"#utility.yul\":349:350   */\n  dup1\n    /* \"#utility.yul\":342:354   */\n  revert\n    /* \"#utility.yul\":304:356   */\ntag_14:\n    /* \"#utility.yul\":375:415   */\n  tag_15\n    /* \"#utility.yul\":405:414   */\n  dup4\n    /* \"#utility.yul\":375:415   */\n  tag_9\n  jump\t// in\ntag_15:\n    /* \"#utility.yul\":365:415   */\n  swap2\n  pop\n    /* \"#utility.yul\":434:483   */\n  tag_16\n    /* \"#utility.yul\":479:481   */\n  0x20\n    /* \"#utility.yul\":468:477   */\n  dup5\n    /* \"#utility.yul\":464:482   */\n  add\n    /* \"#utility.yul\":434:483   */\n  tag_9\n  jump\t// in\ntag_16:\n    /* \"#utility.yul\":424:483   */\n  swap1\n  pop\n    /* \"#utility.yul\":196:489   */\n  swap3\n  pop\n  swap3\n  swap1\n  pop\n  jump\t// out\ntag_10:\n    /* \"Staking Contract/SimPLstake.sol\":480:3427  contract NFTStaking is IERC721Receiver, ReentrancyGuard {... */\n  dataSize(sub_0)\n  dup1\n  dataOffset(sub_0)\n  0x00\n  codecopy\n  0x00\n  return\nstop\n\nsub_0: assembly {\n        /* \"Staking Contract/SimPLstake.sol\":480:3427  contract NFTStaking is IERC721Receiver, ReentrancyGuard {... */\n      mstore(0x40, 0x80)\n      callvalue\n      dup1\n      iszero\n      tag_1\n      jumpi\n      0x00\n      dup1\n      revert\n    tag_1:\n      pop\n      jumpi(tag_2, lt(calldatasize, 0x04))\n      shr(0xe0, calldataload(0x00))\n      dup1\n      0x47ccca02\n      gt\n      tag_13\n      jumpi\n      dup1\n      0x47ccca02\n      eq\n      tag_8\n      jumpi\n      dup1\n      0x5997bb37\n      eq\n      tag_9\n      jumpi\n      dup1\n      0xa694fc3a\n      eq\n      tag_10\n      jumpi\n      dup1\n      0xb88a802f\n      eq\n      tag_11\n      jumpi\n      dup1\n      0xf7c618c1\n      eq\n      tag_12\n      jumpi\n      0x00\n      dup1\n      revert\n    tag_13:\n      dup1\n      0x02657ad0\n      eq\n      tag_3\n      jumpi\n      dup1\n      0x150b7a02\n      eq\n      tag_4\n      jumpi\n      dup1\n      0x16934fc4\n      eq\n      tag_5\n      jumpi\n      dup1\n      0x2def6620\n      eq\n      tag_6\n      jumpi\n      dup1\n      0x2e0f2625\n      eq\n      tag_7\n      jumpi\n    tag_2:\n      0x00\n      dup1\n      revert\n        /* \"Staking Contract/SimPLstake.sol\":638:692  uint256 public constant MINIMUM_STAKING_TIME = 30 days */\n    tag_3:\n      tag_14\n        /* \"Staking Contract/SimPLstake.sol\":685:692  30 days */\n      0x278d00\n        /* \"Staking Contract/SimPLstake.sol\":638:692  uint256 public constant MINIMUM_STAKING_TIME = 30 days */\n      dup2\n      jump\n    tag_14:\n      mload(0x40)\n        /* \"#utility.yul\":160:185   */\n      swap1\n      dup2\n      mstore\n        /* \"#utility.yul\":148:150   */\n      0x20\n        /* \"#utility.yul\":133:151   */\n      add\n        /* \"Staking Contract/SimPLstake.sol\":638:692  uint256 public constant MINIMUM_STAKING_TIME = 30 days */\n    tag_16:\n      mload(0x40)\n      dup1\n      swap2\n      sub\n      swap1\n      return\n        /* \"Staking Contract/SimPLstake.sol\":3252:3425  function onERC721Received(... */\n    tag_4:\n      tag_18\n      tag_19\n      calldatasize\n      0x04\n      tag_20\n      jump\t// in\n    tag_19:\n      shl(0xe1, 0x0a85bd01)\n      swap6\n      swap5\n      pop\n      pop\n      pop\n      pop\n      pop\n      jump\n    tag_18:\n      mload(0x40)\n      not(sub(shl(0xe0, 0x01), 0x01))\n        /* \"#utility.yul\":1435:1468   */\n      swap1\n      swap2\n      and\n        /* \"#utility.yul\":1417:1469   */\n      dup2\n      mstore\n        /* \"#utility.yul\":1405:1407   */\n      0x20\n        /* \"#utility.yul\":1390:1408   */\n      add\n        /* \"Staking Contract/SimPLstake.sol\":3252:3425  function onERC721Received(... */\n      tag_16\n        /* \"#utility.yul\":1273:1475   */\n      jump\n        /* \"Staking Contract/SimPLstake.sol\":983:1022  mapping(address => Stake) public stakes */\n    tag_5:\n      tag_24\n      tag_25\n      calldatasize\n      0x04\n      tag_26\n      jump\t// in\n    tag_25:\n      0x03\n      0x20\n      dup2\n      swap1\n      mstore\n      0x00\n      swap2\n      dup3\n      mstore\n      0x40\n      swap1\n      swap2\n      keccak256\n      dup1\n      sload\n      0x01\n      dup3\n      add\n      sload\n      0x02\n      dup4\n      add\n      sload\n      swap3\n      swap1\n      swap4\n      add\n      sload\n      swap1\n      swap3\n      swap2\n      swap1\n      0xff\n      and\n      dup5\n      jump\n    tag_24:\n      0x40\n      dup1\n      mload\n        /* \"#utility.yul\":1957:1982   */\n      swap5\n      dup6\n      mstore\n        /* \"#utility.yul\":2013:2015   */\n      0x20\n        /* \"#utility.yul\":1998:2016   */\n      dup6\n      add\n        /* \"#utility.yul\":1991:2025   */\n      swap4\n      swap1\n      swap4\n      mstore\n        /* \"#utility.yul\":2041:2059   */\n      swap2\n      dup4\n      add\n        /* \"#utility.yul\":2034:2068   */\n      mstore\n        /* \"#utility.yul\":2111:2125   */\n      iszero\n        /* \"#utility.yul\":2104:2126   */\n      iszero\n        /* \"#utility.yul\":2099:2101   */\n      0x60\n        /* \"#utility.yul\":2084:2102   */\n      dup3\n      add\n        /* \"#utility.yul\":2077:2127   */\n      mstore\n        /* \"#utility.yul\":1944:1947   */\n      0x80\n        /* \"#utility.yul\":1929:1948   */\n      add\n        /* \"Staking Contract/SimPLstake.sol\":983:1022  mapping(address => Stake) public stakes */\n      tag_16\n        /* \"#utility.yul\":1732:2133   */\n      jump\n        /* \"Staking Contract/SimPLstake.sol\":1994:2551  function unstake() external nonReentrant {... */\n    tag_6:\n      tag_30\n      tag_31\n      jump\t// in\n    tag_30:\n      stop\n        /* \"Staking Contract/SimPLstake.sol\":751:788  uint256 public constant DECIMALS = 18 */\n    tag_7:\n      tag_14\n        /* \"Staking Contract/SimPLstake.sol\":786:788  18 */\n      0x12\n        /* \"Staking Contract/SimPLstake.sol\":751:788  uint256 public constant DECIMALS = 18 */\n      dup2\n      jump\n        /* \"Staking Contract/SimPLstake.sol\":928:946  IERC721 public nft */\n    tag_8:\n      sload(0x01)\n      tag_35\n      swap1\n      sub(shl(0xa0, 0x01), 0x01)\n      and\n      dup2\n      jump\n    tag_35:\n      mload(0x40)\n      sub(shl(0xa0, 0x01), 0x01)\n        /* \"#utility.yul\":2317:2349   */\n      swap1\n      swap2\n      and\n        /* \"#utility.yul\":2299:2350   */\n      dup2\n      mstore\n        /* \"#utility.yul\":2287:2289   */\n      0x20\n        /* \"#utility.yul\":2272:2290   */\n      add\n        /* \"Staking Contract/SimPLstake.sol\":928:946  IERC721 public nft */\n      tag_16\n        /* \"#utility.yul\":2138:2356   */\n      jump\n        /* \"Staking Contract/SimPLstake.sol\":698:738  uint256 public constant REWARD_RATE = 10 */\n    tag_9:\n      tag_14\n        /* \"Staking Contract/SimPLstake.sol\":736:738  10 */\n      0x0a\n        /* \"Staking Contract/SimPLstake.sol\":698:738  uint256 public constant REWARD_RATE = 10 */\n      dup2\n      jump\n        /* \"Staking Contract/SimPLstake.sol\":1451:1988  function stake(uint256 _tokenId) external nonReentrant {... */\n    tag_10:\n      tag_30\n      tag_43\n      calldatasize\n      0x04\n      tag_44\n      jump\t// in\n    tag_43:\n      tag_45\n      jump\t// in\n        /* \"Staking Contract/SimPLstake.sol\":2557:2945  function claimReward() external nonReentrant {... */\n    tag_11:\n      tag_30\n      tag_47\n      jump\t// in\n        /* \"Staking Contract/SimPLstake.sol\":952:977  IERC20 public rewardToken */\n    tag_12:\n      sload(0x02)\n      tag_35\n      swap1\n      sub(shl(0xa0, 0x01), 0x01)\n      and\n      dup2\n      jump\n        /* \"Staking Contract/SimPLstake.sol\":1994:2551  function unstake() external nonReentrant {... */\n    tag_31:\n        /* \"@openzeppelin/contracts/security/ReentrancyGuard.sol\":2261:2282  _nonReentrantBefore() */\n      tag_54\n        /* \"@openzeppelin/contracts/security/ReentrancyGuard.sol\":2261:2280  _nonReentrantBefore */\n      tag_55\n        /* \"@openzeppelin/contracts/security/ReentrancyGuard.sol\":2261:2282  _nonReentrantBefore() */\n      jump\t// in\n    tag_54:\n        /* \"Staking Contract/SimPLstake.sol\":2074:2084  msg.sender */\n      caller\n        /* \"Staking Contract/SimPLstake.sol\":2045:2064  Stake storage stake */\n      0x00\n        /* \"Staking Contract/SimPLstake.sol\":2067:2085  stakes[msg.sender] */\n      swap1\n      dup2\n      mstore\n        /* \"Staking Contract/SimPLstake.sol\":2067:2073  stakes */\n      0x03\n        /* \"Staking Contract/SimPLstake.sol\":2067:2085  stakes[msg.sender] */\n      0x20\n      dup2\n      swap1\n      mstore\n      0x40\n      swap1\n      swap2\n      keccak256\n        /* \"Staking Contract/SimPLstake.sol\":2103:2115  stake.active */\n      swap1\n      dup2\n      add\n      sload\n      0xff\n      and\n        /* \"Staking Contract/SimPLstake.sol\":2095:2142  require(stake.active, \"NFTStaking: not staked\") */\n      tag_57\n      jumpi\n      mload(0x40)\n      shl(0xe5, 0x461bcd)\n      dup2\n      mstore\n        /* \"#utility.yul\":2970:2972   */\n      0x20\n        /* \"Staking Contract/SimPLstake.sol\":2095:2142  require(stake.active, \"NFTStaking: not staked\") */\n      0x04\n      dup3\n      add\n        /* \"#utility.yul\":2952:2973   */\n      mstore\n        /* \"#utility.yul\":3009:3011   */\n      0x16\n        /* \"#utility.yul\":2989:3007   */\n      0x24\n      dup3\n      add\n        /* \"#utility.yul\":2982:3012   */\n      mstore\n      shl(0x52, 0x13919514dd185ada5b99ce881b9bdd081cdd185ad959)\n        /* \"#utility.yul\":3028:3046   */\n      0x44\n      dup3\n      add\n        /* \"#utility.yul\":3021:3073   */\n      mstore\n        /* \"#utility.yul\":3090:3108   */\n      0x64\n      add\n        /* \"Staking Contract/SimPLstake.sol\":2095:2142  require(stake.active, \"NFTStaking: not staked\") */\n    tag_58:\n      mload(0x40)\n      dup1\n      swap2\n      sub\n      swap1\n      revert\n    tag_57:\n        /* \"Staking Contract/SimPLstake.sol\":2179:2195  stake.stakedTime */\n      0x01\n      dup2\n      add\n      sload\n        /* \"Staking Contract/SimPLstake.sol\":2179:2221  stake.stakedTime.add(MINIMUM_STAKING_TIME) */\n      tag_60\n      swap1\n        /* \"Staking Contract/SimPLstake.sol\":685:692  30 days */\n      0x278d00\n        /* \"Staking Contract/SimPLstake.sol\":2179:2199  stake.stakedTime.add */\n      tag_61\n        /* \"Staking Contract/SimPLstake.sol\":2179:2221  stake.stakedTime.add(MINIMUM_STAKING_TIME) */\n      jump\t// in\n    tag_60:\n        /* \"Staking Contract/SimPLstake.sol\":2160:2175  block.timestamp */\n      timestamp\n        /* \"Staking Contract/SimPLstake.sol\":2160:2221  block.timestamp >= stake.stakedTime.add(MINIMUM_STAKING_TIME) */\n      lt\n      iszero\n        /* \"Staking Contract/SimPLstake.sol\":2152:2262  require(block.timestamp >= stake.stakedTime.add(MINIMUM_STAKING_TIME), \"NFTStaking: staking time not reached\") */\n      tag_62\n      jumpi\n      mload(0x40)\n      shl(0xe5, 0x461bcd)\n      dup2\n      mstore\n        /* \"#utility.yul\":3321:3323   */\n      0x20\n        /* \"Staking Contract/SimPLstake.sol\":2152:2262  require(block.timestamp >= stake.stakedTime.add(MINIMUM_STAKING_TIME), \"NFTStaking: staking time not reached\") */\n      0x04\n      dup3\n      add\n        /* \"#utility.yul\":3303:3324   */\n      mstore\n        /* \"#utility.yul\":3360:3362   */\n      0x24\n        /* \"#utility.yul\":3340:3358   */\n      dup1\n      dup3\n      add\n        /* \"#utility.yul\":3333:3363   */\n      mstore\n        /* \"#utility.yul\":3399:3433   */\n      0x4e46545374616b696e673a207374616b696e672074696d65206e6f7420726561\n        /* \"#utility.yul\":3379:3397   */\n      0x44\n      dup3\n      add\n        /* \"#utility.yul\":3372:3434   */\n      mstore\n      shl(0xe2, 0x18da1959)\n        /* \"#utility.yul\":3450:3468   */\n      0x64\n      dup3\n      add\n        /* \"#utility.yul\":3443:3477   */\n      mstore\n        /* \"#utility.yul\":3494:3513   */\n      0x84\n      add\n        /* \"Staking Contract/SimPLstake.sol\":2152:2262  require(block.timestamp >= stake.stakedTime.add(MINIMUM_STAKING_TIME), \"NFTStaking: staking time not reached\") */\n      tag_58\n        /* \"#utility.yul\":3119:3519   */\n      jump\n        /* \"Staking Contract/SimPLstake.sol\":2152:2262  require(block.timestamp >= stake.stakedTime.add(MINIMUM_STAKING_TIME), \"NFTStaking: staking time not reached\") */\n    tag_62:\n        /* \"Staking Contract/SimPLstake.sol\":2273:2287  uint256 reward */\n      0x00\n        /* \"Staking Contract/SimPLstake.sol\":2290:2324  calculateReward(msg.sender, stake) */\n      tag_65\n        /* \"Staking Contract/SimPLstake.sol\":2306:2316  msg.sender */\n      caller\n        /* \"Staking Contract/SimPLstake.sol\":2318:2323  stake */\n      dup4\n        /* \"Staking Contract/SimPLstake.sol\":2290:2305  calculateReward */\n      tag_66\n        /* \"Staking Contract/SimPLstake.sol\":2290:2324  calculateReward(msg.sender, stake) */\n      jump\t// in\n    tag_65:\n        /* \"Staking Contract/SimPLstake.sol\":2334:2345  rewardToken */\n      sload(0x02)\n        /* \"Staking Contract/SimPLstake.sol\":2273:2324  uint256 reward = calculateReward(msg.sender, stake) */\n      swap1\n      swap2\n      pop\n        /* \"Staking Contract/SimPLstake.sol\":2334:2378  rewardToken.safeTransfer(msg.sender, reward) */\n      tag_67\n      swap1\n      sub(shl(0xa0, 0x01), 0x01)\n        /* \"Staking Contract/SimPLstake.sol\":2334:2345  rewardToken */\n      and\n        /* \"Staking Contract/SimPLstake.sol\":2359:2369  msg.sender */\n      caller\n        /* \"Staking Contract/SimPLstake.sol\":2273:2324  uint256 reward = calculateReward(msg.sender, stake) */\n      dup4\n        /* \"Staking Contract/SimPLstake.sol\":2334:2358  rewardToken.safeTransfer */\n      tag_68\n        /* \"Staking Contract/SimPLstake.sol\":2334:2378  rewardToken.safeTransfer(msg.sender, reward) */\n      jump\t// in\n    tag_67:\n        /* \"Staking Contract/SimPLstake.sol\":2388:2391  nft */\n      sload(0x01)\n        /* \"Staking Contract/SimPLstake.sol\":2436:2449  stake.tokenId */\n      dup3\n      sload\n        /* \"Staking Contract/SimPLstake.sol\":2388:2450  nft.safeTransferFrom(address(this), msg.sender, stake.tokenId) */\n      mload(0x40)\n      shl(0xe1, 0x21421707)\n      dup2\n      mstore\n        /* \"Staking Contract/SimPLstake.sol\":2417:2421  this */\n      address\n        /* \"Staking Contract/SimPLstake.sol\":2388:2450  nft.safeTransferFrom(address(this), msg.sender, stake.tokenId) */\n      0x04\n      dup3\n      add\n        /* \"#utility.yul\":3764:3798   */\n      mstore\n        /* \"Staking Contract/SimPLstake.sol\":2424:2434  msg.sender */\n      caller\n        /* \"#utility.yul\":3814:3832   */\n      0x24\n      dup3\n      add\n        /* \"#utility.yul\":3807:3850   */\n      mstore\n        /* \"#utility.yul\":3866:3884   */\n      0x44\n      dup2\n      add\n        /* \"#utility.yul\":3859:3893   */\n      swap2\n      swap1\n      swap2\n      mstore\n      sub(shl(0xa0, 0x01), 0x01)\n        /* \"Staking Contract/SimPLstake.sol\":2388:2391  nft */\n      swap1\n      swap2\n      and\n      swap1\n        /* \"Staking Contract/SimPLstake.sol\":2388:2408  nft.safeTransferFrom */\n      0x42842e0e\n      swap1\n        /* \"#utility.yul\":3699:3717   */\n      0x64\n      add\n        /* \"Staking Contract/SimPLstake.sol\":2388:2450  nft.safeTransferFrom(address(this), msg.sender, stake.tokenId) */\n      0x00\n      mload(0x40)\n      dup1\n      dup4\n      sub\n      dup2\n      0x00\n      dup8\n      dup1\n      extcodesize\n      iszero\n      dup1\n      iszero\n      tag_71\n      jumpi\n      0x00\n      dup1\n      revert\n    tag_71:\n      pop\n      gas\n      call\n      iszero\n      dup1\n      iszero\n      tag_73\n      jumpi\n      returndatasize\n      0x00\n      dup1\n      returndatacopy\n      revert(0x00, returndatasize)\n    tag_73:\n      pop\n      pop\n        /* \"Staking Contract/SimPLstake.sol\":2474:2484  msg.sender */\n      caller\n        /* \"Staking Contract/SimPLstake.sol\":2467:2485  stakes[msg.sender] */\n      0x00\n      dup2\n      dup2\n      mstore\n        /* \"Staking Contract/SimPLstake.sol\":2467:2473  stakes */\n      0x03\n        /* \"Staking Contract/SimPLstake.sol\":2467:2485  stakes[msg.sender] */\n      0x20\n      dup2\n      dup2\n      mstore\n      0x40\n      dup1\n      dup5\n      keccak256\n        /* \"Staking Contract/SimPLstake.sol\":2460:2485  delete stakes[msg.sender] */\n      dup5\n      dup2\n      sstore\n      0x01\n      dup2\n      add\n      dup6\n      swap1\n      sstore\n      0x02\n      dup2\n      add\n      swap5\n      swap1\n      swap5\n      sstore\n      swap3\n      swap1\n      swap2\n      add\n      dup1\n      sload\n      not(0xff)\n      and\n      swap1\n      sstore\n        /* \"Staking Contract/SimPLstake.sol\":2522:2535  stake.tokenId */\n      dup7\n      sload\n        /* \"Staking Contract/SimPLstake.sol\":2501:2544  Unstaked(msg.sender, stake.tokenId, reward) */\n      swap2\n      mload\n        /* \"#utility.yul\":160:185   */\n      dup7\n      dup2\n      mstore\n        /* \"Staking Contract/SimPLstake.sol\":2522:2535  stake.tokenId */\n      swap2\n      swap5\n      pop\n        /* \"Staking Contract/SimPLstake.sol\":2474:2484  msg.sender */\n      swap2\n      swap3\n      pop\n        /* \"Staking Contract/SimPLstake.sol\":2501:2544  Unstaked(msg.sender, stake.tokenId, reward) */\n      0x7fc4727e062e336010f2c282598ef5f14facb3de68cf8195c2f23e1454b2b74e\n      swap2\n        /* \"#utility.yul\":133:151   */\n      add\n        /* \"Staking Contract/SimPLstake.sol\":2501:2544  Unstaked(msg.sender, stake.tokenId, reward) */\n    tag_74:\n      mload(0x40)\n      dup1\n      swap2\n      sub\n      swap1\n      log3\n        /* \"Staking Contract/SimPLstake.sol\":2035:2551  {... */\n      pop\n      pop\n        /* \"@openzeppelin/contracts/security/ReentrancyGuard.sol\":2303:2323  _nonReentrantAfter() */\n      tag_75\n        /* \"@openzeppelin/contracts/security/ReentrancyGuard.sol\":1716:1717  1 */\n      0x01\n        /* \"@openzeppelin/contracts/security/ReentrancyGuard.sol\":2809:2816  _status */\n      0x00\n        /* \"@openzeppelin/contracts/security/ReentrancyGuard.sol\":2809:2831  _status = _NOT_ENTERED */\n      sstore\n        /* \"@openzeppelin/contracts/security/ReentrancyGuard.sol\":2629:2838  function _nonReentrantAfter() private {... */\n      jump\n        /* \"@openzeppelin/contracts/security/ReentrancyGuard.sol\":2303:2323  _nonReentrantAfter() */\n    tag_75:\n        /* \"Staking Contract/SimPLstake.sol\":1994:2551  function unstake() external nonReentrant {... */\n      jump\t// out\n        /* \"Staking Contract/SimPLstake.sol\":1451:1988  function stake(uint256 _tokenId) external nonReentrant {... */\n    tag_45:\n        /* \"@openzeppelin/contracts/security/ReentrancyGuard.sol\":2261:2282  _nonReentrantBefore() */\n      tag_78\n        /* \"@openzeppelin/contracts/security/ReentrancyGuard.sol\":2261:2280  _nonReentrantBefore */\n      tag_55\n        /* \"@openzeppelin/contracts/security/ReentrancyGuard.sol\":2261:2282  _nonReentrantBefore() */\n      jump\t// in\n    tag_78:\n        /* \"Staking Contract/SimPLstake.sol\":1524:1527  nft */\n      sload(0x01)\n        /* \"Staking Contract/SimPLstake.sol\":1524:1545  nft.ownerOf(_tokenId) */\n      mload(0x40)\n      shl(0xe1, 0x31a9108f)\n      dup2\n      mstore\n      0x04\n      dup2\n      add\n        /* \"#utility.yul\":160:185   */\n      dup4\n      swap1\n      mstore\n        /* \"Staking Contract/SimPLstake.sol\":1549:1559  msg.sender */\n      caller\n      swap2\n      sub(shl(0xa0, 0x01), 0x01)\n        /* \"Staking Contract/SimPLstake.sol\":1524:1527  nft */\n      and\n      swap1\n        /* \"Staking Contract/SimPLstake.sol\":1524:1535  nft.ownerOf */\n      0x6352211e\n      swap1\n        /* \"#utility.yul\":133:151   */\n      0x24\n      add\n        /* \"Staking Contract/SimPLstake.sol\":1524:1545  nft.ownerOf(_tokenId) */\n      0x20\n      mload(0x40)\n      dup1\n      dup4\n      sub\n      dup2\n      dup7\n      gas\n      staticcall\n      iszero\n      dup1\n      iszero\n      tag_82\n      jumpi\n      returndatasize\n      0x00\n      dup1\n      returndatacopy\n      revert(0x00, returndatasize)\n    tag_82:\n      pop\n      pop\n      pop\n      pop\n      mload(0x40)\n      returndatasize\n      not(0x1f)\n      0x1f\n      dup3\n      add\n      and\n      dup3\n      add\n      dup1\n      0x40\n      mstore\n      pop\n      dup2\n      add\n      swap1\n      tag_83\n      swap2\n      swap1\n      tag_84\n      jump\t// in\n    tag_83:\n      sub(shl(0xa0, 0x01), 0x01)\n        /* \"Staking Contract/SimPLstake.sol\":1524:1559  nft.ownerOf(_tokenId) == msg.sender */\n      and\n      eq\n        /* \"Staking Contract/SimPLstake.sol\":1516:1594  require(nft.ownerOf(_tokenId) == msg.sender, \"NFTStaking: not owner of token\") */\n      tag_85\n      jumpi\n      mload(0x40)\n      shl(0xe5, 0x461bcd)\n      dup2\n      mstore\n        /* \"#utility.yul\":4362:4364   */\n      0x20\n        /* \"Staking Contract/SimPLstake.sol\":1516:1594  require(nft.ownerOf(_tokenId) == msg.sender, \"NFTStaking: not owner of token\") */\n      0x04\n      dup3\n      add\n        /* \"#utility.yul\":4344:4365   */\n      mstore\n        /* \"#utility.yul\":4401:4403   */\n      0x1e\n        /* \"#utility.yul\":4381:4399   */\n      0x24\n      dup3\n      add\n        /* \"#utility.yul\":4374:4404   */\n      mstore\n        /* \"#utility.yul\":4440:4472   */\n      0x4e46545374616b696e673a206e6f74206f776e6572206f6620746f6b656e0000\n        /* \"#utility.yul\":4420:4438   */\n      0x44\n      dup3\n      add\n        /* \"#utility.yul\":4413:4473   */\n      mstore\n        /* \"#utility.yul\":4490:4508   */\n      0x64\n      add\n        /* \"Staking Contract/SimPLstake.sol\":1516:1594  require(nft.ownerOf(_tokenId) == msg.sender, \"NFTStaking: not owner of token\") */\n      tag_58\n        /* \"#utility.yul\":4160:4514   */\n      jump\n        /* \"Staking Contract/SimPLstake.sol\":1516:1594  require(nft.ownerOf(_tokenId) == msg.sender, \"NFTStaking: not owner of token\") */\n    tag_85:\n        /* \"Staking Contract/SimPLstake.sol\":1620:1630  msg.sender */\n      caller\n        /* \"Staking Contract/SimPLstake.sol\":1613:1631  stakes[msg.sender] */\n      0x00\n      swap1\n      dup2\n      mstore\n        /* \"Staking Contract/SimPLstake.sol\":1613:1619  stakes */\n      0x03\n        /* \"Staking Contract/SimPLstake.sol\":1613:1631  stakes[msg.sender] */\n      0x20\n      dup2\n      swap1\n      mstore\n      0x40\n      swap1\n      swap2\n      keccak256\n        /* \"Staking Contract/SimPLstake.sol\":1613:1638  stakes[msg.sender].active */\n      add\n      sload\n      0xff\n      and\n        /* \"Staking Contract/SimPLstake.sol\":1612:1638  !stakes[msg.sender].active */\n      iszero\n        /* \"Staking Contract/SimPLstake.sol\":1604:1669  require(!stakes[msg.sender].active, \"NFTStaking: already staked\") */\n      tag_88\n      jumpi\n      mload(0x40)\n      shl(0xe5, 0x461bcd)\n      dup2\n      mstore\n        /* \"#utility.yul\":4721:4723   */\n      0x20\n        /* \"Staking Contract/SimPLstake.sol\":1604:1669  require(!stakes[msg.sender].active, \"NFTStaking: already staked\") */\n      0x04\n      dup3\n      add\n        /* \"#utility.yul\":4703:4724   */\n      mstore\n        /* \"#utility.yul\":4760:4762   */\n      0x1a\n        /* \"#utility.yul\":4740:4758   */\n      0x24\n      dup3\n      add\n        /* \"#utility.yul\":4733:4763   */\n      mstore\n        /* \"#utility.yul\":4799:4827   */\n      0x4e46545374616b696e673a20616c7265616479207374616b6564000000000000\n        /* \"#utility.yul\":4779:4797   */\n      0x44\n      dup3\n      add\n        /* \"#utility.yul\":4772:4828   */\n      mstore\n        /* \"#utility.yul\":4845:4863   */\n      0x64\n      add\n        /* \"Staking Contract/SimPLstake.sol\":1604:1669  require(!stakes[msg.sender].active, \"NFTStaking: already staked\") */\n      tag_58\n        /* \"#utility.yul\":4519:4869   */\n      jump\n        /* \"Staking Contract/SimPLstake.sol\":1604:1669  require(!stakes[msg.sender].active, \"NFTStaking: already staked\") */\n    tag_88:\n        /* \"Staking Contract/SimPLstake.sol\":1687:1690  nft */\n      sload(0x01)\n        /* \"Staking Contract/SimPLstake.sol\":1687:1712  nft.getApproved(_tokenId) */\n      mload(0x40)\n      shl(0xe2, 0x020604bf)\n      dup2\n      mstore\n      0x04\n      dup2\n      add\n        /* \"#utility.yul\":160:185   */\n      dup4\n      swap1\n      mstore\n        /* \"Staking Contract/SimPLstake.sol\":1724:1728  this */\n      address\n      swap2\n      sub(shl(0xa0, 0x01), 0x01)\n        /* \"Staking Contract/SimPLstake.sol\":1687:1690  nft */\n      and\n      swap1\n        /* \"Staking Contract/SimPLstake.sol\":1687:1702  nft.getApproved */\n      0x081812fc\n      swap1\n        /* \"#utility.yul\":133:151   */\n      0x24\n      add\n        /* \"Staking Contract/SimPLstake.sol\":1687:1712  nft.getApproved(_tokenId) */\n      0x20\n      mload(0x40)\n      dup1\n      dup4\n      sub\n      dup2\n      dup7\n      gas\n      staticcall\n      iszero\n      dup1\n      iszero\n      tag_93\n      jumpi\n      returndatasize\n      0x00\n      dup1\n      returndatacopy\n      revert(0x00, returndatasize)\n    tag_93:\n      pop\n      pop\n      pop\n      pop\n      mload(0x40)\n      returndatasize\n      not(0x1f)\n      0x1f\n      dup3\n      add\n      and\n      dup3\n      add\n      dup1\n      0x40\n      mstore\n      pop\n      dup2\n      add\n      swap1\n      tag_94\n      swap2\n      swap1\n      tag_84\n      jump\t// in\n    tag_94:\n      sub(shl(0xa0, 0x01), 0x01)\n        /* \"Staking Contract/SimPLstake.sol\":1687:1729  nft.getApproved(_tokenId) == address(this) */\n      and\n      eq\n        /* \"Staking Contract/SimPLstake.sol\":1679:1758  require(nft.getApproved(_tokenId) == address(this), \"NFTStaking: not approved\") */\n      tag_95\n      jumpi\n      mload(0x40)\n      shl(0xe5, 0x461bcd)\n      dup2\n      mstore\n        /* \"#utility.yul\":5076:5078   */\n      0x20\n        /* \"Staking Contract/SimPLstake.sol\":1679:1758  require(nft.getApproved(_tokenId) == address(this), \"NFTStaking: not approved\") */\n      0x04\n      dup3\n      add\n        /* \"#utility.yul\":5058:5079   */\n      mstore\n        /* \"#utility.yul\":5115:5117   */\n      0x18\n        /* \"#utility.yul\":5095:5113   */\n      0x24\n      dup3\n      add\n        /* \"#utility.yul\":5088:5118   */\n      mstore\n        /* \"#utility.yul\":5154:5180   */\n      0x4e46545374616b696e673a206e6f7420617070726f7665640000000000000000\n        /* \"#utility.yul\":5134:5152   */\n      0x44\n      dup3\n      add\n        /* \"#utility.yul\":5127:5181   */\n      mstore\n        /* \"#utility.yul\":5198:5216   */\n      0x64\n      add\n        /* \"Staking Contract/SimPLstake.sol\":1679:1758  require(nft.getApproved(_tokenId) == address(this), \"NFTStaking: not approved\") */\n      tag_58\n        /* \"#utility.yul\":4874:5222   */\n      jump\n        /* \"Staking Contract/SimPLstake.sol\":1679:1758  require(nft.getApproved(_tokenId) == address(this), \"NFTStaking: not approved\") */\n    tag_95:\n        /* \"Staking Contract/SimPLstake.sol\":1777:1780  nft */\n      sload(0x01)\n        /* \"Staking Contract/SimPLstake.sol\":1777:1834  nft.safeTransferFrom(msg.sender, address(this), _tokenId) */\n      mload(0x40)\n      shl(0xe1, 0x21421707)\n      dup2\n      mstore\n        /* \"Staking Contract/SimPLstake.sol\":1798:1808  msg.sender */\n      caller\n        /* \"Staking Contract/SimPLstake.sol\":1777:1834  nft.safeTransferFrom(msg.sender, address(this), _tokenId) */\n      0x04\n      dup3\n      add\n        /* \"#utility.yul\":3764:3798   */\n      mstore\n        /* \"Staking Contract/SimPLstake.sol\":1818:1822  this */\n      address\n        /* \"#utility.yul\":3814:3832   */\n      0x24\n      dup3\n      add\n        /* \"#utility.yul\":3807:3850   */\n      mstore\n        /* \"#utility.yul\":3866:3884   */\n      0x44\n      dup2\n      add\n        /* \"#utility.yul\":3859:3893   */\n      dup4\n      swap1\n      mstore\n      sub(shl(0xa0, 0x01), 0x01)\n        /* \"Staking Contract/SimPLstake.sol\":1777:1780  nft */\n      swap1\n      swap2\n      and\n      swap1\n        /* \"Staking Contract/SimPLstake.sol\":1777:1797  nft.safeTransferFrom */\n      0x42842e0e\n      swap1\n        /* \"#utility.yul\":3699:3717   */\n      0x64\n      add\n        /* \"Staking Contract/SimPLstake.sol\":1777:1834  nft.safeTransferFrom(msg.sender, address(this), _tokenId) */\n      0x00\n      mload(0x40)\n      dup1\n      dup4\n      sub\n      dup2\n      0x00\n      dup8\n      dup1\n      extcodesize\n      iszero\n      dup1\n      iszero\n      tag_99\n      jumpi\n      0x00\n      dup1\n      revert\n    tag_99:\n      pop\n      gas\n      call\n      iszero\n      dup1\n      iszero\n      tag_101\n      jumpi\n      returndatasize\n      0x00\n      dup1\n      returndatacopy\n      revert(0x00, returndatasize)\n    tag_101:\n      pop\n      pop\n        /* \"Staking Contract/SimPLstake.sol\":1865:1920  Stake(_tokenId, block.timestamp, block.timestamp, true) */\n      0x40\n      dup1\n      mload\n      0x80\n      dup2\n      add\n      dup3\n      mstore\n      dup5\n      dup2\n      mstore\n        /* \"Staking Contract/SimPLstake.sol\":1881:1896  block.timestamp */\n      timestamp\n        /* \"Staking Contract/SimPLstake.sol\":1865:1920  Stake(_tokenId, block.timestamp, block.timestamp, true) */\n      0x20\n      dup1\n      dup4\n      add\n      dup3\n      dup2\n      mstore\n      dup4\n      dup6\n      add\n      dup4\n      dup2\n      mstore\n        /* \"Staking Contract/SimPLstake.sol\":1915:1919  true */\n      0x01\n        /* \"Staking Contract/SimPLstake.sol\":1865:1920  Stake(_tokenId, block.timestamp, block.timestamp, true) */\n      0x60\n      dup7\n      add\n      dup2\n      dup2\n      mstore\n        /* \"Staking Contract/SimPLstake.sol\":1851:1861  msg.sender */\n      caller\n      0x00\n        /* \"Staking Contract/SimPLstake.sol\":1844:1862  stakes[msg.sender] */\n      dup2\n      dup2\n      mstore\n        /* \"Staking Contract/SimPLstake.sol\":1844:1850  stakes */\n      0x03\n        /* \"Staking Contract/SimPLstake.sol\":1844:1862  stakes[msg.sender] */\n      dup1\n      dup9\n      mstore\n      swap1\n      dup11\n      swap1\n      keccak256\n        /* \"Staking Contract/SimPLstake.sol\":1844:1920  stakes[msg.sender] = Stake(_tokenId, block.timestamp, block.timestamp, true) */\n      swap9\n      mload\n      dup10\n      sstore\n      swap5\n      mload\n      swap3\n      dup9\n      add\n      swap3\n      swap1\n      swap3\n      sstore\n      swap2\n      mload\n      0x02\n      dup8\n      add\n      sstore\n      swap1\n      mload\n      swap5\n      swap1\n      swap2\n      add\n      dup1\n      sload\n      not(0xff)\n      and\n      swap5\n      iszero\n      iszero\n      swap5\n      swap1\n      swap5\n      or\n      swap1\n      swap4\n      sstore\n        /* \"Staking Contract/SimPLstake.sol\":1936:1981  Staked(msg.sender, _tokenId, block.timestamp) */\n      swap3\n      mload\n        /* \"#utility.yul\":160:185   */\n      swap1\n      dup2\n      mstore\n        /* \"Staking Contract/SimPLstake.sol\":1865:1920  Stake(_tokenId, block.timestamp, block.timestamp, true) */\n      dup6\n      swap5\n      pop\n        /* \"Staking Contract/SimPLstake.sol\":1851:1861  msg.sender */\n      swap1\n      swap3\n      pop\n        /* \"Staking Contract/SimPLstake.sol\":1936:1981  Staked(msg.sender, _tokenId, block.timestamp) */\n      0x1449c6dd7851abc30abf37f57715f492010519147cc2652fbc38202c18a6ee90\n      swap2\n        /* \"#utility.yul\":133:151   */\n      add\n        /* \"Staking Contract/SimPLstake.sol\":1936:1981  Staked(msg.sender, _tokenId, block.timestamp) */\n      mload(0x40)\n      dup1\n      swap2\n      sub\n      swap1\n      log3\n        /* \"@openzeppelin/contracts/security/ReentrancyGuard.sol\":2303:2323  _nonReentrantAfter() */\n      tag_103\n        /* \"@openzeppelin/contracts/security/ReentrancyGuard.sol\":1716:1717  1 */\n      0x01\n        /* \"@openzeppelin/contracts/security/ReentrancyGuard.sol\":2809:2816  _status */\n      0x00\n        /* \"@openzeppelin/contracts/security/ReentrancyGuard.sol\":2809:2831  _status = _NOT_ENTERED */\n      sstore\n        /* \"@openzeppelin/contracts/security/ReentrancyGuard.sol\":2629:2838  function _nonReentrantAfter() private {... */\n      jump\n        /* \"@openzeppelin/contracts/security/ReentrancyGuard.sol\":2303:2323  _nonReentrantAfter() */\n    tag_103:\n        /* \"Staking Contract/SimPLstake.sol\":1451:1988  function stake(uint256 _tokenId) external nonReentrant {... */\n      pop\n      jump\t// out\n        /* \"Staking Contract/SimPLstake.sol\":2557:2945  function claimReward() external nonReentrant {... */\n    tag_47:\n        /* \"@openzeppelin/contracts/security/ReentrancyGuard.sol\":2261:2282  _nonReentrantBefore() */\n      tag_105\n        /* \"@openzeppelin/contracts/security/ReentrancyGuard.sol\":2261:2280  _nonReentrantBefore */\n      tag_55\n        /* \"@openzeppelin/contracts/security/ReentrancyGuard.sol\":2261:2282  _nonReentrantBefore() */\n      jump\t// in\n    tag_105:\n        /* \"Staking Contract/SimPLstake.sol\":2641:2651  msg.sender */\n      caller\n        /* \"Staking Contract/SimPLstake.sol\":2612:2631  Stake storage stake */\n      0x00\n        /* \"Staking Contract/SimPLstake.sol\":2634:2652  stakes[msg.sender] */\n      swap1\n      dup2\n      mstore\n        /* \"Staking Contract/SimPLstake.sol\":2634:2640  stakes */\n      0x03\n        /* \"Staking Contract/SimPLstake.sol\":2634:2652  stakes[msg.sender] */\n      0x20\n      dup2\n      swap1\n      mstore\n      0x40\n      swap1\n      swap2\n      keccak256\n        /* \"Staking Contract/SimPLstake.sol\":2670:2682  stake.active */\n      swap1\n      dup2\n      add\n      sload\n      0xff\n      and\n        /* \"Staking Contract/SimPLstake.sol\":2662:2709  require(stake.active, \"NFTStaking: not staked\") */\n      tag_107\n      jumpi\n      mload(0x40)\n      shl(0xe5, 0x461bcd)\n      dup2\n      mstore\n        /* \"#utility.yul\":2970:2972   */\n      0x20\n        /* \"Staking Contract/SimPLstake.sol\":2662:2709  require(stake.active, \"NFTStaking: not staked\") */\n      0x04\n      dup3\n      add\n        /* \"#utility.yul\":2952:2973   */\n      mstore\n        /* \"#utility.yul\":3009:3011   */\n      0x16\n        /* \"#utility.yul\":2989:3007   */\n      0x24\n      dup3\n      add\n        /* \"#utility.yul\":2982:3012   */\n      mstore\n      shl(0x52, 0x13919514dd185ada5b99ce881b9bdd081cdd185ad959)\n        /* \"#utility.yul\":3028:3046   */\n      0x44\n      dup3\n      add\n        /* \"#utility.yul\":3021:3073   */\n      mstore\n        /* \"#utility.yul\":3090:3108   */\n      0x64\n      add\n        /* \"Staking Contract/SimPLstake.sol\":2662:2709  require(stake.active, \"NFTStaking: not staked\") */\n      tag_58\n        /* \"#utility.yul\":2768:3114   */\n      jump\n        /* \"Staking Contract/SimPLstake.sol\":2662:2709  require(stake.active, \"NFTStaking: not staked\") */\n    tag_107:\n        /* \"Staking Contract/SimPLstake.sol\":2720:2734  uint256 reward */\n      0x00\n        /* \"Staking Contract/SimPLstake.sol\":2737:2771  calculateReward(msg.sender, stake) */\n      tag_109\n        /* \"Staking Contract/SimPLstake.sol\":2753:2763  msg.sender */\n      caller\n        /* \"Staking Contract/SimPLstake.sol\":2765:2770  stake */\n      dup4\n        /* \"Staking Contract/SimPLstake.sol\":2737:2752  calculateReward */\n      tag_66\n        /* \"Staking Contract/SimPLstake.sol\":2737:2771  calculateReward(msg.sender, stake) */\n      jump\t// in\n    tag_109:\n        /* \"Staking Contract/SimPLstake.sol\":2805:2820  block.timestamp */\n      timestamp\n        /* \"Staking Contract/SimPLstake.sol\":2781:2802  stake.lastClaimedTime */\n      0x02\n      dup1\n      dup6\n      add\n        /* \"Staking Contract/SimPLstake.sol\":2781:2820  stake.lastClaimedTime = block.timestamp */\n      swap2\n      swap1\n      swap2\n      sstore\n        /* \"Staking Contract/SimPLstake.sol\":2830:2841  rewardToken */\n      sload\n        /* \"Staking Contract/SimPLstake.sol\":2720:2771  uint256 reward = calculateReward(msg.sender, stake) */\n      swap1\n      swap2\n      pop\n        /* \"Staking Contract/SimPLstake.sol\":2830:2874  rewardToken.safeTransfer(msg.sender, reward) */\n      tag_110\n      swap1\n      sub(shl(0xa0, 0x01), 0x01)\n        /* \"Staking Contract/SimPLstake.sol\":2830:2841  rewardToken */\n      and\n        /* \"Staking Contract/SimPLstake.sol\":2855:2865  msg.sender */\n      caller\n        /* \"Staking Contract/SimPLstake.sol\":2720:2771  uint256 reward = calculateReward(msg.sender, stake) */\n      dup4\n        /* \"Staking Contract/SimPLstake.sol\":2830:2854  rewardToken.safeTransfer */\n      tag_68\n        /* \"Staking Contract/SimPLstake.sol\":2830:2874  rewardToken.safeTransfer(msg.sender, reward) */\n      jump\t// in\n    tag_110:\n        /* \"Staking Contract/SimPLstake.sol\":2916:2929  stake.tokenId */\n      dup2\n      sload\n        /* \"Staking Contract/SimPLstake.sol\":2890:2938  RewardClaimed(msg.sender, stake.tokenId, reward) */\n      mload(0x40)\n        /* \"#utility.yul\":160:185   */\n      dup3\n      dup2\n      mstore\n        /* \"Staking Contract/SimPLstake.sol\":2904:2914  msg.sender */\n      caller\n      swap1\n        /* \"Staking Contract/SimPLstake.sol\":2890:2938  RewardClaimed(msg.sender, stake.tokenId, reward) */\n      0xf01da32686223933d8a18a391060918c7f11a3648639edd87ae013e2e2731743\n      swap1\n        /* \"#utility.yul\":148:150   */\n      0x20\n        /* \"#utility.yul\":133:151   */\n      add\n        /* \"Staking Contract/SimPLstake.sol\":2890:2938  RewardClaimed(msg.sender, stake.tokenId, reward) */\n      tag_74\n        /* \"#utility.yul\":14:191   */\n      jump\n        /* \"@openzeppelin/contracts/security/ReentrancyGuard.sol\":2336:2623  function _nonReentrantBefore() private {... */\n    tag_55:\n        /* \"@openzeppelin/contracts/security/ReentrancyGuard.sol\":1759:1760  2 */\n      0x02\n        /* \"@openzeppelin/contracts/security/ReentrancyGuard.sol\":2468:2475  _status */\n      sload(0x00)\n        /* \"@openzeppelin/contracts/security/ReentrancyGuard.sol\":2468:2487  _status != _ENTERED */\n      sub\n        /* \"@openzeppelin/contracts/security/ReentrancyGuard.sol\":2460:2523  require(_status != _ENTERED, \"ReentrancyGuard: reentrant call\") */\n      tag_114\n      jumpi\n      mload(0x40)\n      shl(0xe5, 0x461bcd)\n      dup2\n      mstore\n        /* \"#utility.yul\":5429:5431   */\n      0x20\n        /* \"@openzeppelin/contracts/security/ReentrancyGuard.sol\":2460:2523  require(_status != _ENTERED, \"ReentrancyGuard: reentrant call\") */\n      0x04\n      dup3\n      add\n        /* \"#utility.yul\":5411:5432   */\n      mstore\n        /* \"#utility.yul\":5468:5470   */\n      0x1f\n        /* \"#utility.yul\":5448:5466   */\n      0x24\n      dup3\n      add\n        /* \"#utility.yul\":5441:5471   */\n      mstore\n        /* \"#utility.yul\":5507:5540   */\n      0x5265656e7472616e637947756172643a207265656e7472616e742063616c6c00\n        /* \"#utility.yul\":5487:5505   */\n      0x44\n      dup3\n      add\n        /* \"#utility.yul\":5480:5541   */\n      mstore\n        /* \"#utility.yul\":5558:5576   */\n      0x64\n      add\n        /* \"@openzeppelin/contracts/security/ReentrancyGuard.sol\":2460:2523  require(_status != _ENTERED, \"ReentrancyGuard: reentrant call\") */\n      tag_58\n        /* \"#utility.yul\":5227:5582   */\n      jump\n        /* \"@openzeppelin/contracts/security/ReentrancyGuard.sol\":2460:2523  require(_status != _ENTERED, \"ReentrancyGuard: reentrant call\") */\n    tag_114:\n        /* \"@openzeppelin/contracts/security/ReentrancyGuard.sol\":1759:1760  2 */\n      0x02\n        /* \"@openzeppelin/contracts/security/ReentrancyGuard.sol\":2598:2605  _status */\n      0x00\n        /* \"@openzeppelin/contracts/security/ReentrancyGuard.sol\":2598:2616  _status = _ENTERED */\n      sstore\n        /* \"@openzeppelin/contracts/security/ReentrancyGuard.sol\":2336:2623  function _nonReentrantBefore() private {... */\n      jump\t// out\n        /* \"@openzeppelin/contracts/utils/math/SafeMath.sol\":2755:2851  function add(uint256 a, uint256 b) internal pure returns (uint256) {... */\n    tag_61:\n        /* \"@openzeppelin/contracts/utils/math/SafeMath.sol\":2813:2820  uint256 */\n      0x00\n        /* \"@openzeppelin/contracts/utils/math/SafeMath.sol\":2839:2844  a + b */\n      tag_118\n        /* \"@openzeppelin/contracts/utils/math/SafeMath.sol\":2843:2844  b */\n      dup3\n        /* \"@openzeppelin/contracts/utils/math/SafeMath.sol\":2839:2840  a */\n      dup5\n        /* \"@openzeppelin/contracts/utils/math/SafeMath.sol\":2839:2844  a + b */\n      tag_119\n      jump\t// in\n    tag_118:\n        /* \"@openzeppelin/contracts/utils/math/SafeMath.sol\":2832:2844  return a + b */\n      swap1\n      pop\n        /* \"@openzeppelin/contracts/utils/math/SafeMath.sol\":2755:2851  function add(uint256 a, uint256 b) internal pure returns (uint256) {... */\n    tag_117:\n      swap3\n      swap2\n      pop\n      pop\n      jump\t// out\n        /* \"Staking Contract/SimPLstake.sol\":2952:3250  function calculateReward(address _owner, Stake storage _stake) internal view returns (uint256) {... */\n    tag_66:\n        /* \"Staking Contract/SimPLstake.sol\":3038:3045  uint256 */\n      0x00\n        /* \"Staking Contract/SimPLstake.sol\":3057:3075  uint256 stakedTime */\n      dup1\n        /* \"Staking Contract/SimPLstake.sol\":3078:3121  block.timestamp.sub(_stake.lastClaimedTime) */\n      tag_121\n        /* \"Staking Contract/SimPLstake.sol\":3098:3104  _stake */\n      dup4\n        /* \"Staking Contract/SimPLstake.sol\":3098:3120  _stake.lastClaimedTime */\n      0x02\n      add\n      sload\n        /* \"Staking Contract/SimPLstake.sol\":3078:3093  block.timestamp */\n      timestamp\n        /* \"Staking Contract/SimPLstake.sol\":3078:3097  block.timestamp.sub */\n      tag_122\n      swap1\n        /* \"Staking Contract/SimPLstake.sol\":3078:3121  block.timestamp.sub(_stake.lastClaimedTime) */\n      swap2\n      swap1\n      0xffffffff\n      and\n      jump\t// in\n    tag_121:\n        /* \"Staking Contract/SimPLstake.sol\":3057:3121  uint256 stakedTime = block.timestamp.sub(_stake.lastClaimedTime) */\n      swap1\n      pop\n        /* \"Staking Contract/SimPLstake.sol\":3131:3145  uint256 reward */\n      0x00\n        /* \"Staking Contract/SimPLstake.sol\":3148:3229  stakedTime.mul(REWARD_RATE).mul(DECIMALS).div(MINIMUM_STAKING_TIME).div(DECIMALS) */\n      tag_123\n        /* \"Staking Contract/SimPLstake.sol\":786:788  18 */\n      0x12\n        /* \"Staking Contract/SimPLstake.sol\":3148:3215  stakedTime.mul(REWARD_RATE).mul(DECIMALS).div(MINIMUM_STAKING_TIME) */\n      tag_125\n        /* \"Staking Contract/SimPLstake.sol\":685:692  30 days */\n      0x278d00\n        /* \"Staking Contract/SimPLstake.sol\":3148:3215  stakedTime.mul(REWARD_RATE).mul(DECIMALS).div(MINIMUM_STAKING_TIME) */\n      dup2\n        /* \"Staking Contract/SimPLstake.sol\":786:788  18 */\n      dup4\n        /* \"Staking Contract/SimPLstake.sol\":3148:3175  stakedTime.mul(REWARD_RATE) */\n      tag_126\n        /* \"Staking Contract/SimPLstake.sol\":3057:3121  uint256 stakedTime = block.timestamp.sub(_stake.lastClaimedTime) */\n      dup9\n        /* \"Staking Contract/SimPLstake.sol\":736:738  10 */\n      0x0a\n        /* \"Staking Contract/SimPLstake.sol\":3148:3162  stakedTime.mul */\n      tag_127\n        /* \"Staking Contract/SimPLstake.sol\":3148:3175  stakedTime.mul(REWARD_RATE) */\n      jump\t// in\n    tag_126:\n        /* \"Staking Contract/SimPLstake.sol\":3148:3179  stakedTime.mul(REWARD_RATE).mul */\n      swap1\n      tag_127\n        /* \"Staking Contract/SimPLstake.sol\":3148:3189  stakedTime.mul(REWARD_RATE).mul(DECIMALS) */\n      jump\t// in\n    tag_125:\n        /* \"Staking Contract/SimPLstake.sol\":3148:3193  stakedTime.mul(REWARD_RATE).mul(DECIMALS).div */\n      swap1\n      tag_128\n        /* \"Staking Contract/SimPLstake.sol\":3148:3215  stakedTime.mul(REWARD_RATE).mul(DECIMALS).div(MINIMUM_STAKING_TIME) */\n      jump\t// in\n        /* \"Staking Contract/SimPLstake.sol\":3148:3229  stakedTime.mul(REWARD_RATE).mul(DECIMALS).div(MINIMUM_STAKING_TIME).div(DECIMALS) */\n    tag_123:\n        /* \"Staking Contract/SimPLstake.sol\":3131:3229  uint256 reward = stakedTime.mul(REWARD_RATE).mul(DECIMALS).div(MINIMUM_STAKING_TIME).div(DECIMALS) */\n      swap6\n        /* \"Staking Contract/SimPLstake.sol\":2952:3250  function calculateReward(address _owner, Stake storage _stake) internal view returns (uint256) {... */\n      swap5\n      pop\n      pop\n      pop\n      pop\n      pop\n      jump\t// out\n        /* \"@openzeppelin/contracts/token/ERC20/utils/SafeERC20.sol\":763:968  function safeTransfer(... */\n    tag_68:\n        /* \"@openzeppelin/contracts/token/ERC20/utils/SafeERC20.sol\":902:960  abi.encodeWithSelector(token.transfer.selector, to, value) */\n      0x40\n      dup1\n      mload\n      sub(shl(0xa0, 0x01), 0x01)\n        /* \"#utility.yul\":6041:6073   */\n      dup5\n      and\n        /* \"@openzeppelin/contracts/token/ERC20/utils/SafeERC20.sol\":902:960  abi.encodeWithSelector(token.transfer.selector, to, value) */\n      0x24\n      dup3\n      add\n        /* \"#utility.yul\":6023:6074   */\n      mstore\n        /* \"#utility.yul\":6090:6108   */\n      0x44\n      dup1\n      dup3\n      add\n        /* \"#utility.yul\":6083:6117   */\n      dup5\n      swap1\n      mstore\n        /* \"@openzeppelin/contracts/token/ERC20/utils/SafeERC20.sol\":902:960  abi.encodeWithSelector(token.transfer.selector, to, value) */\n      dup3\n      mload\n      dup1\n      dup4\n      sub\n      swap1\n      swap2\n      add\n      dup2\n      mstore\n        /* \"#utility.yul\":5996:6014   */\n      0x64\n      swap1\n      swap2\n      add\n        /* \"@openzeppelin/contracts/token/ERC20/utils/SafeERC20.sol\":902:960  abi.encodeWithSelector(token.transfer.selector, to, value) */\n      swap1\n      swap2\n      mstore\n      0x20\n      dup2\n      add\n      dup1\n      mload\n      sub(shl(0xe0, 0x01), 0x01)\n      and\n      shl(0xe0, 0xa9059cbb)\n      or\n      swap1\n      mstore\n        /* \"@openzeppelin/contracts/token/ERC20/utils/SafeERC20.sol\":875:961  _callOptionalReturn(token, abi.encodeWithSelector(token.transfer.selector, to, value)) */\n      tag_130\n      swap1\n        /* \"@openzeppelin/contracts/token/ERC20/utils/SafeERC20.sol\":895:900  token */\n      dup5\n      swap1\n        /* \"@openzeppelin/contracts/token/ERC20/utils/SafeERC20.sol\":875:894  _callOptionalReturn */\n      tag_133\n        /* \"@openzeppelin/contracts/token/ERC20/utils/SafeERC20.sol\":875:961  _callOptionalReturn(token, abi.encodeWithSelector(token.transfer.selector, to, value)) */\n      jump\t// in\n    tag_130:\n        /* \"@openzeppelin/contracts/token/ERC20/utils/SafeERC20.sol\":763:968  function safeTransfer(... */\n      pop\n      pop\n      pop\n      jump\t// out\n        /* \"@openzeppelin/contracts/utils/math/SafeMath.sol\":3122:3218  function sub(uint256 a, uint256 b) internal pure returns (uint256) {... */\n    tag_122:\n        /* \"@openzeppelin/contracts/utils/math/SafeMath.sol\":3180:3187  uint256 */\n      0x00\n        /* \"@openzeppelin/contracts/utils/math/SafeMath.sol\":3206:3211  a - b */\n      tag_118\n        /* \"@openzeppelin/contracts/utils/math/SafeMath.sol\":3210:3211  b */\n      dup3\n        /* \"@openzeppelin/contracts/utils/math/SafeMath.sol\":3206:3207  a */\n      dup5\n        /* \"@openzeppelin/contracts/utils/math/SafeMath.sol\":3206:3211  a - b */\n      tag_137\n      jump\t// in\n        /* \"@openzeppelin/contracts/utils/math/SafeMath.sol\":3465:3561  function mul(uint256 a, uint256 b) internal pure returns (uint256) {... */\n    tag_127:\n        /* \"@openzeppelin/contracts/utils/math/SafeMath.sol\":3523:3530  uint256 */\n      0x00\n        /* \"@openzeppelin/contracts/utils/math/SafeMath.sol\":3549:3554  a * b */\n      tag_118\n        /* \"@openzeppelin/contracts/utils/math/SafeMath.sol\":3553:3554  b */\n      dup3\n        /* \"@openzeppelin/contracts/utils/math/SafeMath.sol\":3549:3550  a */\n      dup5\n        /* \"@openzeppelin/contracts/utils/math/SafeMath.sol\":3549:3554  a * b */\n      tag_140\n      jump\t// in\n        /* \"@openzeppelin/contracts/utils/math/SafeMath.sol\":3850:3946  function div(uint256 a, uint256 b) internal pure returns (uint256) {... */\n    tag_128:\n        /* \"@openzeppelin/contracts/utils/math/SafeMath.sol\":3908:3915  uint256 */\n      0x00\n        /* \"@openzeppelin/contracts/utils/math/SafeMath.sol\":3934:3939  a / b */\n      tag_118\n        /* \"@openzeppelin/contracts/utils/math/SafeMath.sol\":3938:3939  b */\n      dup3\n        /* \"@openzeppelin/contracts/utils/math/SafeMath.sol\":3934:3935  a */\n      dup5\n        /* \"@openzeppelin/contracts/utils/math/SafeMath.sol\":3934:3939  a / b */\n      tag_143\n      jump\t// in\n        /* \"@openzeppelin/contracts/token/ERC20/utils/SafeERC20.sol\":3747:4453  function _callOptionalReturn(IERC20 token, bytes memory data) private {... */\n    tag_133:\n        /* \"@openzeppelin/contracts/token/ERC20/utils/SafeERC20.sol\":4166:4189  bytes memory returndata */\n      0x00\n        /* \"@openzeppelin/contracts/token/ERC20/utils/SafeERC20.sol\":4192:4261  address(token).functionCall(data, \"SafeERC20: low-level call failed\") */\n      tag_145\n        /* \"@openzeppelin/contracts/token/ERC20/utils/SafeERC20.sol\":4220:4224  data */\n      dup3\n        /* \"@openzeppelin/contracts/token/ERC20/utils/SafeERC20.sol\":4192:4261  address(token).functionCall(data, \"SafeERC20: low-level call failed\") */\n      mload(0x40)\n      dup1\n      0x40\n      add\n      0x40\n      mstore\n      dup1\n      0x20\n      dup2\n      mstore\n      0x20\n      add\n      0x5361666545524332303a206c6f772d6c6576656c2063616c6c206661696c6564\n      dup2\n      mstore\n      pop\n        /* \"@openzeppelin/contracts/token/ERC20/utils/SafeERC20.sol\":4200:4205  token */\n      dup6\n      sub(shl(0xa0, 0x01), 0x01)\n        /* \"@openzeppelin/contracts/token/ERC20/utils/SafeERC20.sol\":4192:4219  address(token).functionCall */\n      and\n      tag_146\n      swap1\n        /* \"@openzeppelin/contracts/token/ERC20/utils/SafeERC20.sol\":4192:4261  address(token).functionCall(data, \"SafeERC20: low-level call failed\") */\n      swap3\n      swap2\n      swap1\n      0xffffffff\n      and\n      jump\t// in\n    tag_145:\n        /* \"@openzeppelin/contracts/token/ERC20/utils/SafeERC20.sol\":4275:4292  returndata.length */\n      dup1\n      mload\n        /* \"@openzeppelin/contracts/token/ERC20/utils/SafeERC20.sol\":4166:4261  bytes memory returndata = address(token).functionCall(data, \"SafeERC20: low-level call failed\") */\n      swap1\n      swap2\n      pop\n        /* \"@openzeppelin/contracts/token/ERC20/utils/SafeERC20.sol\":4275:4296  returndata.length > 0 */\n      iszero\n        /* \"@openzeppelin/contracts/token/ERC20/utils/SafeERC20.sol\":4271:4447  if (returndata.length > 0) {... */\n      tag_130\n      jumpi\n        /* \"@openzeppelin/contracts/token/ERC20/utils/SafeERC20.sol\":4370:4380  returndata */\n      dup1\n        /* \"@openzeppelin/contracts/token/ERC20/utils/SafeERC20.sol\":4359:4389  abi.decode(returndata, (bool)) */\n      dup1\n      0x20\n      add\n      swap1\n      mload\n      dup2\n      add\n      swap1\n      tag_148\n      swap2\n      swap1\n      tag_149\n      jump\t// in\n    tag_148:\n        /* \"@openzeppelin/contracts/token/ERC20/utils/SafeERC20.sol\":4351:4436  require(abi.decode(returndata, (bool)), \"SafeERC20: ERC20 operation did not succeed\") */\n      tag_130\n      jumpi\n      mload(0x40)\n      shl(0xe5, 0x461bcd)\n      dup2\n      mstore\n        /* \"#utility.yul\":7140:7142   */\n      0x20\n        /* \"@openzeppelin/contracts/token/ERC20/utils/SafeERC20.sol\":4351:4436  require(abi.decode(returndata, (bool)), \"SafeERC20: ERC20 operation did not succeed\") */\n      0x04\n      dup3\n      add\n        /* \"#utility.yul\":7122:7143   */\n      mstore\n        /* \"#utility.yul\":7179:7181   */\n      0x2a\n        /* \"#utility.yul\":7159:7177   */\n      0x24\n      dup3\n      add\n        /* \"#utility.yul\":7152:7182   */\n      mstore\n        /* \"#utility.yul\":7218:7252   */\n      0x5361666545524332303a204552433230206f7065726174696f6e20646964206e\n        /* \"#utility.yul\":7198:7216   */\n      0x44\n      dup3\n      add\n        /* \"#utility.yul\":7191:7253   */\n      mstore\n      shl(0xb2, 0x1bdd081cdd58d8d95959)\n        /* \"#utility.yul\":7269:7287   */\n      0x64\n      dup3\n      add\n        /* \"#utility.yul\":7262:7302   */\n      mstore\n        /* \"#utility.yul\":7319:7338   */\n      0x84\n      add\n        /* \"@openzeppelin/contracts/token/ERC20/utils/SafeERC20.sol\":4351:4436  require(abi.decode(returndata, (bool)), \"SafeERC20: ERC20 operation did not succeed\") */\n      tag_58\n        /* \"#utility.yul\":6938:7344   */\n      jump\n        /* \"@openzeppelin/contracts/utils/Address.sol\":3873:4096  function functionCall(... */\n    tag_146:\n        /* \"@openzeppelin/contracts/utils/Address.sol\":4006:4018  bytes memory */\n      0x60\n        /* \"@openzeppelin/contracts/utils/Address.sol\":4037:4089  functionCallWithValue(target, data, 0, errorMessage) */\n      tag_154\n        /* \"@openzeppelin/contracts/utils/Address.sol\":4059:4065  target */\n      dup5\n        /* \"@openzeppelin/contracts/utils/Address.sol\":4067:4071  data */\n      dup5\n        /* \"@openzeppelin/contracts/utils/Address.sol\":4073:4074  0 */\n      0x00\n        /* \"@openzeppelin/contracts/utils/Address.sol\":4076:4088  errorMessage */\n      dup6\n        /* \"@openzeppelin/contracts/utils/Address.sol\":4037:4058  functionCallWithValue */\n      tag_155\n        /* \"@openzeppelin/contracts/utils/Address.sol\":4037:4089  functionCallWithValue(target, data, 0, errorMessage) */\n      jump\t// in\n    tag_154:\n        /* \"@openzeppelin/contracts/utils/Address.sol\":4030:4089  return functionCallWithValue(target, data, 0, errorMessage) */\n      swap5\n        /* \"@openzeppelin/contracts/utils/Address.sol\":3873:4096  function functionCall(... */\n      swap4\n      pop\n      pop\n      pop\n      pop\n      jump\t// out\n        /* \"@openzeppelin/contracts/utils/Address.sol\":4960:5406  function functionCallWithValue(... */\n    tag_155:\n        /* \"@openzeppelin/contracts/utils/Address.sol\":5125:5137  bytes memory */\n      0x60\n        /* \"@openzeppelin/contracts/utils/Address.sol\":5182:5187  value */\n      dup3\n        /* \"@openzeppelin/contracts/utils/Address.sol\":5157:5178  address(this).balance */\n      selfbalance\n        /* \"@openzeppelin/contracts/utils/Address.sol\":5157:5187  address(this).balance >= value */\n      lt\n      iszero\n        /* \"@openzeppelin/contracts/utils/Address.sol\":5149:5230  require(address(this).balance >= value, \"Address: insufficient balance for call\") */\n      tag_157\n      jumpi\n      mload(0x40)\n      shl(0xe5, 0x461bcd)\n      dup2\n      mstore\n        /* \"#utility.yul\":7551:7553   */\n      0x20\n        /* \"@openzeppelin/contracts/utils/Address.sol\":5149:5230  require(address(this).balance >= value, \"Address: insufficient balance for call\") */\n      0x04\n      dup3\n      add\n        /* \"#utility.yul\":7533:7554   */\n      mstore\n        /* \"#utility.yul\":7590:7592   */\n      0x26\n        /* \"#utility.yul\":7570:7588   */\n      0x24\n      dup3\n      add\n        /* \"#utility.yul\":7563:7593   */\n      mstore\n        /* \"#utility.yul\":7629:7663   */\n      0x416464726573733a20696e73756666696369656e742062616c616e636520666f\n        /* \"#utility.yul\":7609:7627   */\n      0x44\n      dup3\n      add\n        /* \"#utility.yul\":7602:7664   */\n      mstore\n      shl(0xd2, 0x1c8818d85b1b)\n        /* \"#utility.yul\":7680:7698   */\n      0x64\n      dup3\n      add\n        /* \"#utility.yul\":7673:7709   */\n      mstore\n        /* \"#utility.yul\":7726:7745   */\n      0x84\n      add\n        /* \"@openzeppelin/contracts/utils/Address.sol\":5149:5230  require(address(this).balance >= value, \"Address: insufficient balance for call\") */\n      tag_58\n        /* \"#utility.yul\":7349:7751   */\n      jump\n        /* \"@openzeppelin/contracts/utils/Address.sol\":5149:5230  require(address(this).balance >= value, \"Address: insufficient balance for call\") */\n    tag_157:\n        /* \"@openzeppelin/contracts/utils/Address.sol\":5241:5253  bool success */\n      0x00\n        /* \"@openzeppelin/contracts/utils/Address.sol\":5255:5278  bytes memory returndata */\n      dup1\n        /* \"@openzeppelin/contracts/utils/Address.sol\":5282:5288  target */\n      dup7\n      sub(shl(0xa0, 0x01), 0x01)\n        /* \"@openzeppelin/contracts/utils/Address.sol\":5282:5293  target.call */\n      and\n        /* \"@openzeppelin/contracts/utils/Address.sol\":5301:5306  value */\n      dup6\n        /* \"@openzeppelin/contracts/utils/Address.sol\":5308:5312  data */\n      dup8\n        /* \"@openzeppelin/contracts/utils/Address.sol\":5282:5313  target.call{value: value}(data) */\n      mload(0x40)\n      tag_160\n      swap2\n      swap1\n      tag_161\n      jump\t// in\n    tag_160:\n      0x00\n      mload(0x40)\n      dup1\n      dup4\n      sub\n      dup2\n      dup6\n      dup8\n      gas\n      call\n      swap3\n      pop\n      pop\n      pop\n      returndatasize\n      dup1\n      0x00\n      dup2\n      eq\n      tag_164\n      jumpi\n      mload(0x40)\n      swap2\n      pop\n      and(add(returndatasize, 0x3f), not(0x1f))\n      dup3\n      add\n      0x40\n      mstore\n      returndatasize\n      dup3\n      mstore\n      returndatasize\n      0x00\n      0x20\n      dup5\n      add\n      returndatacopy\n      jump(tag_163)\n    tag_164:\n      0x60\n      swap2\n      pop\n    tag_163:\n      pop\n        /* \"@openzeppelin/contracts/utils/Address.sol\":5240:5313  (bool success, bytes memory returndata) = target.call{value: value}(data) */\n      swap2\n      pop\n      swap2\n      pop\n        /* \"@openzeppelin/contracts/utils/Address.sol\":5330:5399  verifyCallResultFromTarget(target, success, returndata, errorMessage) */\n      tag_165\n        /* \"@openzeppelin/contracts/utils/Address.sol\":5357:5363  target */\n      dup8\n        /* \"@openzeppelin/contracts/utils/Address.sol\":5365:5372  success */\n      dup4\n        /* \"@openzeppelin/contracts/utils/Address.sol\":5374:5384  returndata */\n      dup4\n        /* \"@openzeppelin/contracts/utils/Address.sol\":5386:5398  errorMessage */\n      dup8\n        /* \"@openzeppelin/contracts/utils/Address.sol\":5330:5356  verifyCallResultFromTarget */\n      tag_166\n        /* \"@openzeppelin/contracts/utils/Address.sol\":5330:5399  verifyCallResultFromTarget(target, success, returndata, errorMessage) */\n      jump\t// in\n    tag_165:\n        /* \"@openzeppelin/contracts/utils/Address.sol\":5323:5399  return verifyCallResultFromTarget(target, success, returndata, errorMessage) */\n      swap8\n        /* \"@openzeppelin/contracts/utils/Address.sol\":4960:5406  function functionCallWithValue(... */\n      swap7\n      pop\n      pop\n      pop\n      pop\n      pop\n      pop\n      pop\n      jump\t// out\n        /* \"@openzeppelin/contracts/utils/Address.sol\":7466:8094  function verifyCallResultFromTarget(... */\n    tag_166:\n        /* \"@openzeppelin/contracts/utils/Address.sol\":7646:7658  bytes memory */\n      0x60\n        /* \"@openzeppelin/contracts/utils/Address.sol\":7674:7681  success */\n      dup4\n        /* \"@openzeppelin/contracts/utils/Address.sol\":7670:8088  if (success) {... */\n      iszero\n      tag_168\n      jumpi\n        /* \"@openzeppelin/contracts/utils/Address.sol\":7701:7711  returndata */\n      dup3\n        /* \"@openzeppelin/contracts/utils/Address.sol\":7701:7718  returndata.length */\n      mload\n        /* \"@openzeppelin/contracts/utils/Address.sol\":7722:7723  0 */\n      0x00\n        /* \"@openzeppelin/contracts/utils/Address.sol\":7701:7723  returndata.length == 0 */\n      sub\n        /* \"@openzeppelin/contracts/utils/Address.sol\":7697:7983  if (returndata.length == 0) {... */\n      tag_172\n      jumpi\n      sub(shl(0xa0, 0x01), 0x01)\n        /* \"@openzeppelin/contracts/utils/Address.sol\":1465:1484  account.code.length */\n      dup6\n      and\n      extcodesize\n        /* \"@openzeppelin/contracts/utils/Address.sol\":7908:7968  require(isContract(target), \"Address: call to non-contract\") */\n      tag_172\n      jumpi\n      mload(0x40)\n      shl(0xe5, 0x461bcd)\n      dup2\n      mstore\n        /* \"#utility.yul\":8505:8507   */\n      0x20\n        /* \"@openzeppelin/contracts/utils/Address.sol\":7908:7968  require(isContract(target), \"Address: call to non-contract\") */\n      0x04\n      dup3\n      add\n        /* \"#utility.yul\":8487:8508   */\n      mstore\n        /* \"#utility.yul\":8544:8546   */\n      0x1d\n        /* \"#utility.yul\":8524:8542   */\n      0x24\n      dup3\n      add\n        /* \"#utility.yul\":8517:8547   */\n      mstore\n        /* \"#utility.yul\":8583:8614   */\n      0x416464726573733a2063616c6c20746f206e6f6e2d636f6e7472616374000000\n        /* \"#utility.yul\":8563:8581   */\n      0x44\n      dup3\n      add\n        /* \"#utility.yul\":8556:8615   */\n      mstore\n        /* \"#utility.yul\":8632:8650   */\n      0x64\n      add\n        /* \"@openzeppelin/contracts/utils/Address.sol\":7908:7968  require(isContract(target), \"Address: call to non-contract\") */\n      tag_58\n        /* \"#utility.yul\":8303:8656   */\n      jump\n        /* \"@openzeppelin/contracts/utils/Address.sol\":7908:7968  require(isContract(target), \"Address: call to non-contract\") */\n    tag_172:\n      pop\n        /* \"@openzeppelin/contracts/utils/Address.sol\":8003:8013  returndata */\n      dup2\n        /* \"@openzeppelin/contracts/utils/Address.sol\":7996:8013  return returndata */\n      jump(tag_154)\n        /* \"@openzeppelin/contracts/utils/Address.sol\":7670:8088  if (success) {... */\n    tag_168:\n        /* \"@openzeppelin/contracts/utils/Address.sol\":8044:8077  _revert(returndata, errorMessage) */\n      tag_154\n        /* \"@openzeppelin/contracts/utils/Address.sol\":8052:8062  returndata */\n      dup4\n        /* \"@openzeppelin/contracts/utils/Address.sol\":8064:8076  errorMessage */\n      dup4\n        /* \"@openzeppelin/contracts/utils/Address.sol\":8775:8792  returndata.length */\n      dup2\n      mload\n        /* \"@openzeppelin/contracts/utils/Address.sol\":8775:8796  returndata.length > 0 */\n      iszero\n        /* \"@openzeppelin/contracts/utils/Address.sol\":8771:9150  if (returndata.length > 0) {... */\n      tag_180\n      jumpi\n        /* \"@openzeppelin/contracts/utils/Address.sol\":9003:9013  returndata */\n      dup2\n        /* \"@openzeppelin/contracts/utils/Address.sol\":8997:9014  mload(returndata) */\n      mload\n        /* \"@openzeppelin/contracts/utils/Address.sol\":9059:9074  returndata_size */\n      dup1\n        /* \"@openzeppelin/contracts/utils/Address.sol\":9046:9056  returndata */\n      dup4\n        /* \"@openzeppelin/contracts/utils/Address.sol\":9042:9044  32 */\n      0x20\n        /* \"@openzeppelin/contracts/utils/Address.sol\":9038:9057  add(32, returndata) */\n      add\n        /* \"@openzeppelin/contracts/utils/Address.sol\":9031:9075  revert(add(32, returndata), returndata_size) */\n      revert\n        /* \"@openzeppelin/contracts/utils/Address.sol\":8771:9150  if (returndata.length > 0) {... */\n    tag_180:\n        /* \"@openzeppelin/contracts/utils/Address.sol\":9126:9138  errorMessage */\n      dup1\n        /* \"@openzeppelin/contracts/utils/Address.sol\":9119:9139  revert(errorMessage) */\n      mload(0x40)\n      shl(0xe5, 0x461bcd)\n      dup2\n      mstore\n      0x04\n      add\n      tag_58\n      swap2\n      swap1\n      tag_183\n      jump\t// in\n        /* \"#utility.yul\":196:327   */\n    tag_184:\n      sub(shl(0xa0, 0x01), 0x01)\n        /* \"#utility.yul\":271:302   */\n      dup2\n      and\n        /* \"#utility.yul\":261:303   */\n      dup2\n      eq\n        /* \"#utility.yul\":251:321   */\n      tag_103\n      jumpi\n        /* \"#utility.yul\":317:318   */\n      0x00\n        /* \"#utility.yul\":314:315   */\n      dup1\n        /* \"#utility.yul\":307:319   */\n      revert\n        /* \"#utility.yul\":332:1268   */\n    tag_20:\n        /* \"#utility.yul\":429:435   */\n      0x00\n        /* \"#utility.yul\":437:443   */\n      dup1\n        /* \"#utility.yul\":445:451   */\n      0x00\n        /* \"#utility.yul\":453:459   */\n      dup1\n        /* \"#utility.yul\":461:467   */\n      0x00\n        /* \"#utility.yul\":514:517   */\n      0x80\n        /* \"#utility.yul\":502:511   */\n      dup7\n        /* \"#utility.yul\":493:500   */\n      dup9\n        /* \"#utility.yul\":489:512   */\n      sub\n        /* \"#utility.yul\":485:518   */\n      slt\n        /* \"#utility.yul\":482:535   */\n      iszero\n      tag_192\n      jumpi\n        /* \"#utility.yul\":531:532   */\n      0x00\n        /* \"#utility.yul\":528:529   */\n      dup1\n        /* \"#utility.yul\":521:533   */\n      revert\n        /* \"#utility.yul\":482:535   */\n    tag_192:\n        /* \"#utility.yul\":570:579   */\n      dup6\n        /* \"#utility.yul\":557:580   */\n      calldataload\n        /* \"#utility.yul\":589:620   */\n      tag_193\n        /* \"#utility.yul\":614:619   */\n      dup2\n        /* \"#utility.yul\":589:620   */\n      tag_184\n      jump\t// in\n    tag_193:\n        /* \"#utility.yul\":639:644   */\n      swap5\n      pop\n        /* \"#utility.yul\":696:698   */\n      0x20\n        /* \"#utility.yul\":681:699   */\n      dup7\n      add\n        /* \"#utility.yul\":668:700   */\n      calldataload\n        /* \"#utility.yul\":709:742   */\n      tag_194\n        /* \"#utility.yul\":668:700   */\n      dup2\n        /* \"#utility.yul\":709:742   */\n      tag_184\n      jump\t// in\n    tag_194:\n        /* \"#utility.yul\":761:768   */\n      swap4\n      pop\n        /* \"#utility.yul\":815:817   */\n      0x40\n        /* \"#utility.yul\":800:818   */\n      dup7\n      add\n        /* \"#utility.yul\":787:819   */\n      calldataload\n      swap3\n      pop\n        /* \"#utility.yul\":870:872   */\n      0x60\n        /* \"#utility.yul\":855:873   */\n      dup7\n      add\n        /* \"#utility.yul\":842:874   */\n      calldataload\n        /* \"#utility.yul\":893:911   */\n      0xffffffffffffffff\n        /* \"#utility.yul\":923:937   */\n      dup1\n      dup3\n      gt\n        /* \"#utility.yul\":920:954   */\n      iszero\n      tag_195\n      jumpi\n        /* \"#utility.yul\":950:951   */\n      0x00\n        /* \"#utility.yul\":947:948   */\n      dup1\n        /* \"#utility.yul\":940:952   */\n      revert\n        /* \"#utility.yul\":920:954   */\n    tag_195:\n        /* \"#utility.yul\":988:994   */\n      dup2\n        /* \"#utility.yul\":977:986   */\n      dup9\n        /* \"#utility.yul\":973:995   */\n      add\n        /* \"#utility.yul\":963:995   */\n      swap2\n      pop\n        /* \"#utility.yul\":1033:1040   */\n      dup9\n        /* \"#utility.yul\":1026:1030   */\n      0x1f\n        /* \"#utility.yul\":1022:1024   */\n      dup4\n        /* \"#utility.yul\":1018:1031   */\n      add\n        /* \"#utility.yul\":1014:1041   */\n      slt\n        /* \"#utility.yul\":1004:1059   */\n      tag_196\n      jumpi\n        /* \"#utility.yul\":1055:1056   */\n      0x00\n        /* \"#utility.yul\":1052:1053   */\n      dup1\n        /* \"#utility.yul\":1045:1057   */\n      revert\n        /* \"#utility.yul\":1004:1059   */\n    tag_196:\n        /* \"#utility.yul\":1095:1097   */\n      dup2\n        /* \"#utility.yul\":1082:1098   */\n      calldataload\n        /* \"#utility.yul\":1121:1123   */\n      dup2\n        /* \"#utility.yul\":1113:1119   */\n      dup2\n        /* \"#utility.yul\":1110:1124   */\n      gt\n        /* \"#utility.yul\":1107:1141   */\n      iszero\n      tag_197\n      jumpi\n        /* \"#utility.yul\":1137:1138   */\n      0x00\n        /* \"#utility.yul\":1134:1135   */\n      dup1\n        /* \"#utility.yul\":1127:1139   */\n      revert\n        /* \"#utility.yul\":1107:1141   */\n    tag_197:\n        /* \"#utility.yul\":1182:1189   */\n      dup10\n        /* \"#utility.yul\":1177:1179   */\n      0x20\n        /* \"#utility.yul\":1168:1174   */\n      dup3\n        /* \"#utility.yul\":1164:1166   */\n      dup6\n        /* \"#utility.yul\":1160:1175   */\n      add\n        /* \"#utility.yul\":1156:1180   */\n      add\n        /* \"#utility.yul\":1153:1190   */\n      gt\n        /* \"#utility.yul\":1150:1207   */\n      iszero\n      tag_198\n      jumpi\n        /* \"#utility.yul\":1203:1204   */\n      0x00\n        /* \"#utility.yul\":1200:1201   */\n      dup1\n        /* \"#utility.yul\":1193:1205   */\n      revert\n        /* \"#utility.yul\":1150:1207   */\n    tag_198:\n        /* \"#utility.yul\":332:1268   */\n      swap7\n      swap10\n      swap6\n      swap9\n      pop\n      swap4\n      swap7\n      pop\n        /* \"#utility.yul\":1234:1236   */\n      0x20\n        /* \"#utility.yul\":1226:1237   */\n      add\n      swap5\n        /* \"#utility.yul\":1256:1262   */\n      swap4\n        /* \"#utility.yul\":332:1268   */\n      swap3\n      pop\n      pop\n      pop\n      jump\t// out\n        /* \"#utility.yul\":1480:1727   */\n    tag_26:\n        /* \"#utility.yul\":1539:1545   */\n      0x00\n        /* \"#utility.yul\":1592:1594   */\n      0x20\n        /* \"#utility.yul\":1580:1589   */\n      dup3\n        /* \"#utility.yul\":1571:1578   */\n      dup5\n        /* \"#utility.yul\":1567:1590   */\n      sub\n        /* \"#utility.yul\":1563:1595   */\n      slt\n        /* \"#utility.yul\":1560:1612   */\n      iszero\n      tag_201\n      jumpi\n        /* \"#utility.yul\":1608:1609   */\n      0x00\n        /* \"#utility.yul\":1605:1606   */\n      dup1\n        /* \"#utility.yul\":1598:1610   */\n      revert\n        /* \"#utility.yul\":1560:1612   */\n    tag_201:\n        /* \"#utility.yul\":1647:1656   */\n      dup2\n        /* \"#utility.yul\":1634:1657   */\n      calldataload\n        /* \"#utility.yul\":1666:1697   */\n      tag_202\n        /* \"#utility.yul\":1691:1696   */\n      dup2\n        /* \"#utility.yul\":1666:1697   */\n      tag_184\n      jump\t// in\n    tag_202:\n        /* \"#utility.yul\":1716:1721   */\n      swap4\n        /* \"#utility.yul\":1480:1727   */\n      swap3\n      pop\n      pop\n      pop\n      jump\t// out\n        /* \"#utility.yul\":2361:2541   */\n    tag_44:\n        /* \"#utility.yul\":2420:2426   */\n      0x00\n        /* \"#utility.yul\":2473:2475   */\n      0x20\n        /* \"#utility.yul\":2461:2470   */\n      dup3\n        /* \"#utility.yul\":2452:2459   */\n      dup5\n        /* \"#utility.yul\":2448:2471   */\n      sub\n        /* \"#utility.yul\":2444:2476   */\n      slt\n        /* \"#utility.yul\":2441:2493   */\n      iszero\n      tag_206\n      jumpi\n        /* \"#utility.yul\":2489:2490   */\n      0x00\n        /* \"#utility.yul\":2486:2487   */\n      dup1\n        /* \"#utility.yul\":2479:2491   */\n      revert\n        /* \"#utility.yul\":2441:2493   */\n    tag_206:\n      pop\n        /* \"#utility.yul\":2512:2535   */\n      calldataload\n      swap2\n        /* \"#utility.yul\":2361:2541   */\n      swap1\n      pop\n      jump\t// out\n        /* \"#utility.yul\":3904:4155   */\n    tag_84:\n        /* \"#utility.yul\":3974:3980   */\n      0x00\n        /* \"#utility.yul\":4027:4029   */\n      0x20\n        /* \"#utility.yul\":4015:4024   */\n      dup3\n        /* \"#utility.yul\":4006:4013   */\n      dup5\n        /* \"#utility.yul\":4002:4025   */\n      sub\n        /* \"#utility.yul\":3998:4030   */\n      slt\n        /* \"#utility.yul\":3995:4047   */\n      iszero\n      tag_212\n      jumpi\n        /* \"#utility.yul\":4043:4044   */\n      0x00\n        /* \"#utility.yul\":4040:4041   */\n      dup1\n        /* \"#utility.yul\":4033:4045   */\n      revert\n        /* \"#utility.yul\":3995:4047   */\n    tag_212:\n        /* \"#utility.yul\":4075:4084   */\n      dup2\n        /* \"#utility.yul\":4069:4085   */\n      mload\n        /* \"#utility.yul\":4094:4125   */\n      tag_202\n        /* \"#utility.yul\":4119:4124   */\n      dup2\n        /* \"#utility.yul\":4094:4125   */\n      tag_184\n      jump\t// in\n        /* \"#utility.yul\":5587:5714   */\n    tag_185:\n        /* \"#utility.yul\":5648:5658   */\n      0x4e487b71\n        /* \"#utility.yul\":5643:5646   */\n      0xe0\n        /* \"#utility.yul\":5639:5659   */\n      shl\n        /* \"#utility.yul\":5636:5637   */\n      0x00\n        /* \"#utility.yul\":5629:5660   */\n      mstore\n        /* \"#utility.yul\":5679:5683   */\n      0x11\n        /* \"#utility.yul\":5676:5677   */\n      0x04\n        /* \"#utility.yul\":5669:5684   */\n      mstore\n        /* \"#utility.yul\":5703:5707   */\n      0x24\n        /* \"#utility.yul\":5700:5701   */\n      0x00\n        /* \"#utility.yul\":5693:5708   */\n      revert\n        /* \"#utility.yul\":5719:5844   */\n    tag_119:\n        /* \"#utility.yul\":5784:5793   */\n      dup1\n      dup3\n      add\n        /* \"#utility.yul\":5805:5815   */\n      dup1\n      dup3\n      gt\n        /* \"#utility.yul\":5802:5838   */\n      iszero\n      tag_117\n      jumpi\n        /* \"#utility.yul\":5818:5836   */\n      tag_117\n      tag_185\n      jump\t// in\n        /* \"#utility.yul\":6128:6256   */\n    tag_137:\n        /* \"#utility.yul\":6195:6204   */\n      dup2\n      dup2\n      sub\n        /* \"#utility.yul\":6216:6227   */\n      dup2\n      dup2\n      gt\n        /* \"#utility.yul\":6213:6250   */\n      iszero\n      tag_117\n      jumpi\n        /* \"#utility.yul\":6230:6248   */\n      tag_117\n      tag_185\n      jump\t// in\n        /* \"#utility.yul\":6261:6429   */\n    tag_140:\n        /* \"#utility.yul\":6334:6343   */\n      dup1\n      dup3\n      mul\n        /* \"#utility.yul\":6365:6374   */\n      dup2\n      iszero\n        /* \"#utility.yul\":6382:6397   */\n      dup3\n      dup3\n      div\n        /* \"#utility.yul\":6376:6398   */\n      dup5\n      eq\n        /* \"#utility.yul\":6362:6399   */\n      or\n        /* \"#utility.yul\":6352:6423   */\n      tag_117\n      jumpi\n        /* \"#utility.yul\":6403:6421   */\n      tag_117\n      tag_185\n      jump\t// in\n        /* \"#utility.yul\":6434:6651   */\n    tag_143:\n        /* \"#utility.yul\":6474:6475   */\n      0x00\n        /* \"#utility.yul\":6500:6501   */\n      dup3\n        /* \"#utility.yul\":6490:6622   */\n      tag_230\n      jumpi\n        /* \"#utility.yul\":6544:6554   */\n      0x4e487b71\n        /* \"#utility.yul\":6539:6542   */\n      0xe0\n        /* \"#utility.yul\":6535:6555   */\n      shl\n        /* \"#utility.yul\":6532:6533   */\n      0x00\n        /* \"#utility.yul\":6525:6556   */\n      mstore\n        /* \"#utility.yul\":6579:6583   */\n      0x12\n        /* \"#utility.yul\":6576:6577   */\n      0x04\n        /* \"#utility.yul\":6569:6584   */\n      mstore\n        /* \"#utility.yul\":6607:6611   */\n      0x24\n        /* \"#utility.yul\":6604:6605   */\n      0x00\n        /* \"#utility.yul\":6597:6612   */\n      revert\n        /* \"#utility.yul\":6490:6622   */\n    tag_230:\n      pop\n        /* \"#utility.yul\":6636:6645   */\n      div\n      swap1\n        /* \"#utility.yul\":6434:6651   */\n      jump\t// out\n        /* \"#utility.yul\":6656:6933   */\n    tag_149:\n        /* \"#utility.yul\":6723:6729   */\n      0x00\n        /* \"#utility.yul\":6776:6778   */\n      0x20\n        /* \"#utility.yul\":6764:6773   */\n      dup3\n        /* \"#utility.yul\":6755:6762   */\n      dup5\n        /* \"#utility.yul\":6751:6774   */\n      sub\n        /* \"#utility.yul\":6747:6779   */\n      slt\n        /* \"#utility.yul\":6744:6796   */\n      iszero\n      tag_232\n      jumpi\n        /* \"#utility.yul\":6792:6793   */\n      0x00\n        /* \"#utility.yul\":6789:6790   */\n      dup1\n        /* \"#utility.yul\":6782:6794   */\n      revert\n        /* \"#utility.yul\":6744:6796   */\n    tag_232:\n        /* \"#utility.yul\":6824:6833   */\n      dup2\n        /* \"#utility.yul\":6818:6834   */\n      mload\n        /* \"#utility.yul\":6877:6882   */\n      dup1\n        /* \"#utility.yul\":6870:6883   */\n      iszero\n        /* \"#utility.yul\":6863:6884   */\n      iszero\n        /* \"#utility.yul\":6856:6861   */\n      dup2\n        /* \"#utility.yul\":6853:6885   */\n      eq\n        /* \"#utility.yul\":6843:6903   */\n      tag_202\n      jumpi\n        /* \"#utility.yul\":6899:6900   */\n      0x00\n        /* \"#utility.yul\":6896:6897   */\n      dup1\n        /* \"#utility.yul\":6889:6901   */\n      revert\n        /* \"#utility.yul\":7756:8006   */\n    tag_186:\n        /* \"#utility.yul\":7841:7842   */\n      0x00\n        /* \"#utility.yul\":7851:7964   */\n    tag_237:\n        /* \"#utility.yul\":7865:7871   */\n      dup4\n        /* \"#utility.yul\":7862:7863   */\n      dup2\n        /* \"#utility.yul\":7859:7872   */\n      lt\n        /* \"#utility.yul\":7851:7964   */\n      iszero\n      tag_239\n      jumpi\n        /* \"#utility.yul\":7941:7952   */\n      dup2\n      dup2\n      add\n        /* \"#utility.yul\":7935:7953   */\n      mload\n        /* \"#utility.yul\":7922:7933   */\n      dup4\n      dup3\n      add\n        /* \"#utility.yul\":7915:7954   */\n      mstore\n        /* \"#utility.yul\":7887:7889   */\n      0x20\n        /* \"#utility.yul\":7880:7890   */\n      add\n        /* \"#utility.yul\":7851:7964   */\n      jump(tag_237)\n    tag_239:\n      pop\n      pop\n        /* \"#utility.yul\":7998:7999   */\n      0x00\n        /* \"#utility.yul\":7980:7996   */\n      swap2\n      add\n        /* \"#utility.yul\":7973:8000   */\n      mstore\n        /* \"#utility.yul\":7756:8006   */\n      jump\t// out\n        /* \"#utility.yul\":8011:8298   */\n    tag_161:\n        /* \"#utility.yul\":8140:8143   */\n      0x00\n        /* \"#utility.yul\":8178:8184   */\n      dup3\n        /* \"#utility.yul\":8172:8185   */\n      mload\n        /* \"#utility.yul\":8194:8260   */\n      tag_241\n        /* \"#utility.yul\":8253:8259   */\n      dup2\n        /* \"#utility.yul\":8248:8251   */\n      dup5\n        /* \"#utility.yul\":8241:8245   */\n      0x20\n        /* \"#utility.yul\":8233:8239   */\n      dup8\n        /* \"#utility.yul\":8229:8246   */\n      add\n        /* \"#utility.yul\":8194:8260   */\n      tag_186\n      jump\t// in\n    tag_241:\n        /* \"#utility.yul\":8276:8292   */\n      swap2\n      swap1\n      swap2\n      add\n      swap3\n        /* \"#utility.yul\":8011:8298   */\n      swap2\n      pop\n      pop\n      jump\t// out\n        /* \"#utility.yul\":8661:9057   */\n    tag_183:\n        /* \"#utility.yul\":8810:8812   */\n      0x20\n        /* \"#utility.yul\":8799:8808   */\n      dup2\n        /* \"#utility.yul\":8792:8813   */\n      mstore\n        /* \"#utility.yul\":8773:8777   */\n      0x00\n        /* \"#utility.yul\":8842:8848   */\n      dup3\n        /* \"#utility.yul\":8836:8849   */\n      mload\n        /* \"#utility.yul\":8885:8891   */\n      dup1\n        /* \"#utility.yul\":8880:8882   */\n      0x20\n        /* \"#utility.yul\":8869:8878   */\n      dup5\n        /* \"#utility.yul\":8865:8883   */\n      add\n        /* \"#utility.yul\":8858:8892   */\n      mstore\n        /* \"#utility.yul\":8901:8980   */\n      tag_244\n        /* \"#utility.yul\":8973:8979   */\n      dup2\n        /* \"#utility.yul\":8968:8970   */\n      0x40\n        /* \"#utility.yul\":8957:8966   */\n      dup6\n        /* \"#utility.yul\":8953:8971   */\n      add\n        /* \"#utility.yul\":8948:8950   */\n      0x20\n        /* \"#utility.yul\":8940:8946   */\n      dup8\n        /* \"#utility.yul\":8936:8951   */\n      add\n        /* \"#utility.yul\":8901:8980   */\n      tag_186\n      jump\t// in\n    tag_244:\n        /* \"#utility.yul\":9041:9043   */\n      0x1f\n        /* \"#utility.yul\":9020:9035   */\n      add\n      not(0x1f)\n        /* \"#utility.yul\":9016:9045   */\n      and\n        /* \"#utility.yul\":9001:9046   */\n      swap2\n      swap1\n      swap2\n      add\n        /* \"#utility.yul\":9048:9050   */\n      0x40\n        /* \"#utility.yul\":8997:9051   */\n      add\n      swap3\n        /* \"#utility.yul\":8661:9057   */\n      swap2\n      pop\n      pop\n      jump\t// out\n\n    auxdata: 0xa26469706673582212207892803333c5043b36785b692ed35aeebbea49e5ca2dab9ae2631db14cf3f0c964736f6c63430008120033\n}\n",
				"bytecode": {
					"linkReferences": {},
					"object": "608060405234801561001057600080fd5b50604051610e12380380610e1283398101604081905261002f91610081565b6001600081905580546001600160a01b039384166001600160a01b031991821617909155600280549290931691161790556100b4565b80516001600160a01b038116811461007c57600080fd5b919050565b6000806040838503121561009457600080fd5b61009d83610065565b91506100ab60208401610065565b90509250929050565b610d4f806100c36000396000f3fe608060405234801561001057600080fd5b506004361061009e5760003560e01c806347ccca021161006657806347ccca02146101665780635997bb3714610191578063a694fc3a14610199578063b88a802f146101ac578063f7c618c1146101b457600080fd5b806302657ad0146100a3578063150b7a02146100c057806316934fc4146100f85780632def6620146101545780632e0f26251461015e575b600080fd5b6100ad62278d0081565b6040519081526020015b60405180910390f35b6100df6100ce366004610b16565b630a85bd0160e11b95945050505050565b6040516001600160e01b031990911681526020016100b7565b610132610106366004610bb5565b600360208190526000918252604090912080546001820154600283015492909301549092919060ff1684565b60408051948552602085019390935291830152151560608201526080016100b7565b61015c6101c7565b005b6100ad601281565b600154610179906001600160a01b031681565b6040516001600160a01b0390911681526020016100b7565b6100ad600a81565b61015c6101a7366004610bd9565b6103a7565b61015c6106a2565b600254610179906001600160a01b031681565b6101cf61076a565b3360009081526003602081905260409091209081015460ff166102325760405162461bcd60e51b815260206004820152601660248201527513919514dd185ada5b99ce881b9bdd081cdd185ad95960521b60448201526064015b60405180910390fd5b60018101546102449062278d006107c3565b42101561029f5760405162461bcd60e51b8152602060048201526024808201527f4e46545374616b696e673a207374616b696e672074696d65206e6f742072656160448201526318da195960e21b6064820152608401610229565b60006102ab33836107d8565b6002549091506102c5906001600160a01b03163383610824565b6001548254604051632142170760e11b815230600482015233602482015260448101919091526001600160a01b03909116906342842e0e90606401600060405180830381600087803b15801561031a57600080fd5b505af115801561032e573d6000803e3d6000fd5b505033600081815260036020818152604080842084815560018101859055600281019490945592909101805460ff19169055865491518681529194509192507f7fc4727e062e336010f2c282598ef5f14facb3de68cf8195c2f23e1454b2b74e91015b60405180910390a350506103a56001600055565b565b6103af61076a565b6001546040516331a9108f60e11b81526004810183905233916001600160a01b031690636352211e90602401602060405180830381865afa1580156103f8573d6000803e3d6000fd5b505050506040513d601f19601f8201168201806040525081019061041c9190610bf2565b6001600160a01b0316146104725760405162461bcd60e51b815260206004820152601e60248201527f4e46545374616b696e673a206e6f74206f776e6572206f6620746f6b656e00006044820152606401610229565b336000908152600360208190526040909120015460ff16156104d65760405162461bcd60e51b815260206004820152601a60248201527f4e46545374616b696e673a20616c7265616479207374616b65640000000000006044820152606401610229565b60015460405163020604bf60e21b81526004810183905230916001600160a01b03169063081812fc90602401602060405180830381865afa15801561051f573d6000803e3d6000fd5b505050506040513d601f19601f820116820180604052508101906105439190610bf2565b6001600160a01b0316146105995760405162461bcd60e51b815260206004820152601860248201527f4e46545374616b696e673a206e6f7420617070726f76656400000000000000006044820152606401610229565b600154604051632142170760e11b8152336004820152306024820152604481018390526001600160a01b03909116906342842e0e90606401600060405180830381600087803b1580156105eb57600080fd5b505af11580156105ff573d6000803e3d6000fd5b5050604080516080810182528481524260208083018281528385018381526001606086018181523360008181526003808852908a90209851895594519288019290925591516002870155905194909101805460ff19169415159490941790935592519081528594509092507f1449c6dd7851abc30abf37f57715f492010519147cc2652fbc38202c18a6ee90910160405180910390a361069f6001600055565b50565b6106aa61076a565b3360009081526003602081905260409091209081015460ff166107085760405162461bcd60e51b815260206004820152601660248201527513919514dd185ada5b99ce881b9bdd081cdd185ad95960521b6044820152606401610229565b600061071433836107d8565b4260028085019190915554909150610736906001600160a01b03163383610824565b815460405182815233907ff01da32686223933d8a18a391060918c7f11a3648639edd87ae013e2e273174390602001610391565b6002600054036107bc5760405162461bcd60e51b815260206004820152601f60248201527f5265656e7472616e637947756172643a207265656e7472616e742063616c6c006044820152606401610229565b6002600055565b60006107cf8284610c25565b90505b92915050565b6000806107f283600201544261087b90919063ffffffff16565b9050600061081b601261081562278d00818361080f88600a610887565b90610887565b90610893565b95945050505050565b604080516001600160a01b038416602482015260448082018490528251808303909101815260649091019091526020810180516001600160e01b031663a9059cbb60e01b17905261087690849061089f565b505050565b60006107cf8284610c38565b60006107cf8284610c4b565b60006107cf8284610c62565b60006108f4826040518060400160405280602081526020017f5361666545524332303a206c6f772d6c6576656c2063616c6c206661696c6564815250856001600160a01b03166109719092919063ffffffff16565b80519091501561087657808060200190518101906109129190610c84565b6108765760405162461bcd60e51b815260206004820152602a60248201527f5361666545524332303a204552433230206f7065726174696f6e20646964206e6044820152691bdd081cdd58d8d9595960b21b6064820152608401610229565b60606109808484600085610988565b949350505050565b6060824710156109e95760405162461bcd60e51b815260206004820152602660248201527f416464726573733a20696e73756666696369656e742062616c616e636520666f6044820152651c8818d85b1b60d21b6064820152608401610229565b600080866001600160a01b03168587604051610a059190610cca565b60006040518083038185875af1925050503d8060008114610a42576040519150601f19603f3d011682016040523d82523d6000602084013e610a47565b606091505b5091509150610a5887838387610a63565b979650505050505050565b60608315610ad2578251600003610acb576001600160a01b0385163b610acb5760405162461bcd60e51b815260206004820152601d60248201527f416464726573733a2063616c6c20746f206e6f6e2d636f6e74726163740000006044820152606401610229565b5081610980565b6109808383815115610ae75781518083602001fd5b8060405162461bcd60e51b81526004016102299190610ce6565b6001600160a01b038116811461069f57600080fd5b600080600080600060808688031215610b2e57600080fd5b8535610b3981610b01565b94506020860135610b4981610b01565b935060408601359250606086013567ffffffffffffffff80821115610b6d57600080fd5b818801915088601f830112610b8157600080fd5b813581811115610b9057600080fd5b896020828501011115610ba257600080fd5b9699959850939650602001949392505050565b600060208284031215610bc757600080fd5b8135610bd281610b01565b9392505050565b600060208284031215610beb57600080fd5b5035919050565b600060208284031215610c0457600080fd5b8151610bd281610b01565b634e487b7160e01b600052601160045260246000fd5b808201808211156107d2576107d2610c0f565b818103818111156107d2576107d2610c0f565b80820281158282048414176107d2576107d2610c0f565b600082610c7f57634e487b7160e01b600052601260045260246000fd5b500490565b600060208284031215610c9657600080fd5b81518015158114610bd257600080fd5b60005b83811015610cc1578181015183820152602001610ca9565b50506000910152565b60008251610cdc818460208701610ca6565b9190910192915050565b6020815260008251806020840152610d05816040850160208701610ca6565b601f01601f1916919091016040019291505056fea26469706673582212207892803333c5043b36785b692ed35aeebbea49e5ca2dab9ae2631db14cf3f0c964736f6c63430008120033",
					"opcodes": "PUSH1 0x80 PUSH1 0x40 MSTORE CALLVALUE DUP1 ISZERO PUSH2 0x10 JUMPI PUSH1 0x0 DUP1 REVERT JUMPDEST POP PUSH1 0x40 MLOAD PUSH2 0xE12 CODESIZE SUB DUP1 PUSH2 0xE12 DUP4 CODECOPY DUP2 ADD PUSH1 0x40 DUP2 SWAP1 MSTORE PUSH2 0x2F SWAP2 PUSH2 0x81 JUMP JUMPDEST PUSH1 0x1 PUSH1 0x0 DUP2 SWAP1 SSTORE DUP1 SLOAD PUSH1 0x1 PUSH1 0x1 PUSH1 0xA0 SHL SUB SWAP4 DUP5 AND PUSH1 0x1 PUSH1 0x1 PUSH1 0xA0 SHL SUB NOT SWAP2 DUP3 AND OR SWAP1 SWAP2 SSTORE PUSH1 0x2 DUP1 SLOAD SWAP3 SWAP1 SWAP4 AND SWAP2 AND OR SWAP1 SSTORE PUSH2 0xB4 JUMP JUMPDEST DUP1 MLOAD PUSH1 0x1 PUSH1 0x1 PUSH1 0xA0 SHL SUB DUP2 AND DUP2 EQ PUSH2 0x7C JUMPI PUSH1 0x0 DUP1 REVERT JUMPDEST SWAP2 SWAP1 POP JUMP JUMPDEST PUSH1 0x0 DUP1 PUSH1 0x40 DUP4 DUP6 SUB SLT ISZERO PUSH2 0x94 JUMPI PUSH1 0x0 DUP1 REVERT JUMPDEST PUSH2 0x9D DUP4 PUSH2 0x65 JUMP JUMPDEST SWAP2 POP PUSH2 0xAB PUSH1 0x20 DUP5 ADD PUSH2 0x65 JUMP JUMPDEST SWAP1 POP SWAP3 POP SWAP3 SWAP1 POP JUMP JUMPDEST PUSH2 0xD4F DUP1 PUSH2 0xC3 PUSH1 0x0 CODECOPY PUSH1 0x0 RETURN INVALID PUSH1 0x80 PUSH1 0x40 MSTORE CALLVALUE DUP1 ISZERO PUSH2 0x10 JUMPI PUSH1 0x0 DUP1 REVERT JUMPDEST POP PUSH1 0x4 CALLDATASIZE LT PUSH2 0x9E JUMPI PUSH1 0x0 CALLDATALOAD PUSH1 0xE0 SHR DUP1 PUSH4 0x47CCCA02 GT PUSH2 0x66 JUMPI DUP1 PUSH4 0x47CCCA02 EQ PUSH2 0x166 JUMPI DUP1 PUSH4 0x5997BB37 EQ PUSH2 0x191 JUMPI DUP1 PUSH4 0xA694FC3A EQ PUSH2 0x199 JUMPI DUP1 PUSH4 0xB88A802F EQ PUSH2 0x1AC JUMPI DUP1 PUSH4 0xF7C618C1 EQ PUSH2 0x1B4 JUMPI PUSH1 0x0 DUP1 REVERT JUMPDEST DUP1 PUSH4 0x2657AD0 EQ PUSH2 0xA3 JUMPI DUP1 PUSH4 0x150B7A02 EQ PUSH2 0xC0 JUMPI DUP1 PUSH4 0x16934FC4 EQ PUSH2 0xF8 JUMPI DUP1 PUSH4 0x2DEF6620 EQ PUSH2 0x154 JUMPI DUP1 PUSH4 0x2E0F2625 EQ PUSH2 0x15E JUMPI JUMPDEST PUSH1 0x0 DUP1 REVERT JUMPDEST PUSH2 0xAD PUSH3 0x278D00 DUP2 JUMP JUMPDEST PUSH1 0x40 MLOAD SWAP1 DUP2 MSTORE PUSH1 0x20 ADD JUMPDEST PUSH1 0x40 MLOAD DUP1 SWAP2 SUB SWAP1 RETURN JUMPDEST PUSH2 0xDF PUSH2 0xCE CALLDATASIZE PUSH1 0x4 PUSH2 0xB16 JUMP JUMPDEST PUSH4 0xA85BD01 PUSH1 0xE1 SHL SWAP6 SWAP5 POP POP POP POP POP JUMP JUMPDEST PUSH1 0x40 MLOAD PUSH1 0x1 PUSH1 0x1 PUSH1 0xE0 SHL SUB NOT SWAP1 SWAP2 AND DUP2 MSTORE PUSH1 0x20 ADD PUSH2 0xB7 JUMP JUMPDEST PUSH2 0x132 PUSH2 0x106 CALLDATASIZE PUSH1 0x4 PUSH2 0xBB5 JUMP JUMPDEST PUSH1 0x3 PUSH1 0x20 DUP2 SWAP1 MSTORE PUSH1 0x0 SWAP2 DUP3 MSTORE PUSH1 0x40 SWAP1 SWAP2 KECCAK256 DUP1 SLOAD PUSH1 0x1 DUP3 ADD SLOAD PUSH1 0x2 DUP4 ADD SLOAD SWAP3 SWAP1 SWAP4 ADD SLOAD SWAP1 SWAP3 SWAP2 SWAP1 PUSH1 0xFF AND DUP5 JUMP JUMPDEST PUSH1 0x40 DUP1 MLOAD SWAP5 DUP6 MSTORE PUSH1 0x20 DUP6 ADD SWAP4 SWAP1 SWAP4 MSTORE SWAP2 DUP4 ADD MSTORE ISZERO ISZERO PUSH1 0x60 DUP3 ADD MSTORE PUSH1 0x80 ADD PUSH2 0xB7 JUMP JUMPDEST PUSH2 0x15C PUSH2 0x1C7 JUMP JUMPDEST STOP JUMPDEST PUSH2 0xAD PUSH1 0x12 DUP2 JUMP JUMPDEST PUSH1 0x1 SLOAD PUSH2 0x179 SWAP1 PUSH1 0x1 PUSH1 0x1 PUSH1 0xA0 SHL SUB AND DUP2 JUMP JUMPDEST PUSH1 0x40 MLOAD PUSH1 0x1 PUSH1 0x1 PUSH1 0xA0 SHL SUB SWAP1 SWAP2 AND DUP2 MSTORE PUSH1 0x20 ADD PUSH2 0xB7 JUMP JUMPDEST PUSH2 0xAD PUSH1 0xA DUP2 JUMP JUMPDEST PUSH2 0x15C PUSH2 0x1A7 CALLDATASIZE PUSH1 0x4 PUSH2 0xBD9 JUMP JUMPDEST PUSH2 0x3A7 JUMP JUMPDEST PUSH2 0x15C PUSH2 0x6A2 JUMP JUMPDEST PUSH1 0x2 SLOAD PUSH2 0x179 SWAP1 PUSH1 0x1 PUSH1 0x1 PUSH1 0xA0 SHL SUB AND DUP2 JUMP JUMPDEST PUSH2 0x1CF PUSH2 0x76A JUMP JUMPDEST CALLER PUSH1 0x0 SWAP1 DUP2 MSTORE PUSH1 0x3 PUSH1 0x20 DUP2 SWAP1 MSTORE PUSH1 0x40 SWAP1 SWAP2 KECCAK256 SWAP1 DUP2 ADD SLOAD PUSH1 0xFF AND PUSH2 0x232 JUMPI PUSH1 0x40 MLOAD PUSH3 0x461BCD PUSH1 0xE5 SHL DUP2 MSTORE PUSH1 0x20 PUSH1 0x4 DUP3 ADD MSTORE PUSH1 0x16 PUSH1 0x24 DUP3 ADD MSTORE PUSH22 0x13919514DD185ADA5B99CE881B9BDD081CDD185AD959 PUSH1 0x52 SHL PUSH1 0x44 DUP3 ADD MSTORE PUSH1 0x64 ADD JUMPDEST PUSH1 0x40 MLOAD DUP1 SWAP2 SUB SWAP1 REVERT JUMPDEST PUSH1 0x1 DUP2 ADD SLOAD PUSH2 0x244 SWAP1 PUSH3 0x278D00 PUSH2 0x7C3 JUMP JUMPDEST TIMESTAMP LT ISZERO PUSH2 0x29F JUMPI PUSH1 0x40 MLOAD PUSH3 0x461BCD PUSH1 0xE5 SHL DUP2 MSTORE PUSH1 0x20 PUSH1 0x4 DUP3 ADD MSTORE PUSH1 0x24 DUP1 DUP3 ADD MSTORE PUSH32 0x4E46545374616B696E673A207374616B696E672074696D65206E6F7420726561 PUSH1 0x44 DUP3 ADD MSTORE PUSH4 0x18DA1959 PUSH1 0xE2 SHL PUSH1 0x64 DUP3 ADD MSTORE PUSH1 0x84 ADD PUSH2 0x229 JUMP JUMPDEST PUSH1 0x0 PUSH2 0x2AB CALLER DUP4 PUSH2 0x7D8 JUMP JUMPDEST PUSH1 0x2 SLOAD SWAP1 SWAP2 POP PUSH2 0x2C5 SWAP1 PUSH1 0x1 PUSH1 0x1 PUSH1 0xA0 SHL SUB AND CALLER DUP4 PUSH2 0x824 JUMP JUMPDEST PUSH1 0x1 SLOAD DUP3 SLOAD PUSH1 0x40 MLOAD PUSH4 0x21421707 PUSH1 0xE1 SHL DUP2 MSTORE ADDRESS PUSH1 0x4 DUP3 ADD MSTORE CALLER PUSH1 0x24 DUP3 ADD MSTORE PUSH1 0x44 DUP2 ADD SWAP2 SWAP1 SWAP2 MSTORE PUSH1 0x1 PUSH1 0x1 PUSH1 0xA0 SHL SUB SWAP1 SWAP2 AND SWAP1 PUSH4 0x42842E0E SWAP1 PUSH1 0x64 ADD PUSH1 0x0 PUSH1 0x40 MLOAD DUP1 DUP4 SUB DUP2 PUSH1 0x0 DUP8 DUP1 EXTCODESIZE ISZERO DUP1 ISZERO PUSH2 0x31A JUMPI PUSH1 0x0 DUP1 REVERT JUMPDEST POP GAS CALL ISZERO DUP1 ISZERO PUSH2 0x32E JUMPI RETURNDATASIZE PUSH1 0x0 DUP1 RETURNDATACOPY RETURNDATASIZE PUSH1 0x0 REVERT JUMPDEST POP POP CALLER PUSH1 0x0 DUP2 DUP2 MSTORE PUSH1 0x3 PUSH1 0x20 DUP2 DUP2 MSTORE PUSH1 0x40 DUP1 DUP5 KECCAK256 DUP5 DUP2 SSTORE PUSH1 0x1 DUP2 ADD DUP6 SWAP1 SSTORE PUSH1 0x2 DUP2 ADD SWAP5 SWAP1 SWAP5 SSTORE SWAP3 SWAP1 SWAP2 ADD DUP1 SLOAD PUSH1 0xFF NOT AND SWAP1 SSTORE DUP7 SLOAD SWAP2 MLOAD DUP7 DUP2 MSTORE SWAP2 SWAP5 POP SWAP2 SWAP3 POP PUSH32 0x7FC4727E062E336010F2C282598EF5F14FACB3DE68CF8195C2F23E1454B2B74E SWAP2 ADD JUMPDEST PUSH1 0x40 MLOAD DUP1 SWAP2 SUB SWAP1 LOG3 POP POP PUSH2 0x3A5 PUSH1 0x1 PUSH1 0x0 SSTORE JUMP JUMPDEST JUMP JUMPDEST PUSH2 0x3AF PUSH2 0x76A JUMP JUMPDEST PUSH1 0x1 SLOAD PUSH1 0x40 MLOAD PUSH4 0x31A9108F PUSH1 0xE1 SHL DUP2 MSTORE PUSH1 0x4 DUP2 ADD DUP4 SWAP1 MSTORE CALLER SWAP2 PUSH1 0x1 PUSH1 0x1 PUSH1 0xA0 SHL SUB AND SWAP1 PUSH4 0x6352211E SWAP1 PUSH1 0x24 ADD PUSH1 0x20 PUSH1 0x40 MLOAD DUP1 DUP4 SUB DUP2 DUP7 GAS STATICCALL ISZERO DUP1 ISZERO PUSH2 0x3F8 JUMPI RETURNDATASIZE PUSH1 0x0 DUP1 RETURNDATACOPY RETURNDATASIZE PUSH1 0x0 REVERT JUMPDEST POP POP POP POP PUSH1 0x40 MLOAD RETURNDATASIZE PUSH1 0x1F NOT PUSH1 0x1F DUP3 ADD AND DUP3 ADD DUP1 PUSH1 0x40 MSTORE POP DUP2 ADD SWAP1 PUSH2 0x41C SWAP2 SWAP1 PUSH2 0xBF2 JUMP JUMPDEST PUSH1 0x1 PUSH1 0x1 PUSH1 0xA0 SHL SUB AND EQ PUSH2 0x472 JUMPI PUSH1 0x40 MLOAD PUSH3 0x461BCD PUSH1 0xE5 SHL DUP2 MSTORE PUSH1 0x20 PUSH1 0x4 DUP3 ADD MSTORE PUSH1 0x1E PUSH1 0x24 DUP3 ADD MSTORE PUSH32 0x4E46545374616B696E673A206E6F74206F776E6572206F6620746F6B656E0000 PUSH1 0x44 DUP3 ADD MSTORE PUSH1 0x64 ADD PUSH2 0x229 JUMP JUMPDEST CALLER PUSH1 0x0 SWAP1 DUP2 MSTORE PUSH1 0x3 PUSH1 0x20 DUP2 SWAP1 MSTORE PUSH1 0x40 SWAP1 SWAP2 KECCAK256 ADD SLOAD PUSH1 0xFF AND ISZERO PUSH2 0x4D6 JUMPI PUSH1 0x40 MLOAD PUSH3 0x461BCD PUSH1 0xE5 SHL DUP2 MSTORE PUSH1 0x20 PUSH1 0x4 DUP3 ADD MSTORE PUSH1 0x1A PUSH1 0x24 DUP3 ADD MSTORE PUSH32 0x4E46545374616B696E673A20616C7265616479207374616B6564000000000000 PUSH1 0x44 DUP3 ADD MSTORE PUSH1 0x64 ADD PUSH2 0x229 JUMP JUMPDEST PUSH1 0x1 SLOAD PUSH1 0x40 MLOAD PUSH4 0x20604BF PUSH1 0xE2 SHL DUP2 MSTORE PUSH1 0x4 DUP2 ADD DUP4 SWAP1 MSTORE ADDRESS SWAP2 PUSH1 0x1 PUSH1 0x1 PUSH1 0xA0 SHL SUB AND SWAP1 PUSH4 0x81812FC SWAP1 PUSH1 0x24 ADD PUSH1 0x20 PUSH1 0x40 MLOAD DUP1 DUP4 SUB DUP2 DUP7 GAS STATICCALL ISZERO DUP1 ISZERO PUSH2 0x51F JUMPI RETURNDATASIZE PUSH1 0x0 DUP1 RETURNDATACOPY RETURNDATASIZE PUSH1 0x0 REVERT JUMPDEST POP POP POP POP PUSH1 0x40 MLOAD RETURNDATASIZE PUSH1 0x1F NOT PUSH1 0x1F DUP3 ADD AND DUP3 ADD DUP1 PUSH1 0x40 MSTORE POP DUP2 ADD SWAP1 PUSH2 0x543 SWAP2 SWAP1 PUSH2 0xBF2 JUMP JUMPDEST PUSH1 0x1 PUSH1 0x1 PUSH1 0xA0 SHL SUB AND EQ PUSH2 0x599 JUMPI PUSH1 0x40 MLOAD PUSH3 0x461BCD PUSH1 0xE5 SHL DUP2 MSTORE PUSH1 0x20 PUSH1 0x4 DUP3 ADD MSTORE PUSH1 0x18 PUSH1 0x24 DUP3 ADD MSTORE PUSH32 0x4E46545374616B696E673A206E6F7420617070726F7665640000000000000000 PUSH1 0x44 DUP3 ADD MSTORE PUSH1 0x64 ADD PUSH2 0x229 JUMP JUMPDEST PUSH1 0x1 SLOAD PUSH1 0x40 MLOAD PUSH4 0x21421707 PUSH1 0xE1 SHL DUP2 MSTORE CALLER PUSH1 0x4 DUP3 ADD MSTORE ADDRESS PUSH1 0x24 DUP3 ADD MSTORE PUSH1 0x44 DUP2 ADD DUP4 SWAP1 MSTORE PUSH1 0x1 PUSH1 0x1 PUSH1 0xA0 SHL SUB SWAP1 SWAP2 AND SWAP1 PUSH4 0x42842E0E SWAP1 PUSH1 0x64 ADD PUSH1 0x0 PUSH1 0x40 MLOAD DUP1 DUP4 SUB DUP2 PUSH1 0x0 DUP8 DUP1 EXTCODESIZE ISZERO DUP1 ISZERO PUSH2 0x5EB JUMPI PUSH1 0x0 DUP1 REVERT JUMPDEST POP GAS CALL ISZERO DUP1 ISZERO PUSH2 0x5FF JUMPI RETURNDATASIZE PUSH1 0x0 DUP1 RETURNDATACOPY RETURNDATASIZE PUSH1 0x0 REVERT JUMPDEST POP POP PUSH1 0x40 DUP1 MLOAD PUSH1 0x80 DUP2 ADD DUP3 MSTORE DUP5 DUP2 MSTORE TIMESTAMP PUSH1 0x20 DUP1 DUP4 ADD DUP3 DUP2 MSTORE DUP4 DUP6 ADD DUP4 DUP2 MSTORE PUSH1 0x1 PUSH1 0x60 DUP7 ADD DUP2 DUP2 MSTORE CALLER PUSH1 0x0 DUP2 DUP2 MSTORE PUSH1 0x3 DUP1 DUP9 MSTORE SWAP1 DUP11 SWAP1 KECCAK256 SWAP9 MLOAD DUP10 SSTORE SWAP5 MLOAD SWAP3 DUP9 ADD SWAP3 SWAP1 SWAP3 SSTORE SWAP2 MLOAD PUSH1 0x2 DUP8 ADD SSTORE SWAP1 MLOAD SWAP5 SWAP1 SWAP2 ADD DUP1 SLOAD PUSH1 0xFF NOT AND SWAP5 ISZERO ISZERO SWAP5 SWAP1 SWAP5 OR SWAP1 SWAP4 SSTORE SWAP3 MLOAD SWAP1 DUP2 MSTORE DUP6 SWAP5 POP SWAP1 SWAP3 POP PUSH32 0x1449C6DD7851ABC30ABF37F57715F492010519147CC2652FBC38202C18A6EE90 SWAP2 ADD PUSH1 0x40 MLOAD DUP1 SWAP2 SUB SWAP1 LOG3 PUSH2 0x69F PUSH1 0x1 PUSH1 0x0 SSTORE JUMP JUMPDEST POP JUMP JUMPDEST PUSH2 0x6AA PUSH2 0x76A JUMP JUMPDEST CALLER PUSH1 0x0 SWAP1 DUP2 MSTORE PUSH1 0x3 PUSH1 0x20 DUP2 SWAP1 MSTORE PUSH1 0x40 SWAP1 SWAP2 KECCAK256 SWAP1 DUP2 ADD SLOAD PUSH1 0xFF AND PUSH2 0x708 JUMPI PUSH1 0x40 MLOAD PUSH3 0x461BCD PUSH1 0xE5 SHL DUP2 MSTORE PUSH1 0x20 PUSH1 0x4 DUP3 ADD MSTORE PUSH1 0x16 PUSH1 0x24 DUP3 ADD MSTORE PUSH22 0x13919514DD185ADA5B99CE881B9BDD081CDD185AD959 PUSH1 0x52 SHL PUSH1 0x44 DUP3 ADD MSTORE PUSH1 0x64 ADD PUSH2 0x229 JUMP JUMPDEST PUSH1 0x0 PUSH2 0x714 CALLER DUP4 PUSH2 0x7D8 JUMP JUMPDEST TIMESTAMP PUSH1 0x2 DUP1 DUP6 ADD SWAP2 SWAP1 SWAP2 SSTORE SLOAD SWAP1 SWAP2 POP PUSH2 0x736 SWAP1 PUSH1 0x1 PUSH1 0x1 PUSH1 0xA0 SHL SUB AND CALLER DUP4 PUSH2 0x824 JUMP JUMPDEST DUP2 SLOAD PUSH1 0x40 MLOAD DUP3 DUP2 MSTORE CALLER SWAP1 PUSH32 0xF01DA32686223933D8A18A391060918C7F11A3648639EDD87AE013E2E2731743 SWAP1 PUSH1 0x20 ADD PUSH2 0x391 JUMP JUMPDEST PUSH1 0x2 PUSH1 0x0 SLOAD SUB PUSH2 0x7BC JUMPI PUSH1 0x40 MLOAD PUSH3 0x461BCD PUSH1 0xE5 SHL DUP2 MSTORE PUSH1 0x20 PUSH1 0x4 DUP3 ADD MSTORE PUSH1 0x1F PUSH1 0x24 DUP3 ADD MSTORE PUSH32 0x5265656E7472616E637947756172643A207265656E7472616E742063616C6C00 PUSH1 0x44 DUP3 ADD MSTORE PUSH1 0x64 ADD PUSH2 0x229 JUMP JUMPDEST PUSH1 0x2 PUSH1 0x0 SSTORE JUMP JUMPDEST PUSH1 0x0 PUSH2 0x7CF DUP3 DUP5 PUSH2 0xC25 JUMP JUMPDEST SWAP1 POP JUMPDEST SWAP3 SWAP2 POP POP JUMP JUMPDEST PUSH1 0x0 DUP1 PUSH2 0x7F2 DUP4 PUSH1 0x2 ADD SLOAD TIMESTAMP PUSH2 0x87B SWAP1 SWAP2 SWAP1 PUSH4 0xFFFFFFFF AND JUMP JUMPDEST SWAP1 POP PUSH1 0x0 PUSH2 0x81B PUSH1 0x12 PUSH2 0x815 PUSH3 0x278D00 DUP2 DUP4 PUSH2 0x80F DUP9 PUSH1 0xA PUSH2 0x887 JUMP JUMPDEST SWAP1 PUSH2 0x887 JUMP JUMPDEST SWAP1 PUSH2 0x893 JUMP JUMPDEST SWAP6 SWAP5 POP POP POP POP POP JUMP JUMPDEST PUSH1 0x40 DUP1 MLOAD PUSH1 0x1 PUSH1 0x1 PUSH1 0xA0 SHL SUB DUP5 AND PUSH1 0x24 DUP3 ADD MSTORE PUSH1 0x44 DUP1 DUP3 ADD DUP5 SWAP1 MSTORE DUP3 MLOAD DUP1 DUP4 SUB SWAP1 SWAP2 ADD DUP2 MSTORE PUSH1 0x64 SWAP1 SWAP2 ADD SWAP1 SWAP2 MSTORE PUSH1 0x20 DUP2 ADD DUP1 MLOAD PUSH1 0x1 PUSH1 0x1 PUSH1 0xE0 SHL SUB AND PUSH4 0xA9059CBB PUSH1 0xE0 SHL OR SWAP1 MSTORE PUSH2 0x876 SWAP1 DUP5 SWAP1 PUSH2 0x89F JUMP JUMPDEST POP POP POP JUMP JUMPDEST PUSH1 0x0 PUSH2 0x7CF DUP3 DUP5 PUSH2 0xC38 JUMP JUMPDEST PUSH1 0x0 PUSH2 0x7CF DUP3 DUP5 PUSH2 0xC4B JUMP JUMPDEST PUSH1 0x0 PUSH2 0x7CF DUP3 DUP5 PUSH2 0xC62 JUMP JUMPDEST PUSH1 0x0 PUSH2 0x8F4 DUP3 PUSH1 0x40 MLOAD DUP1 PUSH1 0x40 ADD PUSH1 0x40 MSTORE DUP1 PUSH1 0x20 DUP2 MSTORE PUSH1 0x20 ADD PUSH32 0x5361666545524332303A206C6F772D6C6576656C2063616C6C206661696C6564 DUP2 MSTORE POP DUP6 PUSH1 0x1 PUSH1 0x1 PUSH1 0xA0 SHL SUB AND PUSH2 0x971 SWAP1 SWAP3 SWAP2 SWAP1 PUSH4 0xFFFFFFFF AND JUMP JUMPDEST DUP1 MLOAD SWAP1 SWAP2 POP ISZERO PUSH2 0x876 JUMPI DUP1 DUP1 PUSH1 0x20 ADD SWAP1 MLOAD DUP2 ADD SWAP1 PUSH2 0x912 SWAP2 SWAP1 PUSH2 0xC84 JUMP JUMPDEST PUSH2 0x876 JUMPI PUSH1 0x40 MLOAD PUSH3 0x461BCD PUSH1 0xE5 SHL DUP2 MSTORE PUSH1 0x20 PUSH1 0x4 DUP3 ADD MSTORE PUSH1 0x2A PUSH1 0x24 DUP3 ADD MSTORE PUSH32 0x5361666545524332303A204552433230206F7065726174696F6E20646964206E PUSH1 0x44 DUP3 ADD MSTORE PUSH10 0x1BDD081CDD58D8D95959 PUSH1 0xB2 SHL PUSH1 0x64 DUP3 ADD MSTORE PUSH1 0x84 ADD PUSH2 0x229 JUMP JUMPDEST PUSH1 0x60 PUSH2 0x980 DUP5 DUP5 PUSH1 0x0 DUP6 PUSH2 0x988 JUMP JUMPDEST SWAP5 SWAP4 POP POP POP POP JUMP JUMPDEST PUSH1 0x60 DUP3 SELFBALANCE LT ISZERO PUSH2 0x9E9 JUMPI PUSH1 0x40 MLOAD PUSH3 0x461BCD PUSH1 0xE5 SHL DUP2 MSTORE PUSH1 0x20 PUSH1 0x4 DUP3 ADD MSTORE PUSH1 0x26 PUSH1 0x24 DUP3 ADD MSTORE PUSH32 0x416464726573733A20696E73756666696369656E742062616C616E636520666F PUSH1 0x44 DUP3 ADD MSTORE PUSH6 0x1C8818D85B1B PUSH1 0xD2 SHL PUSH1 0x64 DUP3 ADD MSTORE PUSH1 0x84 ADD PUSH2 0x229 JUMP JUMPDEST PUSH1 0x0 DUP1 DUP7 PUSH1 0x1 PUSH1 0x1 PUSH1 0xA0 SHL SUB AND DUP6 DUP8 PUSH1 0x40 MLOAD PUSH2 0xA05 SWAP2 SWAP1 PUSH2 0xCCA JUMP JUMPDEST PUSH1 0x0 PUSH1 0x40 MLOAD DUP1 DUP4 SUB DUP2 DUP6 DUP8 GAS CALL SWAP3 POP POP POP RETURNDATASIZE DUP1 PUSH1 0x0 DUP2 EQ PUSH2 0xA42 JUMPI PUSH1 0x40 MLOAD SWAP2 POP PUSH1 0x1F NOT PUSH1 0x3F RETURNDATASIZE ADD AND DUP3 ADD PUSH1 0x40 MSTORE RETURNDATASIZE DUP3 MSTORE RETURNDATASIZE PUSH1 0x0 PUSH1 0x20 DUP5 ADD RETURNDATACOPY PUSH2 0xA47 JUMP JUMPDEST PUSH1 0x60 SWAP2 POP JUMPDEST POP SWAP2 POP SWAP2 POP PUSH2 0xA58 DUP8 DUP4 DUP4 DUP8 PUSH2 0xA63 JUMP JUMPDEST SWAP8 SWAP7 POP POP POP POP POP POP POP JUMP JUMPDEST PUSH1 0x60 DUP4 ISZERO PUSH2 0xAD2 JUMPI DUP3 MLOAD PUSH1 0x0 SUB PUSH2 0xACB JUMPI PUSH1 0x1 PUSH1 0x1 PUSH1 0xA0 SHL SUB DUP6 AND EXTCODESIZE PUSH2 0xACB JUMPI PUSH1 0x40 MLOAD PUSH3 0x461BCD PUSH1 0xE5 SHL DUP2 MSTORE PUSH1 0x20 PUSH1 0x4 DUP3 ADD MSTORE PUSH1 0x1D PUSH1 0x24 DUP3 ADD MSTORE PUSH32 0x416464726573733A2063616C6C20746F206E6F6E2D636F6E7472616374000000 PUSH1 0x44 DUP3 ADD MSTORE PUSH1 0x64 ADD PUSH2 0x229 JUMP JUMPDEST POP DUP2 PUSH2 0x980 JUMP JUMPDEST PUSH2 0x980 DUP4 DUP4 DUP2 MLOAD ISZERO PUSH2 0xAE7 JUMPI DUP2 MLOAD DUP1 DUP4 PUSH1 0x20 ADD REVERT JUMPDEST DUP1 PUSH1 0x40 MLOAD PUSH3 0x461BCD PUSH1 0xE5 SHL DUP2 MSTORE PUSH1 0x4 ADD PUSH2 0x229 SWAP2 SWAP1 PUSH2 0xCE6 JUMP JUMPDEST PUSH1 0x1 PUSH1 0x1 PUSH1 0xA0 SHL SUB DUP2 AND DUP2 EQ PUSH2 0x69F JUMPI PUSH1 0x0 DUP1 REVERT JUMPDEST PUSH1 0x0 DUP1 PUSH1 0x0 DUP1 PUSH1 0x0 PUSH1 0x80 DUP7 DUP9 SUB SLT ISZERO PUSH2 0xB2E JUMPI PUSH1 0x0 DUP1 REVERT JUMPDEST DUP6 CALLDATALOAD PUSH2 0xB39 DUP2 PUSH2 0xB01 JUMP JUMPDEST SWAP5 POP PUSH1 0x20 DUP7 ADD CALLDATALOAD PUSH2 0xB49 DUP2 PUSH2 0xB01 JUMP JUMPDEST SWAP4 POP PUSH1 0x40 DUP7 ADD CALLDATALOAD SWAP3 POP PUSH1 0x60 DUP7 ADD CALLDATALOAD PUSH8 0xFFFFFFFFFFFFFFFF DUP1 DUP3 GT ISZERO PUSH2 0xB6D JUMPI PUSH1 0x0 DUP1 REVERT JUMPDEST DUP2 DUP9 ADD SWAP2 POP DUP9 PUSH1 0x1F DUP4 ADD SLT PUSH2 0xB81 JUMPI PUSH1 0x0 DUP1 REVERT JUMPDEST DUP2 CALLDATALOAD DUP2 DUP2 GT ISZERO PUSH2 0xB90 JUMPI PUSH1 0x0 DUP1 REVERT JUMPDEST DUP10 PUSH1 0x20 DUP3 DUP6 ADD ADD GT ISZERO PUSH2 0xBA2 JUMPI PUSH1 0x0 DUP1 REVERT JUMPDEST SWAP7 SWAP10 SWAP6 SWAP9 POP SWAP4 SWAP7 POP PUSH1 0x20 ADD SWAP5 SWAP4 SWAP3 POP POP POP JUMP JUMPDEST PUSH1 0x0 PUSH1 0x20 DUP3 DUP5 SUB SLT ISZERO PUSH2 0xBC7 JUMPI PUSH1 0x0 DUP1 REVERT JUMPDEST DUP2 CALLDATALOAD PUSH2 0xBD2 DUP2 PUSH2 0xB01 JUMP JUMPDEST SWAP4 SWAP3 POP POP POP JUMP JUMPDEST PUSH1 0x0 PUSH1 0x20 DUP3 DUP5 SUB SLT ISZERO PUSH2 0xBEB JUMPI PUSH1 0x0 DUP1 REVERT JUMPDEST POP CALLDATALOAD SWAP2 SWAP1 POP JUMP JUMPDEST PUSH1 0x0 PUSH1 0x20 DUP3 DUP5 SUB SLT ISZERO PUSH2 0xC04 JUMPI PUSH1 0x0 DUP1 REVERT JUMPDEST DUP2 MLOAD PUSH2 0xBD2 DUP2 PUSH2 0xB01 JUMP JUMPDEST PUSH4 0x4E487B71 PUSH1 0xE0 SHL PUSH1 0x0 MSTORE PUSH1 0x11 PUSH1 0x4 MSTORE PUSH1 0x24 PUSH1 0x0 REVERT JUMPDEST DUP1 DUP3 ADD DUP1 DUP3 GT ISZERO PUSH2 0x7D2 JUMPI PUSH2 0x7D2 PUSH2 0xC0F JUMP JUMPDEST DUP2 DUP2 SUB DUP2 DUP2 GT ISZERO PUSH2 0x7D2 JUMPI PUSH2 0x7D2 PUSH2 0xC0F JUMP JUMPDEST DUP1 DUP3 MUL DUP2 ISZERO DUP3 DUP3 DIV DUP5 EQ OR PUSH2 0x7D2 JUMPI PUSH2 0x7D2 PUSH2 0xC0F JUMP JUMPDEST PUSH1 0x0 DUP3 PUSH2 0xC7F JUMPI PUSH4 0x4E487B71 PUSH1 0xE0 SHL PUSH1 0x0 MSTORE PUSH1 0x12 PUSH1 0x4 MSTORE PUSH1 0x24 PUSH1 0x0 REVERT JUMPDEST POP DIV SWAP1 JUMP JUMPDEST PUSH1 0x0 PUSH1 0x20 DUP3 DUP5 SUB SLT ISZERO PUSH2 0xC96 JUMPI PUSH1 0x0 DUP1 REVERT JUMPDEST DUP2 MLOAD DUP1 ISZERO ISZERO DUP2 EQ PUSH2 0xBD2 JUMPI PUSH1 0x0 DUP1 REVERT JUMPDEST PUSH1 0x0 JUMPDEST DUP4 DUP2 LT ISZERO PUSH2 0xCC1 JUMPI DUP2 DUP2 ADD MLOAD DUP4 DUP3 ADD MSTORE PUSH1 0x20 ADD PUSH2 0xCA9 JUMP JUMPDEST POP POP PUSH1 0x0 SWAP2 ADD MSTORE JUMP JUMPDEST PUSH1 0x0 DUP3 MLOAD PUSH2 0xCDC DUP2 DUP5 PUSH1 0x20 DUP8 ADD PUSH2 0xCA6 JUMP JUMPDEST SWAP2 SWAP1 SWAP2 ADD SWAP3 SWAP2 POP POP JUMP JUMPDEST PUSH1 0x20 DUP2 MSTORE PUSH1 0x0 DUP3 MLOAD DUP1 PUSH1 0x20 DUP5 ADD MSTORE PUSH2 0xD05 DUP2 PUSH1 0x40 DUP6 ADD PUSH1 0x20 DUP8 ADD PUSH2 0xCA6 JUMP JUMPDEST PUSH1 0x1F ADD PUSH1 0x1F NOT AND SWAP2 SWAP1 SWAP2 ADD PUSH1 0x40 ADD SWAP3 SWAP2 POP POP JUMP INVALID LOG2 PUSH5 0x6970667358 0x22 SLT KECCAK256 PUSH25 0x92803333C5043B36785B692ED35AEEBBEA49E5CA2DAB9AE263 SAR 0xB1 0x4C RETURN CREATE 0xC9 PUSH5 0x736F6C6343 STOP ADDMOD SLT STOP CALLER "
				},
				"gasEstimates": {
					"creation": {
						"codeDepositCost": "681400",
						"executionCost": "infinite",
						"totalCost": "infinite"
					},
					"external": {
						"DECIMALS()": "273",
						"MINIMUM_STAKING_TIME()": "185",
						"REWARD_RATE()": "206",
						"claimReward()": "infinite",
						"nft()": "2337",
						"onERC721Received(address,address,uint256,bytes)": "infinite",
						"rewardToken()": "2425",
						"stake(uint256)": "infinite",
						"stakes(address)": "8981",
						"unstake()": "infinite"
					},
					"internal": {
						"calculateReward(address,struct NFTStaking.Stake storage pointer)": "infinite"
					}
				},
				"methodIdentifiers": {
					"DECIMALS()": "2e0f2625",
					"MINIMUM_STAKING_TIME()": "02657ad0",
					"REWARD_RATE()": "5997bb37",
					"claimReward()": "b88a802f",
					"nft()": "47ccca02",
					"onERC721Received(address,address,uint256,bytes)": "150b7a02",
					"rewardToken()": "f7c618c1",
					"stake(uint256)": "a694fc3a",
					"stakes(address)": "16934fc4",
					"unstake()": "2def6620"
				}
			},
			"storageLayout": {
				"storage": [
					{
						"astId": 10,
						"contract": "Staking Contract/SimPLstake.sol:NFTStaking",
						"label": "_status",
						"offset": 0,
						"slot": "0",
						"type": "t_uint256"
					},
					{
						"astId": 1280,
						"contract": "Staking Contract/SimPLstake.sol:NFTStaking",
						"label": "nft",
						"offset": 0,
						"slot": "1",
						"type": "t_contract(IERC721)564"
					},
					{
						"astId": 1283,
						"contract": "Staking Contract/SimPLstake.sol:NFTStaking",
						"label": "rewardToken",
						"offset": 0,
						"slot": "2",
						"type": "t_contract(IERC20)131"
					},
					{
						"astId": 1288,
						"contract": "Staking Contract/SimPLstake.sol:NFTStaking",
						"label": "stakes",
						"offset": 0,
						"slot": "3",
						"type": "t_mapping(t_address,t_struct(Stake)1277_storage)"
					}
				],
				"types": {
					"t_address": {
						"encoding": "inplace",
						"label": "address",
						"numberOfBytes": "20"
					},
					"t_bool": {
						"encoding": "inplace",
						"label": "bool",
						"numberOfBytes": "1"
					},
					"t_contract(IERC20)131": {
						"encoding": "inplace",
						"label": "contract IERC20",
						"numberOfBytes": "20"
					},
					"t_contract(IERC721)564": {
						"encoding": "inplace",
						"label": "contract IERC721",
						"numberOfBytes": "20"
					},
					"t_mapping(t_address,t_struct(Stake)1277_storage)": {
						"encoding": "mapping",
						"key": "t_address",
						"label": "mapping(address => struct NFTStaking.Stake)",
						"numberOfBytes": "32",
						"value": "t_struct(Stake)1277_storage"
					},
					"t_struct(Stake)1277_storage": {
						"encoding": "inplace",
						"label": "struct NFTStaking.Stake",
						"members": [
							{
								"astId": 1270,
								"contract": "Staking Contract/SimPLstake.sol:NFTStaking",
								"label": "tokenId",
								"offset": 0,
								"slot": "0",
								"type": "t_uint256"
							},
							{
								"astId": 1272,
								"contract": "Staking Contract/SimPLstake.sol:NFTStaking",
								"label": "stakedTime",
								"offset": 0,
								"slot": "1",
								"type": "t_uint256"
							},
							{
								"astId": 1274,
								"contract": "Staking Contract/SimPLstake.sol:NFTStaking",
								"label": "lastClaimedTime",
								"offset": 0,
								"slot": "2",
								"type": "t_uint256"
							},
							{
								"astId": 1276,
								"contract": "Staking Contract/SimPLstake.sol:NFTStaking",
								"label": "active",
								"offset": 0,
								"slot": "3",
								"type": "t_bool"
							}
						],
						"numberOfBytes": "128"
					},
					"t_uint256": {
						"encoding": "inplace",
						"label": "uint256",
						"numberOfBytes": "32"
					}
				}
			},
			"userdoc": {
				"kind": "user",
				"methods": {},
				"version": 1
			}
		}
	}
}