{
	"Staking Contract/StakingNFT.sol": {
		"NFTStaking": {
			"abi": [
				{
					"inputs": [
						{
							"internalType": "address",
							"name": "_nftAddress",
							"type": "address"
						}
					],
					"stateMutability": "nonpayable",
					"type": "constructor"
				},
				{
					"anonymous": false,
					"inputs": [
						{
							"indexed": true,
							"internalType": "address",
							"name": "owner",
							"type": "address"
						},
						{
							"indexed": true,
							"internalType": "uint256",
							"name": "tokenId",
							"type": "uint256"
						},
						{
							"indexed": false,
							"internalType": "uint256",
							"name": "reward",
							"type": "uint256"
						}
					],
					"name": "RewardClaimed",
					"type": "event"
				},
				{
					"anonymous": false,
					"inputs": [
						{
							"indexed": true,
							"internalType": "address",
							"name": "owner",
							"type": "address"
						},
						{
							"indexed": true,
							"internalType": "uint256",
							"name": "tokenId",
							"type": "uint256"
						},
						{
							"indexed": false,
							"internalType": "uint256",
							"name": "stakedTime",
							"type": "uint256"
						}
					],
					"name": "Staked",
					"type": "event"
				},
				{
					"anonymous": false,
					"inputs": [
						{
							"indexed": true,
							"internalType": "address",
							"name": "owner",
							"type": "address"
						},
						{
							"indexed": true,
							"internalType": "uint256",
							"name": "tokenId",
							"type": "uint256"
						},
						{
							"indexed": false,
							"internalType": "uint256",
							"name": "reward",
							"type": "uint256"
						}
					],
					"name": "Unstaked",
					"type": "event"
				},
				{
					"inputs": [],
					"name": "DECIMALS",
					"outputs": [
						{
							"internalType": "uint256",
							"name": "",
							"type": "uint256"
						}
					],
					"stateMutability": "view",
					"type": "function"
				},
				{
					"inputs": [],
					"name": "MINIMUM_STAKING_TIME",
					"outputs": [
						{
							"internalType": "uint256",
							"name": "",
							"type": "uint256"
						}
					],
					"stateMutability": "view",
					"type": "function"
				},
				{
					"inputs": [],
					"name": "REWARD_RATE",
					"outputs": [
						{
							"internalType": "uint256",
							"name": "",
							"type": "uint256"
						}
					],
					"stateMutability": "view",
					"type": "function"
				},
				{
					"inputs": [],
					"name": "claimReward",
					"outputs": [],
					"stateMutability": "nonpayable",
					"type": "function"
				},
				{
					"inputs": [],
					"name": "nft",
					"outputs": [
						{
							"internalType": "contract IERC721",
							"name": "",
							"type": "address"
						}
					],
					"stateMutability": "view",
					"type": "function"
				},
				{
					"inputs": [
						{
							"internalType": "address",
							"name": "",
							"type": "address"
						},
						{
							"internalType": "address",
							"name": "",
							"type": "address"
						},
						{
							"internalType": "uint256",
							"name": "",
							"type": "uint256"
						},
						{
							"internalType": "bytes",
							"name": "",
							"type": "bytes"
						}
					],
					"name": "onERC721Received",
					"outputs": [
						{
							"internalType": "bytes4",
							"name": "",
							"type": "bytes4"
						}
					],
					"stateMutability": "pure",
					"type": "function"
				},
				{
					"inputs": [
						{
							"internalType": "uint256",
							"name": "_tokenId",
							"type": "uint256"
						}
					],
					"name": "stake",
					"outputs": [],
					"stateMutability": "nonpayable",
					"type": "function"
				},
				{
					"inputs": [
						{
							"internalType": "address",
							"name": "",
							"type": "address"
						}
					],
					"name": "stakes",
					"outputs": [
						{
							"internalType": "uint256",
							"name": "tokenId",
							"type": "uint256"
						},
						{
							"internalType": "uint256",
							"name": "stakedTime",
							"type": "uint256"
						},
						{
							"internalType": "uint256",
							"name": "lastClaimedTime",
							"type": "uint256"
						},
						{
							"internalType": "bool",
							"name": "active",
							"type": "bool"
						}
					],
					"stateMutability": "view",
					"type": "function"
				},
				{
					"inputs": [],
					"name": "unstake",
					"outputs": [],
					"stateMutability": "nonpayable",
					"type": "function"
				}
			],
			"devdoc": {
				"kind": "dev",
				"methods": {},
				"version": 1
			},
			"evm": {
				"assembly": "    /* \"Staking Contract/StakingNFT.sol\":357:3095  contract NFTStaking is IERC721Receiver, ReentrancyGuard {... */\n  mstore(0x40, 0x80)\n    /* \"Staking Contract/StakingNFT.sol\":1104:1180  constructor(address _nftAddress) {... */\n  callvalue\n  dup1\n  iszero\n  tag_1\n  jumpi\n  0x00\n  dup1\n  revert\ntag_1:\n  pop\n  mload(0x40)\n  sub(codesize, bytecodeSize)\n  dup1\n  bytecodeSize\n  dup4\n  codecopy\n  dup2\n  dup2\n  add\n  0x40\n  mstore\n  dup2\n  add\n  swap1\n  tag_2\n  swap2\n  swap1\n  tag_3\n  jump\t// in\ntag_2:\n    /* \"@openzeppelin/contracts/security/ReentrancyGuard.sol\":1716:1717  1 */\n  0x01\n    /* \"@openzeppelin/contracts/security/ReentrancyGuard.sol\":1821:1828  _status */\n  0x00\n    /* \"@openzeppelin/contracts/security/ReentrancyGuard.sol\":1821:1843  _status = _NOT_ENTERED */\n  dup2\n  swap1\n  sstore\n  pop\n    /* \"Staking Contract/StakingNFT.sol\":1161:1172  _nftAddress */\n  dup1\n    /* \"Staking Contract/StakingNFT.sol\":1147:1150  nft */\n  0x01\n  0x00\n    /* \"Staking Contract/StakingNFT.sol\":1147:1173  nft = IERC721(_nftAddress) */\n  0x0100\n  exp\n  dup2\n  sload\n  dup2\n  0xffffffffffffffffffffffffffffffffffffffff\n  mul\n  not\n  and\n  swap1\n  dup4\n  0xffffffffffffffffffffffffffffffffffffffff\n  and\n  mul\n  or\n  swap1\n  sstore\n  pop\n    /* \"Staking Contract/StakingNFT.sol\":1104:1180  constructor(address _nftAddress) {... */\n  pop\n    /* \"Staking Contract/StakingNFT.sol\":357:3095  contract NFTStaking is IERC721Receiver, ReentrancyGuard {... */\n  jump(tag_8)\n    /* \"#utility.yul\":88:205   */\ntag_10:\n    /* \"#utility.yul\":197:198   */\n  0x00\n    /* \"#utility.yul\":194:195   */\n  dup1\n    /* \"#utility.yul\":187:199   */\n  revert\n    /* \"#utility.yul\":334:460   */\ntag_12:\n    /* \"#utility.yul\":371:378   */\n  0x00\n    /* \"#utility.yul\":411:453   */\n  0xffffffffffffffffffffffffffffffffffffffff\n    /* \"#utility.yul\":404:409   */\n  dup3\n    /* \"#utility.yul\":400:454   */\n  and\n    /* \"#utility.yul\":389:454   */\n  swap1\n  pop\n    /* \"#utility.yul\":334:460   */\n  swap2\n  swap1\n  pop\n  jump\t// out\n    /* \"#utility.yul\":466:562   */\ntag_13:\n    /* \"#utility.yul\":503:510   */\n  0x00\n    /* \"#utility.yul\":532:556   */\n  tag_22\n    /* \"#utility.yul\":550:555   */\n  dup3\n    /* \"#utility.yul\":532:556   */\n  tag_12\n  jump\t// in\ntag_22:\n    /* \"#utility.yul\":521:556   */\n  swap1\n  pop\n    /* \"#utility.yul\":466:562   */\n  swap2\n  swap1\n  pop\n  jump\t// out\n    /* \"#utility.yul\":568:690   */\ntag_14:\n    /* \"#utility.yul\":641:665   */\n  tag_24\n    /* \"#utility.yul\":659:664   */\n  dup2\n    /* \"#utility.yul\":641:665   */\n  tag_13\n  jump\t// in\ntag_24:\n    /* \"#utility.yul\":634:639   */\n  dup2\n    /* \"#utility.yul\":631:666   */\n  eq\n    /* \"#utility.yul\":621:684   */\n  tag_25\n  jumpi\n    /* \"#utility.yul\":680:681   */\n  0x00\n    /* \"#utility.yul\":677:678   */\n  dup1\n    /* \"#utility.yul\":670:682   */\n  revert\n    /* \"#utility.yul\":621:684   */\ntag_25:\n    /* \"#utility.yul\":568:690   */\n  pop\n  jump\t// out\n    /* \"#utility.yul\":696:839   */\ntag_15:\n    /* \"#utility.yul\":753:758   */\n  0x00\n    /* \"#utility.yul\":784:790   */\n  dup2\n    /* \"#utility.yul\":778:791   */\n  mload\n    /* \"#utility.yul\":769:791   */\n  swap1\n  pop\n    /* \"#utility.yul\":800:833   */\n  tag_27\n    /* \"#utility.yul\":827:832   */\n  dup2\n    /* \"#utility.yul\":800:833   */\n  tag_14\n  jump\t// in\ntag_27:\n    /* \"#utility.yul\":696:839   */\n  swap3\n  swap2\n  pop\n  pop\n  jump\t// out\n    /* \"#utility.yul\":845:1196   */\ntag_3:\n    /* \"#utility.yul\":915:921   */\n  0x00\n    /* \"#utility.yul\":964:966   */\n  0x20\n    /* \"#utility.yul\":952:961   */\n  dup3\n    /* \"#utility.yul\":943:950   */\n  dup5\n    /* \"#utility.yul\":939:962   */\n  sub\n    /* \"#utility.yul\":935:967   */\n  slt\n    /* \"#utility.yul\":932:1051   */\n  iszero\n  tag_29\n  jumpi\n    /* \"#utility.yul\":970:1049   */\n  tag_30\n  tag_10\n  jump\t// in\ntag_30:\n    /* \"#utility.yul\":932:1051   */\ntag_29:\n    /* \"#utility.yul\":1090:1091   */\n  0x00\n    /* \"#utility.yul\":1115:1179   */\n  tag_31\n    /* \"#utility.yul\":1171:1178   */\n  dup5\n    /* \"#utility.yul\":1162:1168   */\n  dup3\n    /* \"#utility.yul\":1151:1160   */\n  dup6\n    /* \"#utility.yul\":1147:1169   */\n  add\n    /* \"#utility.yul\":1115:1179   */\n  tag_15\n  jump\t// in\ntag_31:\n    /* \"#utility.yul\":1105:1179   */\n  swap2\n  pop\n    /* \"#utility.yul\":1061:1189   */\n  pop\n    /* \"#utility.yul\":845:1196   */\n  swap3\n  swap2\n  pop\n  pop\n  jump\t// out\n    /* \"Staking Contract/StakingNFT.sol\":357:3095  contract NFTStaking is IERC721Receiver, ReentrancyGuard {... */\ntag_8:\n  dataSize(sub_0)\n  dup1\n  dataOffset(sub_0)\n  0x00\n  codecopy\n  0x00\n  return\nstop\n\nsub_0: assembly {\n        /* \"Staking Contract/StakingNFT.sol\":357:3095  contract NFTStaking is IERC721Receiver, ReentrancyGuard {... */\n      mstore(0x40, 0x80)\n      callvalue\n      dup1\n      iszero\n      tag_1\n      jumpi\n      0x00\n      dup1\n      revert\n    tag_1:\n      pop\n      jumpi(tag_2, lt(calldatasize, 0x04))\n      shr(0xe0, calldataload(0x00))\n      dup1\n      0x2e0f2625\n      gt\n      tag_12\n      jumpi\n      dup1\n      0x2e0f2625\n      eq\n      tag_7\n      jumpi\n      dup1\n      0x47ccca02\n      eq\n      tag_8\n      jumpi\n      dup1\n      0x5997bb37\n      eq\n      tag_9\n      jumpi\n      dup1\n      0xa694fc3a\n      eq\n      tag_10\n      jumpi\n      dup1\n      0xb88a802f\n      eq\n      tag_11\n      jumpi\n      jump(tag_2)\n    tag_12:\n      dup1\n      0x02657ad0\n      eq\n      tag_3\n      jumpi\n      dup1\n      0x150b7a02\n      eq\n      tag_4\n      jumpi\n      dup1\n      0x16934fc4\n      eq\n      tag_5\n      jumpi\n      dup1\n      0x2def6620\n      eq\n      tag_6\n      jumpi\n    tag_2:\n      0x00\n      dup1\n      revert\n        /* \"Staking Contract/StakingNFT.sol\":483:537  uint256 public constant MINIMUM_STAKING_TIME = 30 days */\n    tag_3:\n      tag_13\n      tag_14\n      jump\t// in\n    tag_13:\n      mload(0x40)\n      tag_15\n      swap2\n      swap1\n      tag_16\n      jump\t// in\n    tag_15:\n      mload(0x40)\n      dup1\n      swap2\n      sub\n      swap1\n      return\n        /* \"Staking Contract/StakingNFT.sol\":2892:3093  function onERC721Received(... */\n    tag_4:\n      tag_17\n      0x04\n      dup1\n      calldatasize\n      sub\n      dup2\n      add\n      swap1\n      tag_18\n      swap2\n      swap1\n      tag_19\n      jump\t// in\n    tag_18:\n      tag_20\n      jump\t// in\n    tag_17:\n      mload(0x40)\n      tag_21\n      swap2\n      swap1\n      tag_22\n      jump\t// in\n    tag_21:\n      mload(0x40)\n      dup1\n      swap2\n      sub\n      swap1\n      return\n        /* \"Staking Contract/StakingNFT.sol\":798:837  mapping(address => Stake) public stakes */\n    tag_5:\n      tag_23\n      0x04\n      dup1\n      calldatasize\n      sub\n      dup2\n      add\n      swap1\n      tag_24\n      swap2\n      swap1\n      tag_25\n      jump\t// in\n    tag_24:\n      tag_26\n      jump\t// in\n    tag_23:\n      mload(0x40)\n      tag_27\n      swap5\n      swap4\n      swap3\n      swap2\n      swap1\n      tag_28\n      jump\t// in\n    tag_27:\n      mload(0x40)\n      dup1\n      swap2\n      sub\n      swap1\n      return\n        /* \"Staking Contract/StakingNFT.sol\":1729:2232  function unstake() external nonReentrant {... */\n    tag_6:\n      tag_29\n      tag_30\n      jump\t// in\n    tag_29:\n      stop\n        /* \"Staking Contract/StakingNFT.sol\":596:634  uint256 public constant DECIMALS = 100 */\n    tag_7:\n      tag_31\n      tag_32\n      jump\t// in\n    tag_31:\n      mload(0x40)\n      tag_33\n      swap2\n      swap1\n      tag_16\n      jump\t// in\n    tag_33:\n      mload(0x40)\n      dup1\n      swap2\n      sub\n      swap1\n      return\n        /* \"Staking Contract/StakingNFT.sol\":774:792  IERC721 public nft */\n    tag_8:\n      tag_34\n      tag_35\n      jump\t// in\n    tag_34:\n      mload(0x40)\n      tag_36\n      swap2\n      swap1\n      tag_37\n      jump\t// in\n    tag_36:\n      mload(0x40)\n      dup1\n      swap2\n      sub\n      swap1\n      return\n        /* \"Staking Contract/StakingNFT.sol\":543:583  uint256 public constant REWARD_RATE = 10 */\n    tag_9:\n      tag_38\n      tag_39\n      jump\t// in\n    tag_38:\n      mload(0x40)\n      tag_40\n      swap2\n      swap1\n      tag_16\n      jump\t// in\n    tag_40:\n      mload(0x40)\n      dup1\n      swap2\n      sub\n      swap1\n      return\n        /* \"Staking Contract/StakingNFT.sol\":1186:1723  function stake(uint256 _tokenId) external nonReentrant {... */\n    tag_10:\n      tag_41\n      0x04\n      dup1\n      calldatasize\n      sub\n      dup2\n      add\n      swap1\n      tag_42\n      swap2\n      swap1\n      tag_43\n      jump\t// in\n    tag_42:\n      tag_44\n      jump\t// in\n    tag_41:\n      stop\n        /* \"Staking Contract/StakingNFT.sol\":2238:2572  function claimReward() external nonReentrant {... */\n    tag_11:\n      tag_45\n      tag_46\n      jump\t// in\n    tag_45:\n      stop\n        /* \"Staking Contract/StakingNFT.sol\":483:537  uint256 public constant MINIMUM_STAKING_TIME = 30 days */\n    tag_14:\n        /* \"Staking Contract/StakingNFT.sol\":530:537  30 days */\n      0x278d00\n        /* \"Staking Contract/StakingNFT.sol\":483:537  uint256 public constant MINIMUM_STAKING_TIME = 30 days */\n      dup2\n      jump\t// out\n        /* \"Staking Contract/StakingNFT.sol\":2892:3093  function onERC721Received(... */\n    tag_20:\n        /* \"Staking Contract/StakingNFT.sol\":3031:3037  bytes4 */\n      0x00\n        /* \"Staking Contract/StakingNFT.sol\":3056:3086  this.onERC721Received.selector */\n      shl(0xe0, 0x150b7a02)\n        /* \"Staking Contract/StakingNFT.sol\":3049:3086  return this.onERC721Received.selector */\n      swap1\n      pop\n        /* \"Staking Contract/StakingNFT.sol\":2892:3093  function onERC721Received(... */\n      swap6\n      swap5\n      pop\n      pop\n      pop\n      pop\n      pop\n      jump\t// out\n        /* \"Staking Contract/StakingNFT.sol\":798:837  mapping(address => Stake) public stakes */\n    tag_26:\n      mstore(0x20, 0x02)\n      dup1\n      0x00\n      mstore\n      keccak256(0x00, 0x40)\n      0x00\n      swap2\n      pop\n      swap1\n      pop\n      dup1\n      0x00\n      add\n      sload\n      swap1\n      dup1\n      0x01\n      add\n      sload\n      swap1\n      dup1\n      0x02\n      add\n      sload\n      swap1\n      dup1\n      0x03\n      add\n      0x00\n      swap1\n      sload\n      swap1\n      0x0100\n      exp\n      swap1\n      div\n      0xff\n      and\n      swap1\n      pop\n      dup5\n      jump\t// out\n        /* \"Staking Contract/StakingNFT.sol\":1729:2232  function unstake() external nonReentrant {... */\n    tag_30:\n        /* \"@openzeppelin/contracts/security/ReentrancyGuard.sol\":2261:2282  _nonReentrantBefore() */\n      tag_49\n        /* \"@openzeppelin/contracts/security/ReentrancyGuard.sol\":2261:2280  _nonReentrantBefore */\n      tag_50\n        /* \"@openzeppelin/contracts/security/ReentrancyGuard.sol\":2261:2282  _nonReentrantBefore() */\n      jump\t// in\n    tag_49:\n        /* \"Staking Contract/StakingNFT.sol\":1780:1799  Stake storage stake */\n      0x00\n        /* \"Staking Contract/StakingNFT.sol\":1802:1808  stakes */\n      0x02\n        /* \"Staking Contract/StakingNFT.sol\":1802:1820  stakes[msg.sender] */\n      0x00\n        /* \"Staking Contract/StakingNFT.sol\":1809:1819  msg.sender */\n      caller\n        /* \"Staking Contract/StakingNFT.sol\":1802:1820  stakes[msg.sender] */\n      0xffffffffffffffffffffffffffffffffffffffff\n      and\n      0xffffffffffffffffffffffffffffffffffffffff\n      and\n      dup2\n      mstore\n      0x20\n      add\n      swap1\n      dup2\n      mstore\n      0x20\n      add\n      0x00\n      keccak256\n        /* \"Staking Contract/StakingNFT.sol\":1780:1820  Stake storage stake = stakes[msg.sender] */\n      swap1\n      pop\n        /* \"Staking Contract/StakingNFT.sol\":1838:1843  stake */\n      dup1\n        /* \"Staking Contract/StakingNFT.sol\":1838:1850  stake.active */\n      0x03\n      add\n      0x00\n      swap1\n      sload\n      swap1\n      0x0100\n      exp\n      swap1\n      div\n      0xff\n      and\n        /* \"Staking Contract/StakingNFT.sol\":1830:1877  require(stake.active, \"NFTStaking: not staked\") */\n      tag_52\n      jumpi\n      mload(0x40)\n      0x08c379a000000000000000000000000000000000000000000000000000000000\n      dup2\n      mstore\n      0x04\n      add\n      tag_53\n      swap1\n      tag_54\n      jump\t// in\n    tag_53:\n      mload(0x40)\n      dup1\n      swap2\n      sub\n      swap1\n      revert\n    tag_52:\n        /* \"Staking Contract/StakingNFT.sol\":1914:1956  stake.stakedTime.add(MINIMUM_STAKING_TIME) */\n      tag_55\n        /* \"Staking Contract/StakingNFT.sol\":530:537  30 days */\n      0x278d00\n        /* \"Staking Contract/StakingNFT.sol\":1914:1919  stake */\n      dup3\n        /* \"Staking Contract/StakingNFT.sol\":1914:1930  stake.stakedTime */\n      0x01\n      add\n      sload\n        /* \"Staking Contract/StakingNFT.sol\":1914:1934  stake.stakedTime.add */\n      tag_56\n      swap1\n        /* \"Staking Contract/StakingNFT.sol\":1914:1956  stake.stakedTime.add(MINIMUM_STAKING_TIME) */\n      swap2\n      swap1\n      0xffffffff\n      and\n      jump\t// in\n    tag_55:\n        /* \"Staking Contract/StakingNFT.sol\":1895:1910  block.timestamp */\n      timestamp\n        /* \"Staking Contract/StakingNFT.sol\":1895:1956  block.timestamp >= stake.stakedTime.add(MINIMUM_STAKING_TIME) */\n      lt\n      iszero\n        /* \"Staking Contract/StakingNFT.sol\":1887:1997  require(block.timestamp >= stake.stakedTime.add(MINIMUM_STAKING_TIME), \"NFTStaking: staking time not reached\") */\n      tag_57\n      jumpi\n      mload(0x40)\n      0x08c379a000000000000000000000000000000000000000000000000000000000\n      dup2\n      mstore\n      0x04\n      add\n      tag_58\n      swap1\n      tag_59\n      jump\t// in\n    tag_58:\n      mload(0x40)\n      dup1\n      swap2\n      sub\n      swap1\n      revert\n    tag_57:\n        /* \"Staking Contract/StakingNFT.sol\":2008:2022  uint256 reward */\n      0x00\n        /* \"Staking Contract/StakingNFT.sol\":2025:2059  calculateReward(msg.sender, stake) */\n      tag_60\n        /* \"Staking Contract/StakingNFT.sol\":2041:2051  msg.sender */\n      caller\n        /* \"Staking Contract/StakingNFT.sol\":2053:2058  stake */\n      dup4\n        /* \"Staking Contract/StakingNFT.sol\":2025:2040  calculateReward */\n      tag_61\n        /* \"Staking Contract/StakingNFT.sol\":2025:2059  calculateReward(msg.sender, stake) */\n      jump\t// in\n    tag_60:\n        /* \"Staking Contract/StakingNFT.sol\":2008:2059  uint256 reward = calculateReward(msg.sender, stake) */\n      swap1\n      pop\n        /* \"Staking Contract/StakingNFT.sol\":2069:2072  nft */\n      0x01\n      0x00\n      swap1\n      sload\n      swap1\n      0x0100\n      exp\n      swap1\n      div\n      0xffffffffffffffffffffffffffffffffffffffff\n      and\n        /* \"Staking Contract/StakingNFT.sol\":2069:2089  nft.safeTransferFrom */\n      0xffffffffffffffffffffffffffffffffffffffff\n      and\n      0x42842e0e\n        /* \"Staking Contract/StakingNFT.sol\":2098:2102  this */\n      address\n        /* \"Staking Contract/StakingNFT.sol\":2105:2115  msg.sender */\n      caller\n        /* \"Staking Contract/StakingNFT.sol\":2117:2122  stake */\n      dup6\n        /* \"Staking Contract/StakingNFT.sol\":2117:2130  stake.tokenId */\n      0x00\n      add\n      sload\n        /* \"Staking Contract/StakingNFT.sol\":2069:2131  nft.safeTransferFrom(address(this), msg.sender, stake.tokenId) */\n      mload(0x40)\n      dup5\n      0xffffffff\n      and\n      0xe0\n      shl\n      dup2\n      mstore\n      0x04\n      add\n      tag_62\n      swap4\n      swap3\n      swap2\n      swap1\n      tag_63\n      jump\t// in\n    tag_62:\n      0x00\n      mload(0x40)\n      dup1\n      dup4\n      sub\n      dup2\n      0x00\n      dup8\n      dup1\n      extcodesize\n      iszero\n      dup1\n      iszero\n      tag_64\n      jumpi\n      0x00\n      dup1\n      revert\n    tag_64:\n      pop\n      gas\n      call\n      iszero\n      dup1\n      iszero\n      tag_66\n      jumpi\n      returndatasize\n      0x00\n      dup1\n      returndatacopy\n      revert(0x00, returndatasize)\n    tag_66:\n      pop\n      pop\n      pop\n      pop\n        /* \"Staking Contract/StakingNFT.sol\":2148:2154  stakes */\n      0x02\n        /* \"Staking Contract/StakingNFT.sol\":2148:2166  stakes[msg.sender] */\n      0x00\n        /* \"Staking Contract/StakingNFT.sol\":2155:2165  msg.sender */\n      caller\n        /* \"Staking Contract/StakingNFT.sol\":2148:2166  stakes[msg.sender] */\n      0xffffffffffffffffffffffffffffffffffffffff\n      and\n      0xffffffffffffffffffffffffffffffffffffffff\n      and\n      dup2\n      mstore\n      0x20\n      add\n      swap1\n      dup2\n      mstore\n      0x20\n      add\n      0x00\n      keccak256\n      0x00\n        /* \"Staking Contract/StakingNFT.sol\":2141:2166  delete stakes[msg.sender] */\n      dup1\n      dup3\n      add\n      0x00\n      swap1\n      sstore\n      0x01\n      dup3\n      add\n      0x00\n      swap1\n      sstore\n      0x02\n      dup3\n      add\n      0x00\n      swap1\n      sstore\n      0x03\n      dup3\n      add\n      exp(0x0100, 0x00)\n      dup2\n      sload\n      swap1\n      0xff\n      mul\n      not\n      and\n      swap1\n      sstore\n      pop\n      pop\n        /* \"Staking Contract/StakingNFT.sol\":2203:2208  stake */\n      dup2\n        /* \"Staking Contract/StakingNFT.sol\":2203:2216  stake.tokenId */\n      0x00\n      add\n      sload\n        /* \"Staking Contract/StakingNFT.sol\":2191:2201  msg.sender */\n      caller\n        /* \"Staking Contract/StakingNFT.sol\":2182:2225  Unstaked(msg.sender, stake.tokenId, reward) */\n      0xffffffffffffffffffffffffffffffffffffffff\n      and\n      0x7fc4727e062e336010f2c282598ef5f14facb3de68cf8195c2f23e1454b2b74e\n        /* \"Staking Contract/StakingNFT.sol\":2218:2224  reward */\n      dup4\n        /* \"Staking Contract/StakingNFT.sol\":2182:2225  Unstaked(msg.sender, stake.tokenId, reward) */\n      mload(0x40)\n      tag_67\n      swap2\n      swap1\n      tag_16\n      jump\t// in\n    tag_67:\n      mload(0x40)\n      dup1\n      swap2\n      sub\n      swap1\n      log3\n        /* \"Staking Contract/StakingNFT.sol\":1770:2232  {... */\n      pop\n      pop\n        /* \"@openzeppelin/contracts/security/ReentrancyGuard.sol\":2303:2323  _nonReentrantAfter() */\n      tag_68\n        /* \"@openzeppelin/contracts/security/ReentrancyGuard.sol\":2303:2321  _nonReentrantAfter */\n      tag_69\n        /* \"@openzeppelin/contracts/security/ReentrancyGuard.sol\":2303:2323  _nonReentrantAfter() */\n      jump\t// in\n    tag_68:\n        /* \"Staking Contract/StakingNFT.sol\":1729:2232  function unstake() external nonReentrant {... */\n      jump\t// out\n        /* \"Staking Contract/StakingNFT.sol\":596:634  uint256 public constant DECIMALS = 100 */\n    tag_32:\n        /* \"Staking Contract/StakingNFT.sol\":631:634  100 */\n      0x64\n        /* \"Staking Contract/StakingNFT.sol\":596:634  uint256 public constant DECIMALS = 100 */\n      dup2\n      jump\t// out\n        /* \"Staking Contract/StakingNFT.sol\":774:792  IERC721 public nft */\n    tag_35:\n      0x01\n      0x00\n      swap1\n      sload\n      swap1\n      0x0100\n      exp\n      swap1\n      div\n      0xffffffffffffffffffffffffffffffffffffffff\n      and\n      dup2\n      jump\t// out\n        /* \"Staking Contract/StakingNFT.sol\":543:583  uint256 public constant REWARD_RATE = 10 */\n    tag_39:\n        /* \"Staking Contract/StakingNFT.sol\":581:583  10 */\n      0x0a\n        /* \"Staking Contract/StakingNFT.sol\":543:583  uint256 public constant REWARD_RATE = 10 */\n      dup2\n      jump\t// out\n        /* \"Staking Contract/StakingNFT.sol\":1186:1723  function stake(uint256 _tokenId) external nonReentrant {... */\n    tag_44:\n        /* \"@openzeppelin/contracts/security/ReentrancyGuard.sol\":2261:2282  _nonReentrantBefore() */\n      tag_71\n        /* \"@openzeppelin/contracts/security/ReentrancyGuard.sol\":2261:2280  _nonReentrantBefore */\n      tag_50\n        /* \"@openzeppelin/contracts/security/ReentrancyGuard.sol\":2261:2282  _nonReentrantBefore() */\n      jump\t// in\n    tag_71:\n        /* \"Staking Contract/StakingNFT.sol\":1284:1294  msg.sender */\n      caller\n        /* \"Staking Contract/StakingNFT.sol\":1259:1294  nft.ownerOf(_tokenId) == msg.sender */\n      0xffffffffffffffffffffffffffffffffffffffff\n      and\n        /* \"Staking Contract/StakingNFT.sol\":1259:1262  nft */\n      0x01\n      0x00\n      swap1\n      sload\n      swap1\n      0x0100\n      exp\n      swap1\n      div\n      0xffffffffffffffffffffffffffffffffffffffff\n      and\n        /* \"Staking Contract/StakingNFT.sol\":1259:1270  nft.ownerOf */\n      0xffffffffffffffffffffffffffffffffffffffff\n      and\n      0x6352211e\n        /* \"Staking Contract/StakingNFT.sol\":1271:1279  _tokenId */\n      dup4\n        /* \"Staking Contract/StakingNFT.sol\":1259:1280  nft.ownerOf(_tokenId) */\n      mload(0x40)\n      dup3\n      0xffffffff\n      and\n      0xe0\n      shl\n      dup2\n      mstore\n      0x04\n      add\n      tag_73\n      swap2\n      swap1\n      tag_16\n      jump\t// in\n    tag_73:\n      0x20\n      mload(0x40)\n      dup1\n      dup4\n      sub\n      dup2\n      dup7\n      gas\n      staticcall\n      iszero\n      dup1\n      iszero\n      tag_75\n      jumpi\n      returndatasize\n      0x00\n      dup1\n      returndatacopy\n      revert(0x00, returndatasize)\n    tag_75:\n      pop\n      pop\n      pop\n      pop\n      mload(0x40)\n      returndatasize\n      not(0x1f)\n      0x1f\n      dup3\n      add\n      and\n      dup3\n      add\n      dup1\n      0x40\n      mstore\n      pop\n      dup2\n      add\n      swap1\n      tag_76\n      swap2\n      swap1\n      tag_77\n      jump\t// in\n    tag_76:\n        /* \"Staking Contract/StakingNFT.sol\":1259:1294  nft.ownerOf(_tokenId) == msg.sender */\n      0xffffffffffffffffffffffffffffffffffffffff\n      and\n      eq\n        /* \"Staking Contract/StakingNFT.sol\":1251:1329  require(nft.ownerOf(_tokenId) == msg.sender, \"NFTStaking: not owner of token\") */\n      tag_78\n      jumpi\n      mload(0x40)\n      0x08c379a000000000000000000000000000000000000000000000000000000000\n      dup2\n      mstore\n      0x04\n      add\n      tag_79\n      swap1\n      tag_80\n      jump\t// in\n    tag_79:\n      mload(0x40)\n      dup1\n      swap2\n      sub\n      swap1\n      revert\n    tag_78:\n        /* \"Staking Contract/StakingNFT.sol\":1348:1354  stakes */\n      0x02\n        /* \"Staking Contract/StakingNFT.sol\":1348:1366  stakes[msg.sender] */\n      0x00\n        /* \"Staking Contract/StakingNFT.sol\":1355:1365  msg.sender */\n      caller\n        /* \"Staking Contract/StakingNFT.sol\":1348:1366  stakes[msg.sender] */\n      0xffffffffffffffffffffffffffffffffffffffff\n      and\n      0xffffffffffffffffffffffffffffffffffffffff\n      and\n      dup2\n      mstore\n      0x20\n      add\n      swap1\n      dup2\n      mstore\n      0x20\n      add\n      0x00\n      keccak256\n        /* \"Staking Contract/StakingNFT.sol\":1348:1373  stakes[msg.sender].active */\n      0x03\n      add\n      0x00\n      swap1\n      sload\n      swap1\n      0x0100\n      exp\n      swap1\n      div\n      0xff\n      and\n        /* \"Staking Contract/StakingNFT.sol\":1347:1373  !stakes[msg.sender].active */\n      iszero\n        /* \"Staking Contract/StakingNFT.sol\":1339:1404  require(!stakes[msg.sender].active, \"NFTStaking: already staked\") */\n      tag_81\n      jumpi\n      mload(0x40)\n      0x08c379a000000000000000000000000000000000000000000000000000000000\n      dup2\n      mstore\n      0x04\n      add\n      tag_82\n      swap1\n      tag_83\n      jump\t// in\n    tag_82:\n      mload(0x40)\n      dup1\n      swap2\n      sub\n      swap1\n      revert\n    tag_81:\n        /* \"Staking Contract/StakingNFT.sol\":1459:1463  this */\n      address\n        /* \"Staking Contract/StakingNFT.sol\":1422:1464  nft.getApproved(_tokenId) == address(this) */\n      0xffffffffffffffffffffffffffffffffffffffff\n      and\n        /* \"Staking Contract/StakingNFT.sol\":1422:1425  nft */\n      0x01\n      0x00\n      swap1\n      sload\n      swap1\n      0x0100\n      exp\n      swap1\n      div\n      0xffffffffffffffffffffffffffffffffffffffff\n      and\n        /* \"Staking Contract/StakingNFT.sol\":1422:1437  nft.getApproved */\n      0xffffffffffffffffffffffffffffffffffffffff\n      and\n      0x081812fc\n        /* \"Staking Contract/StakingNFT.sol\":1438:1446  _tokenId */\n      dup4\n        /* \"Staking Contract/StakingNFT.sol\":1422:1447  nft.getApproved(_tokenId) */\n      mload(0x40)\n      dup3\n      0xffffffff\n      and\n      0xe0\n      shl\n      dup2\n      mstore\n      0x04\n      add\n      tag_84\n      swap2\n      swap1\n      tag_16\n      jump\t// in\n    tag_84:\n      0x20\n      mload(0x40)\n      dup1\n      dup4\n      sub\n      dup2\n      dup7\n      gas\n      staticcall\n      iszero\n      dup1\n      iszero\n      tag_86\n      jumpi\n      returndatasize\n      0x00\n      dup1\n      returndatacopy\n      revert(0x00, returndatasize)\n    tag_86:\n      pop\n      pop\n      pop\n      pop\n      mload(0x40)\n      returndatasize\n      not(0x1f)\n      0x1f\n      dup3\n      add\n      and\n      dup3\n      add\n      dup1\n      0x40\n      mstore\n      pop\n      dup2\n      add\n      swap1\n      tag_87\n      swap2\n      swap1\n      tag_77\n      jump\t// in\n    tag_87:\n        /* \"Staking Contract/StakingNFT.sol\":1422:1464  nft.getApproved(_tokenId) == address(this) */\n      0xffffffffffffffffffffffffffffffffffffffff\n      and\n      eq\n        /* \"Staking Contract/StakingNFT.sol\":1414:1493  require(nft.getApproved(_tokenId) == address(this), \"NFTStaking: not approved\") */\n      tag_88\n      jumpi\n      mload(0x40)\n      0x08c379a000000000000000000000000000000000000000000000000000000000\n      dup2\n      mstore\n      0x04\n      add\n      tag_89\n      swap1\n      tag_90\n      jump\t// in\n    tag_89:\n      mload(0x40)\n      dup1\n      swap2\n      sub\n      swap1\n      revert\n    tag_88:\n        /* \"Staking Contract/StakingNFT.sol\":1512:1515  nft */\n      0x01\n      0x00\n      swap1\n      sload\n      swap1\n      0x0100\n      exp\n      swap1\n      div\n      0xffffffffffffffffffffffffffffffffffffffff\n      and\n        /* \"Staking Contract/StakingNFT.sol\":1512:1532  nft.safeTransferFrom */\n      0xffffffffffffffffffffffffffffffffffffffff\n      and\n      0x42842e0e\n        /* \"Staking Contract/StakingNFT.sol\":1533:1543  msg.sender */\n      caller\n        /* \"Staking Contract/StakingNFT.sol\":1553:1557  this */\n      address\n        /* \"Staking Contract/StakingNFT.sol\":1560:1568  _tokenId */\n      dup5\n        /* \"Staking Contract/StakingNFT.sol\":1512:1569  nft.safeTransferFrom(msg.sender, address(this), _tokenId) */\n      mload(0x40)\n      dup5\n      0xffffffff\n      and\n      0xe0\n      shl\n      dup2\n      mstore\n      0x04\n      add\n      tag_91\n      swap4\n      swap3\n      swap2\n      swap1\n      tag_63\n      jump\t// in\n    tag_91:\n      0x00\n      mload(0x40)\n      dup1\n      dup4\n      sub\n      dup2\n      0x00\n      dup8\n      dup1\n      extcodesize\n      iszero\n      dup1\n      iszero\n      tag_92\n      jumpi\n      0x00\n      dup1\n      revert\n    tag_92:\n      pop\n      gas\n      call\n      iszero\n      dup1\n      iszero\n      tag_94\n      jumpi\n      returndatasize\n      0x00\n      dup1\n      returndatacopy\n      revert(0x00, returndatasize)\n    tag_94:\n      pop\n      pop\n      pop\n      pop\n        /* \"Staking Contract/StakingNFT.sol\":1600:1655  Stake(_tokenId, block.timestamp, block.timestamp, true) */\n      mload(0x40)\n      dup1\n      0x80\n      add\n      0x40\n      mstore\n      dup1\n        /* \"Staking Contract/StakingNFT.sol\":1606:1614  _tokenId */\n      dup3\n        /* \"Staking Contract/StakingNFT.sol\":1600:1655  Stake(_tokenId, block.timestamp, block.timestamp, true) */\n      dup2\n      mstore\n      0x20\n      add\n        /* \"Staking Contract/StakingNFT.sol\":1616:1631  block.timestamp */\n      timestamp\n        /* \"Staking Contract/StakingNFT.sol\":1600:1655  Stake(_tokenId, block.timestamp, block.timestamp, true) */\n      dup2\n      mstore\n      0x20\n      add\n        /* \"Staking Contract/StakingNFT.sol\":1633:1648  block.timestamp */\n      timestamp\n        /* \"Staking Contract/StakingNFT.sol\":1600:1655  Stake(_tokenId, block.timestamp, block.timestamp, true) */\n      dup2\n      mstore\n      0x20\n      add\n        /* \"Staking Contract/StakingNFT.sol\":1650:1654  true */\n      0x01\n        /* \"Staking Contract/StakingNFT.sol\":1600:1655  Stake(_tokenId, block.timestamp, block.timestamp, true) */\n      iszero\n      iszero\n      dup2\n      mstore\n      pop\n        /* \"Staking Contract/StakingNFT.sol\":1579:1585  stakes */\n      0x02\n        /* \"Staking Contract/StakingNFT.sol\":1579:1597  stakes[msg.sender] */\n      0x00\n        /* \"Staking Contract/StakingNFT.sol\":1586:1596  msg.sender */\n      caller\n        /* \"Staking Contract/StakingNFT.sol\":1579:1597  stakes[msg.sender] */\n      0xffffffffffffffffffffffffffffffffffffffff\n      and\n      0xffffffffffffffffffffffffffffffffffffffff\n      and\n      dup2\n      mstore\n      0x20\n      add\n      swap1\n      dup2\n      mstore\n      0x20\n      add\n      0x00\n      keccak256\n        /* \"Staking Contract/StakingNFT.sol\":1579:1655  stakes[msg.sender] = Stake(_tokenId, block.timestamp, block.timestamp, true) */\n      0x00\n      dup3\n      add\n      mload\n      dup2\n      0x00\n      add\n      sstore\n      0x20\n      dup3\n      add\n      mload\n      dup2\n      0x01\n      add\n      sstore\n      0x40\n      dup3\n      add\n      mload\n      dup2\n      0x02\n      add\n      sstore\n      0x60\n      dup3\n      add\n      mload\n      dup2\n      0x03\n      add\n      exp(0x0100, 0x00)\n      dup2\n      sload\n      dup2\n      0xff\n      mul\n      not\n      and\n      swap1\n      dup4\n      iszero\n      iszero\n      mul\n      or\n      swap1\n      sstore\n      pop\n      swap1\n      pop\n      pop\n        /* \"Staking Contract/StakingNFT.sol\":1690:1698  _tokenId */\n      dup1\n        /* \"Staking Contract/StakingNFT.sol\":1678:1688  msg.sender */\n      caller\n        /* \"Staking Contract/StakingNFT.sol\":1671:1716  Staked(msg.sender, _tokenId, block.timestamp) */\n      0xffffffffffffffffffffffffffffffffffffffff\n      and\n      0x1449c6dd7851abc30abf37f57715f492010519147cc2652fbc38202c18a6ee90\n        /* \"Staking Contract/StakingNFT.sol\":1700:1715  block.timestamp */\n      timestamp\n        /* \"Staking Contract/StakingNFT.sol\":1671:1716  Staked(msg.sender, _tokenId, block.timestamp) */\n      mload(0x40)\n      tag_95\n      swap2\n      swap1\n      tag_16\n      jump\t// in\n    tag_95:\n      mload(0x40)\n      dup1\n      swap2\n      sub\n      swap1\n      log3\n        /* \"@openzeppelin/contracts/security/ReentrancyGuard.sol\":2303:2323  _nonReentrantAfter() */\n      tag_96\n        /* \"@openzeppelin/contracts/security/ReentrancyGuard.sol\":2303:2321  _nonReentrantAfter */\n      tag_69\n        /* \"@openzeppelin/contracts/security/ReentrancyGuard.sol\":2303:2323  _nonReentrantAfter() */\n      jump\t// in\n    tag_96:\n        /* \"Staking Contract/StakingNFT.sol\":1186:1723  function stake(uint256 _tokenId) external nonReentrant {... */\n      pop\n      jump\t// out\n        /* \"Staking Contract/StakingNFT.sol\":2238:2572  function claimReward() external nonReentrant {... */\n    tag_46:\n        /* \"@openzeppelin/contracts/security/ReentrancyGuard.sol\":2261:2282  _nonReentrantBefore() */\n      tag_98\n        /* \"@openzeppelin/contracts/security/ReentrancyGuard.sol\":2261:2280  _nonReentrantBefore */\n      tag_50\n        /* \"@openzeppelin/contracts/security/ReentrancyGuard.sol\":2261:2282  _nonReentrantBefore() */\n      jump\t// in\n    tag_98:\n        /* \"Staking Contract/StakingNFT.sol\":2293:2312  Stake storage stake */\n      0x00\n        /* \"Staking Contract/StakingNFT.sol\":2315:2321  stakes */\n      0x02\n        /* \"Staking Contract/StakingNFT.sol\":2315:2333  stakes[msg.sender] */\n      0x00\n        /* \"Staking Contract/StakingNFT.sol\":2322:2332  msg.sender */\n      caller\n        /* \"Staking Contract/StakingNFT.sol\":2315:2333  stakes[msg.sender] */\n      0xffffffffffffffffffffffffffffffffffffffff\n      and\n      0xffffffffffffffffffffffffffffffffffffffff\n      and\n      dup2\n      mstore\n      0x20\n      add\n      swap1\n      dup2\n      mstore\n      0x20\n      add\n      0x00\n      keccak256\n        /* \"Staking Contract/StakingNFT.sol\":2293:2333  Stake storage stake = stakes[msg.sender] */\n      swap1\n      pop\n        /* \"Staking Contract/StakingNFT.sol\":2351:2356  stake */\n      dup1\n        /* \"Staking Contract/StakingNFT.sol\":2351:2363  stake.active */\n      0x03\n      add\n      0x00\n      swap1\n      sload\n      swap1\n      0x0100\n      exp\n      swap1\n      div\n      0xff\n      and\n        /* \"Staking Contract/StakingNFT.sol\":2343:2390  require(stake.active, \"NFTStaking: not staked\") */\n      tag_100\n      jumpi\n      mload(0x40)\n      0x08c379a000000000000000000000000000000000000000000000000000000000\n      dup2\n      mstore\n      0x04\n      add\n      tag_101\n      swap1\n      tag_54\n      jump\t// in\n    tag_101:\n      mload(0x40)\n      dup1\n      swap2\n      sub\n      swap1\n      revert\n    tag_100:\n        /* \"Staking Contract/StakingNFT.sol\":2401:2415  uint256 reward */\n      0x00\n        /* \"Staking Contract/StakingNFT.sol\":2418:2452  calculateReward(msg.sender, stake) */\n      tag_102\n        /* \"Staking Contract/StakingNFT.sol\":2434:2444  msg.sender */\n      caller\n        /* \"Staking Contract/StakingNFT.sol\":2446:2451  stake */\n      dup4\n        /* \"Staking Contract/StakingNFT.sol\":2418:2433  calculateReward */\n      tag_61\n        /* \"Staking Contract/StakingNFT.sol\":2418:2452  calculateReward(msg.sender, stake) */\n      jump\t// in\n    tag_102:\n        /* \"Staking Contract/StakingNFT.sol\":2401:2452  uint256 reward = calculateReward(msg.sender, stake) */\n      swap1\n      pop\n        /* \"Staking Contract/StakingNFT.sol\":2486:2501  block.timestamp */\n      timestamp\n        /* \"Staking Contract/StakingNFT.sol\":2462:2467  stake */\n      dup3\n        /* \"Staking Contract/StakingNFT.sol\":2462:2483  stake.lastClaimedTime */\n      0x02\n      add\n        /* \"Staking Contract/StakingNFT.sol\":2462:2501  stake.lastClaimedTime = block.timestamp */\n      dup2\n      swap1\n      sstore\n      pop\n        /* \"Staking Contract/StakingNFT.sol\":2543:2548  stake */\n      dup2\n        /* \"Staking Contract/StakingNFT.sol\":2543:2556  stake.tokenId */\n      0x00\n      add\n      sload\n        /* \"Staking Contract/StakingNFT.sol\":2531:2541  msg.sender */\n      caller\n        /* \"Staking Contract/StakingNFT.sol\":2517:2565  RewardClaimed(msg.sender, stake.tokenId, reward) */\n      0xffffffffffffffffffffffffffffffffffffffff\n      and\n      0xf01da32686223933d8a18a391060918c7f11a3648639edd87ae013e2e2731743\n        /* \"Staking Contract/StakingNFT.sol\":2558:2564  reward */\n      dup4\n        /* \"Staking Contract/StakingNFT.sol\":2517:2565  RewardClaimed(msg.sender, stake.tokenId, reward) */\n      mload(0x40)\n      tag_103\n      swap2\n      swap1\n      tag_16\n      jump\t// in\n    tag_103:\n      mload(0x40)\n      dup1\n      swap2\n      sub\n      swap1\n      log3\n        /* \"Staking Contract/StakingNFT.sol\":2283:2572  {... */\n      pop\n      pop\n        /* \"@openzeppelin/contracts/security/ReentrancyGuard.sol\":2303:2323  _nonReentrantAfter() */\n      tag_104\n        /* \"@openzeppelin/contracts/security/ReentrancyGuard.sol\":2303:2321  _nonReentrantAfter */\n      tag_69\n        /* \"@openzeppelin/contracts/security/ReentrancyGuard.sol\":2303:2323  _nonReentrantAfter() */\n      jump\t// in\n    tag_104:\n        /* \"Staking Contract/StakingNFT.sol\":2238:2572  function claimReward() external nonReentrant {... */\n      jump\t// out\n        /* \"@openzeppelin/contracts/security/ReentrancyGuard.sol\":2336:2623  function _nonReentrantBefore() private {... */\n    tag_50:\n        /* \"@openzeppelin/contracts/security/ReentrancyGuard.sol\":1759:1760  2 */\n      0x02\n        /* \"@openzeppelin/contracts/security/ReentrancyGuard.sol\":2468:2475  _status */\n      sload(0x00)\n        /* \"@openzeppelin/contracts/security/ReentrancyGuard.sol\":2468:2487  _status != _ENTERED */\n      sub\n        /* \"@openzeppelin/contracts/security/ReentrancyGuard.sol\":2460:2523  require(_status != _ENTERED, \"ReentrancyGuard: reentrant call\") */\n      tag_106\n      jumpi\n      mload(0x40)\n      0x08c379a000000000000000000000000000000000000000000000000000000000\n      dup2\n      mstore\n      0x04\n      add\n      tag_107\n      swap1\n      tag_108\n      jump\t// in\n    tag_107:\n      mload(0x40)\n      dup1\n      swap2\n      sub\n      swap1\n      revert\n    tag_106:\n        /* \"@openzeppelin/contracts/security/ReentrancyGuard.sol\":1759:1760  2 */\n      0x02\n        /* \"@openzeppelin/contracts/security/ReentrancyGuard.sol\":2598:2605  _status */\n      0x00\n        /* \"@openzeppelin/contracts/security/ReentrancyGuard.sol\":2598:2616  _status = _ENTERED */\n      dup2\n      swap1\n      sstore\n      pop\n        /* \"@openzeppelin/contracts/security/ReentrancyGuard.sol\":2336:2623  function _nonReentrantBefore() private {... */\n      jump\t// out\n        /* \"@openzeppelin/contracts/utils/math/SafeMath.sol\":2755:2851  function add(uint256 a, uint256 b) internal pure returns (uint256) {... */\n    tag_56:\n        /* \"@openzeppelin/contracts/utils/math/SafeMath.sol\":2813:2820  uint256 */\n      0x00\n        /* \"@openzeppelin/contracts/utils/math/SafeMath.sol\":2843:2844  b */\n      dup2\n        /* \"@openzeppelin/contracts/utils/math/SafeMath.sol\":2839:2840  a */\n      dup4\n        /* \"@openzeppelin/contracts/utils/math/SafeMath.sol\":2839:2844  a + b */\n      tag_110\n      swap2\n      swap1\n      tag_111\n      jump\t// in\n    tag_110:\n        /* \"@openzeppelin/contracts/utils/math/SafeMath.sol\":2832:2844  return a + b */\n      swap1\n      pop\n        /* \"@openzeppelin/contracts/utils/math/SafeMath.sol\":2755:2851  function add(uint256 a, uint256 b) internal pure returns (uint256) {... */\n      swap3\n      swap2\n      pop\n      pop\n      jump\t// out\n        /* \"Staking Contract/StakingNFT.sol\":2578:2886  function calculateReward(address _owner, Stake storage _stake) internal view returns (uint256) {... */\n    tag_61:\n        /* \"Staking Contract/StakingNFT.sol\":2664:2671  uint256 */\n      0x00\n        /* \"Staking Contract/StakingNFT.sol\":2683:2701  uint256 stakedTime */\n      dup1\n        /* \"Staking Contract/StakingNFT.sol\":2704:2747  block.timestamp.sub(_stake.lastClaimedTime) */\n      tag_113\n        /* \"Staking Contract/StakingNFT.sol\":2724:2730  _stake */\n      dup4\n        /* \"Staking Contract/StakingNFT.sol\":2724:2746  _stake.lastClaimedTime */\n      0x02\n      add\n      sload\n        /* \"Staking Contract/StakingNFT.sol\":2704:2719  block.timestamp */\n      timestamp\n        /* \"Staking Contract/StakingNFT.sol\":2704:2723  block.timestamp.sub */\n      tag_114\n      swap1\n        /* \"Staking Contract/StakingNFT.sol\":2704:2747  block.timestamp.sub(_stake.lastClaimedTime) */\n      swap2\n      swap1\n      0xffffffff\n      and\n      jump\t// in\n    tag_113:\n        /* \"Staking Contract/StakingNFT.sol\":2683:2747  uint256 stakedTime = block.timestamp.sub(_stake.lastClaimedTime) */\n      swap1\n      pop\n        /* \"Staking Contract/StakingNFT.sol\":2757:2771  uint256 reward */\n      0x00\n        /* \"Staking Contract/StakingNFT.sol\":2774:2855  stakedTime.mul(REWARD_RATE).mul(DECIMALS).div(MINIMUM_STAKING_TIME).div(DECIMALS) */\n      tag_115\n        /* \"Staking Contract/StakingNFT.sol\":631:634  100 */\n      0x64\n        /* \"Staking Contract/StakingNFT.sol\":2774:2841  stakedTime.mul(REWARD_RATE).mul(DECIMALS).div(MINIMUM_STAKING_TIME) */\n      tag_116\n        /* \"Staking Contract/StakingNFT.sol\":530:537  30 days */\n      0x278d00\n        /* \"Staking Contract/StakingNFT.sol\":2774:2815  stakedTime.mul(REWARD_RATE).mul(DECIMALS) */\n      tag_117\n        /* \"Staking Contract/StakingNFT.sol\":631:634  100 */\n      0x64\n        /* \"Staking Contract/StakingNFT.sol\":2774:2801  stakedTime.mul(REWARD_RATE) */\n      tag_118\n        /* \"Staking Contract/StakingNFT.sol\":581:583  10 */\n      0x0a\n        /* \"Staking Contract/StakingNFT.sol\":2774:2784  stakedTime */\n      dup10\n        /* \"Staking Contract/StakingNFT.sol\":2774:2788  stakedTime.mul */\n      tag_119\n      swap1\n        /* \"Staking Contract/StakingNFT.sol\":2774:2801  stakedTime.mul(REWARD_RATE) */\n      swap2\n      swap1\n      0xffffffff\n      and\n      jump\t// in\n    tag_118:\n        /* \"Staking Contract/StakingNFT.sol\":2774:2805  stakedTime.mul(REWARD_RATE).mul */\n      tag_119\n      swap1\n        /* \"Staking Contract/StakingNFT.sol\":2774:2815  stakedTime.mul(REWARD_RATE).mul(DECIMALS) */\n      swap2\n      swap1\n      0xffffffff\n      and\n      jump\t// in\n    tag_117:\n        /* \"Staking Contract/StakingNFT.sol\":2774:2819  stakedTime.mul(REWARD_RATE).mul(DECIMALS).div */\n      tag_120\n      swap1\n        /* \"Staking Contract/StakingNFT.sol\":2774:2841  stakedTime.mul(REWARD_RATE).mul(DECIMALS).div(MINIMUM_STAKING_TIME) */\n      swap2\n      swap1\n      0xffffffff\n      and\n      jump\t// in\n    tag_116:\n        /* \"Staking Contract/StakingNFT.sol\":2774:2845  stakedTime.mul(REWARD_RATE).mul(DECIMALS).div(MINIMUM_STAKING_TIME).div */\n      tag_120\n      swap1\n        /* \"Staking Contract/StakingNFT.sol\":2774:2855  stakedTime.mul(REWARD_RATE).mul(DECIMALS).div(MINIMUM_STAKING_TIME).div(DECIMALS) */\n      swap2\n      swap1\n      0xffffffff\n      and\n      jump\t// in\n    tag_115:\n        /* \"Staking Contract/StakingNFT.sol\":2757:2855  uint256 reward = stakedTime.mul(REWARD_RATE).mul(DECIMALS).div(MINIMUM_STAKING_TIME).div(DECIMALS) */\n      swap1\n      pop\n        /* \"Staking Contract/StakingNFT.sol\":2873:2879  reward */\n      dup1\n        /* \"Staking Contract/StakingNFT.sol\":2866:2879  return reward */\n      swap3\n      pop\n      pop\n      pop\n        /* \"Staking Contract/StakingNFT.sol\":2578:2886  function calculateReward(address _owner, Stake storage _stake) internal view returns (uint256) {... */\n      swap3\n      swap2\n      pop\n      pop\n      jump\t// out\n        /* \"@openzeppelin/contracts/security/ReentrancyGuard.sol\":2629:2838  function _nonReentrantAfter() private {... */\n    tag_69:\n        /* \"@openzeppelin/contracts/security/ReentrancyGuard.sol\":1716:1717  1 */\n      0x01\n        /* \"@openzeppelin/contracts/security/ReentrancyGuard.sol\":2809:2816  _status */\n      0x00\n        /* \"@openzeppelin/contracts/security/ReentrancyGuard.sol\":2809:2831  _status = _NOT_ENTERED */\n      dup2\n      swap1\n      sstore\n      pop\n        /* \"@openzeppelin/contracts/security/ReentrancyGuard.sol\":2629:2838  function _nonReentrantAfter() private {... */\n      jump\t// out\n        /* \"@openzeppelin/contracts/utils/math/SafeMath.sol\":3122:3218  function sub(uint256 a, uint256 b) internal pure returns (uint256) {... */\n    tag_114:\n        /* \"@openzeppelin/contracts/utils/math/SafeMath.sol\":3180:3187  uint256 */\n      0x00\n        /* \"@openzeppelin/contracts/utils/math/SafeMath.sol\":3210:3211  b */\n      dup2\n        /* \"@openzeppelin/contracts/utils/math/SafeMath.sol\":3206:3207  a */\n      dup4\n        /* \"@openzeppelin/contracts/utils/math/SafeMath.sol\":3206:3211  a - b */\n      tag_123\n      swap2\n      swap1\n      tag_124\n      jump\t// in\n    tag_123:\n        /* \"@openzeppelin/contracts/utils/math/SafeMath.sol\":3199:3211  return a - b */\n      swap1\n      pop\n        /* \"@openzeppelin/contracts/utils/math/SafeMath.sol\":3122:3218  function sub(uint256 a, uint256 b) internal pure returns (uint256) {... */\n      swap3\n      swap2\n      pop\n      pop\n      jump\t// out\n        /* \"@openzeppelin/contracts/utils/math/SafeMath.sol\":3465:3561  function mul(uint256 a, uint256 b) internal pure returns (uint256) {... */\n    tag_119:\n        /* \"@openzeppelin/contracts/utils/math/SafeMath.sol\":3523:3530  uint256 */\n      0x00\n        /* \"@openzeppelin/contracts/utils/math/SafeMath.sol\":3553:3554  b */\n      dup2\n        /* \"@openzeppelin/contracts/utils/math/SafeMath.sol\":3549:3550  a */\n      dup4\n        /* \"@openzeppelin/contracts/utils/math/SafeMath.sol\":3549:3554  a * b */\n      tag_126\n      swap2\n      swap1\n      tag_127\n      jump\t// in\n    tag_126:\n        /* \"@openzeppelin/contracts/utils/math/SafeMath.sol\":3542:3554  return a * b */\n      swap1\n      pop\n        /* \"@openzeppelin/contracts/utils/math/SafeMath.sol\":3465:3561  function mul(uint256 a, uint256 b) internal pure returns (uint256) {... */\n      swap3\n      swap2\n      pop\n      pop\n      jump\t// out\n        /* \"@openzeppelin/contracts/utils/math/SafeMath.sol\":3850:3946  function div(uint256 a, uint256 b) internal pure returns (uint256) {... */\n    tag_120:\n        /* \"@openzeppelin/contracts/utils/math/SafeMath.sol\":3908:3915  uint256 */\n      0x00\n        /* \"@openzeppelin/contracts/utils/math/SafeMath.sol\":3938:3939  b */\n      dup2\n        /* \"@openzeppelin/contracts/utils/math/SafeMath.sol\":3934:3935  a */\n      dup4\n        /* \"@openzeppelin/contracts/utils/math/SafeMath.sol\":3934:3939  a / b */\n      tag_129\n      swap2\n      swap1\n      tag_130\n      jump\t// in\n    tag_129:\n        /* \"@openzeppelin/contracts/utils/math/SafeMath.sol\":3927:3939  return a / b */\n      swap1\n      pop\n        /* \"@openzeppelin/contracts/utils/math/SafeMath.sol\":3850:3946  function div(uint256 a, uint256 b) internal pure returns (uint256) {... */\n      swap3\n      swap2\n      pop\n      pop\n      jump\t// out\n        /* \"#utility.yul\":7:84   */\n    tag_131:\n        /* \"#utility.yul\":44:51   */\n      0x00\n        /* \"#utility.yul\":73:78   */\n      dup2\n        /* \"#utility.yul\":62:78   */\n      swap1\n      pop\n        /* \"#utility.yul\":7:84   */\n      swap2\n      swap1\n      pop\n      jump\t// out\n        /* \"#utility.yul\":90:208   */\n    tag_132:\n        /* \"#utility.yul\":177:201   */\n      tag_175\n        /* \"#utility.yul\":195:200   */\n      dup2\n        /* \"#utility.yul\":177:201   */\n      tag_131\n      jump\t// in\n    tag_175:\n        /* \"#utility.yul\":172:175   */\n      dup3\n        /* \"#utility.yul\":165:202   */\n      mstore\n        /* \"#utility.yul\":90:208   */\n      pop\n      pop\n      jump\t// out\n        /* \"#utility.yul\":214:436   */\n    tag_16:\n        /* \"#utility.yul\":307:311   */\n      0x00\n        /* \"#utility.yul\":345:347   */\n      0x20\n        /* \"#utility.yul\":334:343   */\n      dup3\n        /* \"#utility.yul\":330:348   */\n      add\n        /* \"#utility.yul\":322:348   */\n      swap1\n      pop\n        /* \"#utility.yul\":358:429   */\n      tag_177\n        /* \"#utility.yul\":426:427   */\n      0x00\n        /* \"#utility.yul\":415:424   */\n      dup4\n        /* \"#utility.yul\":411:428   */\n      add\n        /* \"#utility.yul\":402:408   */\n      dup5\n        /* \"#utility.yul\":358:429   */\n      tag_132\n      jump\t// in\n    tag_177:\n        /* \"#utility.yul\":214:436   */\n      swap3\n      swap2\n      pop\n      pop\n      jump\t// out\n        /* \"#utility.yul\":523:640   */\n    tag_134:\n        /* \"#utility.yul\":632:633   */\n      0x00\n        /* \"#utility.yul\":629:630   */\n      dup1\n        /* \"#utility.yul\":622:634   */\n      revert\n        /* \"#utility.yul\":646:763   */\n    tag_135:\n        /* \"#utility.yul\":755:756   */\n      0x00\n        /* \"#utility.yul\":752:753   */\n      dup1\n        /* \"#utility.yul\":745:757   */\n      revert\n        /* \"#utility.yul\":769:895   */\n    tag_136:\n        /* \"#utility.yul\":806:813   */\n      0x00\n        /* \"#utility.yul\":846:888   */\n      0xffffffffffffffffffffffffffffffffffffffff\n        /* \"#utility.yul\":839:844   */\n      dup3\n        /* \"#utility.yul\":835:889   */\n      and\n        /* \"#utility.yul\":824:889   */\n      swap1\n      pop\n        /* \"#utility.yul\":769:895   */\n      swap2\n      swap1\n      pop\n      jump\t// out\n        /* \"#utility.yul\":901:997   */\n    tag_137:\n        /* \"#utility.yul\":938:945   */\n      0x00\n        /* \"#utility.yul\":967:991   */\n      tag_183\n        /* \"#utility.yul\":985:990   */\n      dup3\n        /* \"#utility.yul\":967:991   */\n      tag_136\n      jump\t// in\n    tag_183:\n        /* \"#utility.yul\":956:991   */\n      swap1\n      pop\n        /* \"#utility.yul\":901:997   */\n      swap2\n      swap1\n      pop\n      jump\t// out\n        /* \"#utility.yul\":1003:1125   */\n    tag_138:\n        /* \"#utility.yul\":1076:1100   */\n      tag_185\n        /* \"#utility.yul\":1094:1099   */\n      dup2\n        /* \"#utility.yul\":1076:1100   */\n      tag_137\n      jump\t// in\n    tag_185:\n        /* \"#utility.yul\":1069:1074   */\n      dup2\n        /* \"#utility.yul\":1066:1101   */\n      eq\n        /* \"#utility.yul\":1056:1119   */\n      tag_186\n      jumpi\n        /* \"#utility.yul\":1115:1116   */\n      0x00\n        /* \"#utility.yul\":1112:1113   */\n      dup1\n        /* \"#utility.yul\":1105:1117   */\n      revert\n        /* \"#utility.yul\":1056:1119   */\n    tag_186:\n        /* \"#utility.yul\":1003:1125   */\n      pop\n      jump\t// out\n        /* \"#utility.yul\":1131:1270   */\n    tag_139:\n        /* \"#utility.yul\":1177:1182   */\n      0x00\n        /* \"#utility.yul\":1215:1221   */\n      dup2\n        /* \"#utility.yul\":1202:1222   */\n      calldataload\n        /* \"#utility.yul\":1193:1222   */\n      swap1\n      pop\n        /* \"#utility.yul\":1231:1264   */\n      tag_188\n        /* \"#utility.yul\":1258:1263   */\n      dup2\n        /* \"#utility.yul\":1231:1264   */\n      tag_138\n      jump\t// in\n    tag_188:\n        /* \"#utility.yul\":1131:1270   */\n      swap3\n      swap2\n      pop\n      pop\n      jump\t// out\n        /* \"#utility.yul\":1276:1398   */\n    tag_140:\n        /* \"#utility.yul\":1349:1373   */\n      tag_190\n        /* \"#utility.yul\":1367:1372   */\n      dup2\n        /* \"#utility.yul\":1349:1373   */\n      tag_131\n      jump\t// in\n    tag_190:\n        /* \"#utility.yul\":1342:1347   */\n      dup2\n        /* \"#utility.yul\":1339:1374   */\n      eq\n        /* \"#utility.yul\":1329:1392   */\n      tag_191\n      jumpi\n        /* \"#utility.yul\":1388:1389   */\n      0x00\n        /* \"#utility.yul\":1385:1386   */\n      dup1\n        /* \"#utility.yul\":1378:1390   */\n      revert\n        /* \"#utility.yul\":1329:1392   */\n    tag_191:\n        /* \"#utility.yul\":1276:1398   */\n      pop\n      jump\t// out\n        /* \"#utility.yul\":1404:1543   */\n    tag_141:\n        /* \"#utility.yul\":1450:1455   */\n      0x00\n        /* \"#utility.yul\":1488:1494   */\n      dup2\n        /* \"#utility.yul\":1475:1495   */\n      calldataload\n        /* \"#utility.yul\":1466:1495   */\n      swap1\n      pop\n        /* \"#utility.yul\":1504:1537   */\n      tag_193\n        /* \"#utility.yul\":1531:1536   */\n      dup2\n        /* \"#utility.yul\":1504:1537   */\n      tag_140\n      jump\t// in\n    tag_193:\n        /* \"#utility.yul\":1404:1543   */\n      swap3\n      swap2\n      pop\n      pop\n      jump\t// out\n        /* \"#utility.yul\":1549:1666   */\n    tag_142:\n        /* \"#utility.yul\":1658:1659   */\n      0x00\n        /* \"#utility.yul\":1655:1656   */\n      dup1\n        /* \"#utility.yul\":1648:1660   */\n      revert\n        /* \"#utility.yul\":1672:1789   */\n    tag_143:\n        /* \"#utility.yul\":1781:1782   */\n      0x00\n        /* \"#utility.yul\":1778:1779   */\n      dup1\n        /* \"#utility.yul\":1771:1783   */\n      revert\n        /* \"#utility.yul\":1795:1912   */\n    tag_144:\n        /* \"#utility.yul\":1904:1905   */\n      0x00\n        /* \"#utility.yul\":1901:1902   */\n      dup1\n        /* \"#utility.yul\":1894:1906   */\n      revert\n        /* \"#utility.yul\":1931:2483   */\n    tag_145:\n        /* \"#utility.yul\":1988:1996   */\n      0x00\n        /* \"#utility.yul\":1998:2004   */\n      dup1\n        /* \"#utility.yul\":2048:2051   */\n      dup4\n        /* \"#utility.yul\":2041:2045   */\n      0x1f\n        /* \"#utility.yul\":2033:2039   */\n      dup5\n        /* \"#utility.yul\":2029:2046   */\n      add\n        /* \"#utility.yul\":2025:2052   */\n      slt\n        /* \"#utility.yul\":2015:2137   */\n      tag_198\n      jumpi\n        /* \"#utility.yul\":2056:2135   */\n      tag_199\n      tag_142\n      jump\t// in\n    tag_199:\n        /* \"#utility.yul\":2015:2137   */\n    tag_198:\n        /* \"#utility.yul\":2169:2175   */\n      dup3\n        /* \"#utility.yul\":2156:2176   */\n      calldataload\n        /* \"#utility.yul\":2146:2176   */\n      swap1\n      pop\n        /* \"#utility.yul\":2199:2217   */\n      0xffffffffffffffff\n        /* \"#utility.yul\":2191:2197   */\n      dup2\n        /* \"#utility.yul\":2188:2218   */\n      gt\n        /* \"#utility.yul\":2185:2302   */\n      iszero\n      tag_200\n      jumpi\n        /* \"#utility.yul\":2221:2300   */\n      tag_201\n      tag_143\n      jump\t// in\n    tag_201:\n        /* \"#utility.yul\":2185:2302   */\n    tag_200:\n        /* \"#utility.yul\":2335:2339   */\n      0x20\n        /* \"#utility.yul\":2327:2333   */\n      dup4\n        /* \"#utility.yul\":2323:2340   */\n      add\n        /* \"#utility.yul\":2311:2340   */\n      swap2\n      pop\n        /* \"#utility.yul\":2389:2392   */\n      dup4\n        /* \"#utility.yul\":2381:2385   */\n      0x01\n        /* \"#utility.yul\":2373:2379   */\n      dup3\n        /* \"#utility.yul\":2369:2386   */\n      mul\n        /* \"#utility.yul\":2359:2367   */\n      dup4\n        /* \"#utility.yul\":2355:2387   */\n      add\n        /* \"#utility.yul\":2352:2393   */\n      gt\n        /* \"#utility.yul\":2349:2477   */\n      iszero\n      tag_202\n      jumpi\n        /* \"#utility.yul\":2396:2475   */\n      tag_203\n      tag_144\n      jump\t// in\n    tag_203:\n        /* \"#utility.yul\":2349:2477   */\n    tag_202:\n        /* \"#utility.yul\":1931:2483   */\n      swap3\n      pop\n      swap3\n      swap1\n      pop\n      jump\t// out\n        /* \"#utility.yul\":2489:3452   */\n    tag_19:\n        /* \"#utility.yul\":2586:2592   */\n      0x00\n        /* \"#utility.yul\":2594:2600   */\n      dup1\n        /* \"#utility.yul\":2602:2608   */\n      0x00\n        /* \"#utility.yul\":2610:2616   */\n      dup1\n        /* \"#utility.yul\":2618:2624   */\n      0x00\n        /* \"#utility.yul\":2667:2670   */\n      0x80\n        /* \"#utility.yul\":2655:2664   */\n      dup7\n        /* \"#utility.yul\":2646:2653   */\n      dup9\n        /* \"#utility.yul\":2642:2665   */\n      sub\n        /* \"#utility.yul\":2638:2671   */\n      slt\n        /* \"#utility.yul\":2635:2755   */\n      iszero\n      tag_205\n      jumpi\n        /* \"#utility.yul\":2674:2753   */\n      tag_206\n      tag_134\n      jump\t// in\n    tag_206:\n        /* \"#utility.yul\":2635:2755   */\n    tag_205:\n        /* \"#utility.yul\":2794:2795   */\n      0x00\n        /* \"#utility.yul\":2819:2872   */\n      tag_207\n        /* \"#utility.yul\":2864:2871   */\n      dup9\n        /* \"#utility.yul\":2855:2861   */\n      dup3\n        /* \"#utility.yul\":2844:2853   */\n      dup10\n        /* \"#utility.yul\":2840:2862   */\n      add\n        /* \"#utility.yul\":2819:2872   */\n      tag_139\n      jump\t// in\n    tag_207:\n        /* \"#utility.yul\":2809:2872   */\n      swap6\n      pop\n        /* \"#utility.yul\":2765:2882   */\n      pop\n        /* \"#utility.yul\":2921:2923   */\n      0x20\n        /* \"#utility.yul\":2947:3000   */\n      tag_208\n        /* \"#utility.yul\":2992:2999   */\n      dup9\n        /* \"#utility.yul\":2983:2989   */\n      dup3\n        /* \"#utility.yul\":2972:2981   */\n      dup10\n        /* \"#utility.yul\":2968:2990   */\n      add\n        /* \"#utility.yul\":2947:3000   */\n      tag_139\n      jump\t// in\n    tag_208:\n        /* \"#utility.yul\":2937:3000   */\n      swap5\n      pop\n        /* \"#utility.yul\":2892:3010   */\n      pop\n        /* \"#utility.yul\":3049:3051   */\n      0x40\n        /* \"#utility.yul\":3075:3128   */\n      tag_209\n        /* \"#utility.yul\":3120:3127   */\n      dup9\n        /* \"#utility.yul\":3111:3117   */\n      dup3\n        /* \"#utility.yul\":3100:3109   */\n      dup10\n        /* \"#utility.yul\":3096:3118   */\n      add\n        /* \"#utility.yul\":3075:3128   */\n      tag_141\n      jump\t// in\n    tag_209:\n        /* \"#utility.yul\":3065:3128   */\n      swap4\n      pop\n        /* \"#utility.yul\":3020:3138   */\n      pop\n        /* \"#utility.yul\":3205:3207   */\n      0x60\n        /* \"#utility.yul\":3194:3203   */\n      dup7\n        /* \"#utility.yul\":3190:3208   */\n      add\n        /* \"#utility.yul\":3177:3209   */\n      calldataload\n        /* \"#utility.yul\":3236:3254   */\n      0xffffffffffffffff\n        /* \"#utility.yul\":3228:3234   */\n      dup2\n        /* \"#utility.yul\":3225:3255   */\n      gt\n        /* \"#utility.yul\":3222:3339   */\n      iszero\n      tag_210\n      jumpi\n        /* \"#utility.yul\":3258:3337   */\n      tag_211\n      tag_135\n      jump\t// in\n    tag_211:\n        /* \"#utility.yul\":3222:3339   */\n    tag_210:\n        /* \"#utility.yul\":3371:3435   */\n      tag_212\n        /* \"#utility.yul\":3427:3434   */\n      dup9\n        /* \"#utility.yul\":3418:3424   */\n      dup3\n        /* \"#utility.yul\":3407:3416   */\n      dup10\n        /* \"#utility.yul\":3403:3425   */\n      add\n        /* \"#utility.yul\":3371:3435   */\n      tag_145\n      jump\t// in\n    tag_212:\n        /* \"#utility.yul\":3353:3435   */\n      swap3\n      pop\n      swap3\n      pop\n        /* \"#utility.yul\":3148:3445   */\n      pop\n        /* \"#utility.yul\":2489:3452   */\n      swap3\n      swap6\n      pop\n      swap3\n      swap6\n      swap1\n      swap4\n      pop\n      jump\t// out\n        /* \"#utility.yul\":3458:3607   */\n    tag_146:\n        /* \"#utility.yul\":3494:3501   */\n      0x00\n        /* \"#utility.yul\":3534:3600   */\n      0xffffffff00000000000000000000000000000000000000000000000000000000\n        /* \"#utility.yul\":3527:3532   */\n      dup3\n        /* \"#utility.yul\":3523:3601   */\n      and\n        /* \"#utility.yul\":3512:3601   */\n      swap1\n      pop\n        /* \"#utility.yul\":3458:3607   */\n      swap2\n      swap1\n      pop\n      jump\t// out\n        /* \"#utility.yul\":3613:3728   */\n    tag_147:\n        /* \"#utility.yul\":3698:3721   */\n      tag_215\n        /* \"#utility.yul\":3715:3720   */\n      dup2\n        /* \"#utility.yul\":3698:3721   */\n      tag_146\n      jump\t// in\n    tag_215:\n        /* \"#utility.yul\":3693:3696   */\n      dup3\n        /* \"#utility.yul\":3686:3722   */\n      mstore\n        /* \"#utility.yul\":3613:3728   */\n      pop\n      pop\n      jump\t// out\n        /* \"#utility.yul\":3734:3952   */\n    tag_22:\n        /* \"#utility.yul\":3825:3829   */\n      0x00\n        /* \"#utility.yul\":3863:3865   */\n      0x20\n        /* \"#utility.yul\":3852:3861   */\n      dup3\n        /* \"#utility.yul\":3848:3866   */\n      add\n        /* \"#utility.yul\":3840:3866   */\n      swap1\n      pop\n        /* \"#utility.yul\":3876:3945   */\n      tag_217\n        /* \"#utility.yul\":3942:3943   */\n      0x00\n        /* \"#utility.yul\":3931:3940   */\n      dup4\n        /* \"#utility.yul\":3927:3944   */\n      add\n        /* \"#utility.yul\":3918:3924   */\n      dup5\n        /* \"#utility.yul\":3876:3945   */\n      tag_147\n      jump\t// in\n    tag_217:\n        /* \"#utility.yul\":3734:3952   */\n      swap3\n      swap2\n      pop\n      pop\n      jump\t// out\n        /* \"#utility.yul\":3958:4287   */\n    tag_25:\n        /* \"#utility.yul\":4017:4023   */\n      0x00\n        /* \"#utility.yul\":4066:4068   */\n      0x20\n        /* \"#utility.yul\":4054:4063   */\n      dup3\n        /* \"#utility.yul\":4045:4052   */\n      dup5\n        /* \"#utility.yul\":4041:4064   */\n      sub\n        /* \"#utility.yul\":4037:4069   */\n      slt\n        /* \"#utility.yul\":4034:4153   */\n      iszero\n      tag_219\n      jumpi\n        /* \"#utility.yul\":4072:4151   */\n      tag_220\n      tag_134\n      jump\t// in\n    tag_220:\n        /* \"#utility.yul\":4034:4153   */\n    tag_219:\n        /* \"#utility.yul\":4192:4193   */\n      0x00\n        /* \"#utility.yul\":4217:4270   */\n      tag_221\n        /* \"#utility.yul\":4262:4269   */\n      dup5\n        /* \"#utility.yul\":4253:4259   */\n      dup3\n        /* \"#utility.yul\":4242:4251   */\n      dup6\n        /* \"#utility.yul\":4238:4260   */\n      add\n        /* \"#utility.yul\":4217:4270   */\n      tag_139\n      jump\t// in\n    tag_221:\n        /* \"#utility.yul\":4207:4270   */\n      swap2\n      pop\n        /* \"#utility.yul\":4163:4280   */\n      pop\n        /* \"#utility.yul\":3958:4287   */\n      swap3\n      swap2\n      pop\n      pop\n      jump\t// out\n        /* \"#utility.yul\":4293:4383   */\n    tag_148:\n        /* \"#utility.yul\":4327:4334   */\n      0x00\n        /* \"#utility.yul\":4370:4375   */\n      dup2\n        /* \"#utility.yul\":4363:4376   */\n      iszero\n        /* \"#utility.yul\":4356:4377   */\n      iszero\n        /* \"#utility.yul\":4345:4377   */\n      swap1\n      pop\n        /* \"#utility.yul\":4293:4383   */\n      swap2\n      swap1\n      pop\n      jump\t// out\n        /* \"#utility.yul\":4389:4498   */\n    tag_149:\n        /* \"#utility.yul\":4470:4491   */\n      tag_224\n        /* \"#utility.yul\":4485:4490   */\n      dup2\n        /* \"#utility.yul\":4470:4491   */\n      tag_148\n      jump\t// in\n    tag_224:\n        /* \"#utility.yul\":4465:4468   */\n      dup3\n        /* \"#utility.yul\":4458:4492   */\n      mstore\n        /* \"#utility.yul\":4389:4498   */\n      pop\n      pop\n      jump\t// out\n        /* \"#utility.yul\":4504:5045   */\n    tag_28:\n        /* \"#utility.yul\":4675:4679   */\n      0x00\n        /* \"#utility.yul\":4713:4716   */\n      0x80\n        /* \"#utility.yul\":4702:4711   */\n      dup3\n        /* \"#utility.yul\":4698:4717   */\n      add\n        /* \"#utility.yul\":4690:4717   */\n      swap1\n      pop\n        /* \"#utility.yul\":4727:4798   */\n      tag_226\n        /* \"#utility.yul\":4795:4796   */\n      0x00\n        /* \"#utility.yul\":4784:4793   */\n      dup4\n        /* \"#utility.yul\":4780:4797   */\n      add\n        /* \"#utility.yul\":4771:4777   */\n      dup8\n        /* \"#utility.yul\":4727:4798   */\n      tag_132\n      jump\t// in\n    tag_226:\n        /* \"#utility.yul\":4808:4880   */\n      tag_227\n        /* \"#utility.yul\":4876:4878   */\n      0x20\n        /* \"#utility.yul\":4865:4874   */\n      dup4\n        /* \"#utility.yul\":4861:4879   */\n      add\n        /* \"#utility.yul\":4852:4858   */\n      dup7\n        /* \"#utility.yul\":4808:4880   */\n      tag_132\n      jump\t// in\n    tag_227:\n        /* \"#utility.yul\":4890:4962   */\n      tag_228\n        /* \"#utility.yul\":4958:4960   */\n      0x40\n        /* \"#utility.yul\":4947:4956   */\n      dup4\n        /* \"#utility.yul\":4943:4961   */\n      add\n        /* \"#utility.yul\":4934:4940   */\n      dup6\n        /* \"#utility.yul\":4890:4962   */\n      tag_132\n      jump\t// in\n    tag_228:\n        /* \"#utility.yul\":4972:5038   */\n      tag_229\n        /* \"#utility.yul\":5034:5036   */\n      0x60\n        /* \"#utility.yul\":5023:5032   */\n      dup4\n        /* \"#utility.yul\":5019:5037   */\n      add\n        /* \"#utility.yul\":5010:5016   */\n      dup5\n        /* \"#utility.yul\":4972:5038   */\n      tag_149\n      jump\t// in\n    tag_229:\n        /* \"#utility.yul\":4504:5045   */\n      swap6\n      swap5\n      pop\n      pop\n      pop\n      pop\n      pop\n      jump\t// out\n        /* \"#utility.yul\":5051:5111   */\n    tag_150:\n        /* \"#utility.yul\":5079:5082   */\n      0x00\n        /* \"#utility.yul\":5100:5105   */\n      dup2\n        /* \"#utility.yul\":5093:5105   */\n      swap1\n      pop\n        /* \"#utility.yul\":5051:5111   */\n      swap2\n      swap1\n      pop\n      jump\t// out\n        /* \"#utility.yul\":5117:5259   */\n    tag_151:\n        /* \"#utility.yul\":5167:5176   */\n      0x00\n        /* \"#utility.yul\":5200:5253   */\n      tag_232\n        /* \"#utility.yul\":5218:5252   */\n      tag_233\n        /* \"#utility.yul\":5227:5251   */\n      tag_234\n        /* \"#utility.yul\":5245:5250   */\n      dup5\n        /* \"#utility.yul\":5227:5251   */\n      tag_136\n      jump\t// in\n    tag_234:\n        /* \"#utility.yul\":5218:5252   */\n      tag_150\n      jump\t// in\n    tag_233:\n        /* \"#utility.yul\":5200:5253   */\n      tag_136\n      jump\t// in\n    tag_232:\n        /* \"#utility.yul\":5187:5253   */\n      swap1\n      pop\n        /* \"#utility.yul\":5117:5259   */\n      swap2\n      swap1\n      pop\n      jump\t// out\n        /* \"#utility.yul\":5265:5391   */\n    tag_152:\n        /* \"#utility.yul\":5315:5324   */\n      0x00\n        /* \"#utility.yul\":5348:5385   */\n      tag_236\n        /* \"#utility.yul\":5379:5384   */\n      dup3\n        /* \"#utility.yul\":5348:5385   */\n      tag_151\n      jump\t// in\n    tag_236:\n        /* \"#utility.yul\":5335:5385   */\n      swap1\n      pop\n        /* \"#utility.yul\":5265:5391   */\n      swap2\n      swap1\n      pop\n      jump\t// out\n        /* \"#utility.yul\":5397:5538   */\n    tag_153:\n        /* \"#utility.yul\":5462:5471   */\n      0x00\n        /* \"#utility.yul\":5495:5532   */\n      tag_238\n        /* \"#utility.yul\":5526:5531   */\n      dup3\n        /* \"#utility.yul\":5495:5532   */\n      tag_152\n      jump\t// in\n    tag_238:\n        /* \"#utility.yul\":5482:5532   */\n      swap1\n      pop\n        /* \"#utility.yul\":5397:5538   */\n      swap2\n      swap1\n      pop\n      jump\t// out\n        /* \"#utility.yul\":5544:5705   */\n    tag_154:\n        /* \"#utility.yul\":5646:5698   */\n      tag_240\n        /* \"#utility.yul\":5692:5697   */\n      dup2\n        /* \"#utility.yul\":5646:5698   */\n      tag_153\n      jump\t// in\n    tag_240:\n        /* \"#utility.yul\":5641:5644   */\n      dup3\n        /* \"#utility.yul\":5634:5699   */\n      mstore\n        /* \"#utility.yul\":5544:5705   */\n      pop\n      pop\n      jump\t// out\n        /* \"#utility.yul\":5711:5963   */\n    tag_37:\n        /* \"#utility.yul\":5819:5823   */\n      0x00\n        /* \"#utility.yul\":5857:5859   */\n      0x20\n        /* \"#utility.yul\":5846:5855   */\n      dup3\n        /* \"#utility.yul\":5842:5860   */\n      add\n        /* \"#utility.yul\":5834:5860   */\n      swap1\n      pop\n        /* \"#utility.yul\":5870:5956   */\n      tag_242\n        /* \"#utility.yul\":5953:5954   */\n      0x00\n        /* \"#utility.yul\":5942:5951   */\n      dup4\n        /* \"#utility.yul\":5938:5955   */\n      add\n        /* \"#utility.yul\":5929:5935   */\n      dup5\n        /* \"#utility.yul\":5870:5956   */\n      tag_154\n      jump\t// in\n    tag_242:\n        /* \"#utility.yul\":5711:5963   */\n      swap3\n      swap2\n      pop\n      pop\n      jump\t// out\n        /* \"#utility.yul\":5969:6298   */\n    tag_43:\n        /* \"#utility.yul\":6028:6034   */\n      0x00\n        /* \"#utility.yul\":6077:6079   */\n      0x20\n        /* \"#utility.yul\":6065:6074   */\n      dup3\n        /* \"#utility.yul\":6056:6063   */\n      dup5\n        /* \"#utility.yul\":6052:6075   */\n      sub\n        /* \"#utility.yul\":6048:6080   */\n      slt\n        /* \"#utility.yul\":6045:6164   */\n      iszero\n      tag_244\n      jumpi\n        /* \"#utility.yul\":6083:6162   */\n      tag_245\n      tag_134\n      jump\t// in\n    tag_245:\n        /* \"#utility.yul\":6045:6164   */\n    tag_244:\n        /* \"#utility.yul\":6203:6204   */\n      0x00\n        /* \"#utility.yul\":6228:6281   */\n      tag_246\n        /* \"#utility.yul\":6273:6280   */\n      dup5\n        /* \"#utility.yul\":6264:6270   */\n      dup3\n        /* \"#utility.yul\":6253:6262   */\n      dup6\n        /* \"#utility.yul\":6249:6271   */\n      add\n        /* \"#utility.yul\":6228:6281   */\n      tag_141\n      jump\t// in\n    tag_246:\n        /* \"#utility.yul\":6218:6281   */\n      swap2\n      pop\n        /* \"#utility.yul\":6174:6291   */\n      pop\n        /* \"#utility.yul\":5969:6298   */\n      swap3\n      swap2\n      pop\n      pop\n      jump\t// out\n        /* \"#utility.yul\":6304:6473   */\n    tag_155:\n        /* \"#utility.yul\":6388:6399   */\n      0x00\n        /* \"#utility.yul\":6422:6428   */\n      dup3\n        /* \"#utility.yul\":6417:6420   */\n      dup3\n        /* \"#utility.yul\":6410:6429   */\n      mstore\n        /* \"#utility.yul\":6462:6466   */\n      0x20\n        /* \"#utility.yul\":6457:6460   */\n      dup3\n        /* \"#utility.yul\":6453:6467   */\n      add\n        /* \"#utility.yul\":6438:6467   */\n      swap1\n      pop\n        /* \"#utility.yul\":6304:6473   */\n      swap3\n      swap2\n      pop\n      pop\n      jump\t// out\n        /* \"#utility.yul\":6479:6651   */\n    tag_156:\n        /* \"#utility.yul\":6619:6643   */\n      0x4e46545374616b696e673a206e6f74207374616b656400000000000000000000\n        /* \"#utility.yul\":6615:6616   */\n      0x00\n        /* \"#utility.yul\":6607:6613   */\n      dup3\n        /* \"#utility.yul\":6603:6617   */\n      add\n        /* \"#utility.yul\":6596:6644   */\n      mstore\n        /* \"#utility.yul\":6479:6651   */\n      pop\n      jump\t// out\n        /* \"#utility.yul\":6657:7023   */\n    tag_157:\n        /* \"#utility.yul\":6799:6802   */\n      0x00\n        /* \"#utility.yul\":6820:6887   */\n      tag_250\n        /* \"#utility.yul\":6884:6886   */\n      0x16\n        /* \"#utility.yul\":6879:6882   */\n      dup4\n        /* \"#utility.yul\":6820:6887   */\n      tag_155\n      jump\t// in\n    tag_250:\n        /* \"#utility.yul\":6813:6887   */\n      swap2\n      pop\n        /* \"#utility.yul\":6896:6989   */\n      tag_251\n        /* \"#utility.yul\":6985:6988   */\n      dup3\n        /* \"#utility.yul\":6896:6989   */\n      tag_156\n      jump\t// in\n    tag_251:\n        /* \"#utility.yul\":7014:7016   */\n      0x20\n        /* \"#utility.yul\":7009:7012   */\n      dup3\n        /* \"#utility.yul\":7005:7017   */\n      add\n        /* \"#utility.yul\":6998:7017   */\n      swap1\n      pop\n        /* \"#utility.yul\":6657:7023   */\n      swap2\n      swap1\n      pop\n      jump\t// out\n        /* \"#utility.yul\":7029:7448   */\n    tag_54:\n        /* \"#utility.yul\":7195:7199   */\n      0x00\n        /* \"#utility.yul\":7233:7235   */\n      0x20\n        /* \"#utility.yul\":7222:7231   */\n      dup3\n        /* \"#utility.yul\":7218:7236   */\n      add\n        /* \"#utility.yul\":7210:7236   */\n      swap1\n      pop\n        /* \"#utility.yul\":7282:7291   */\n      dup2\n        /* \"#utility.yul\":7276:7280   */\n      dup2\n        /* \"#utility.yul\":7272:7292   */\n      sub\n        /* \"#utility.yul\":7268:7269   */\n      0x00\n        /* \"#utility.yul\":7257:7266   */\n      dup4\n        /* \"#utility.yul\":7253:7270   */\n      add\n        /* \"#utility.yul\":7246:7293   */\n      mstore\n        /* \"#utility.yul\":7310:7441   */\n      tag_253\n        /* \"#utility.yul\":7436:7440   */\n      dup2\n        /* \"#utility.yul\":7310:7441   */\n      tag_157\n      jump\t// in\n    tag_253:\n        /* \"#utility.yul\":7302:7441   */\n      swap1\n      pop\n        /* \"#utility.yul\":7029:7448   */\n      swap2\n      swap1\n      pop\n      jump\t// out\n        /* \"#utility.yul\":7454:7677   */\n    tag_158:\n        /* \"#utility.yul\":7594:7628   */\n      0x4e46545374616b696e673a207374616b696e672074696d65206e6f7420726561\n        /* \"#utility.yul\":7590:7591   */\n      0x00\n        /* \"#utility.yul\":7582:7588   */\n      dup3\n        /* \"#utility.yul\":7578:7592   */\n      add\n        /* \"#utility.yul\":7571:7629   */\n      mstore\n        /* \"#utility.yul\":7663:7669   */\n      0x6368656400000000000000000000000000000000000000000000000000000000\n        /* \"#utility.yul\":7658:7660   */\n      0x20\n        /* \"#utility.yul\":7650:7656   */\n      dup3\n        /* \"#utility.yul\":7646:7661   */\n      add\n        /* \"#utility.yul\":7639:7670   */\n      mstore\n        /* \"#utility.yul\":7454:7677   */\n      pop\n      jump\t// out\n        /* \"#utility.yul\":7683:8049   */\n    tag_159:\n        /* \"#utility.yul\":7825:7828   */\n      0x00\n        /* \"#utility.yul\":7846:7913   */\n      tag_256\n        /* \"#utility.yul\":7910:7912   */\n      0x24\n        /* \"#utility.yul\":7905:7908   */\n      dup4\n        /* \"#utility.yul\":7846:7913   */\n      tag_155\n      jump\t// in\n    tag_256:\n        /* \"#utility.yul\":7839:7913   */\n      swap2\n      pop\n        /* \"#utility.yul\":7922:8015   */\n      tag_257\n        /* \"#utility.yul\":8011:8014   */\n      dup3\n        /* \"#utility.yul\":7922:8015   */\n      tag_158\n      jump\t// in\n    tag_257:\n        /* \"#utility.yul\":8040:8042   */\n      0x40\n        /* \"#utility.yul\":8035:8038   */\n      dup3\n        /* \"#utility.yul\":8031:8043   */\n      add\n        /* \"#utility.yul\":8024:8043   */\n      swap1\n      pop\n        /* \"#utility.yul\":7683:8049   */\n      swap2\n      swap1\n      pop\n      jump\t// out\n        /* \"#utility.yul\":8055:8474   */\n    tag_59:\n        /* \"#utility.yul\":8221:8225   */\n      0x00\n        /* \"#utility.yul\":8259:8261   */\n      0x20\n        /* \"#utility.yul\":8248:8257   */\n      dup3\n        /* \"#utility.yul\":8244:8262   */\n      add\n        /* \"#utility.yul\":8236:8262   */\n      swap1\n      pop\n        /* \"#utility.yul\":8308:8317   */\n      dup2\n        /* \"#utility.yul\":8302:8306   */\n      dup2\n        /* \"#utility.yul\":8298:8318   */\n      sub\n        /* \"#utility.yul\":8294:8295   */\n      0x00\n        /* \"#utility.yul\":8283:8292   */\n      dup4\n        /* \"#utility.yul\":8279:8296   */\n      add\n        /* \"#utility.yul\":8272:8319   */\n      mstore\n        /* \"#utility.yul\":8336:8467   */\n      tag_259\n        /* \"#utility.yul\":8462:8466   */\n      dup2\n        /* \"#utility.yul\":8336:8467   */\n      tag_159\n      jump\t// in\n    tag_259:\n        /* \"#utility.yul\":8328:8467   */\n      swap1\n      pop\n        /* \"#utility.yul\":8055:8474   */\n      swap2\n      swap1\n      pop\n      jump\t// out\n        /* \"#utility.yul\":8480:8598   */\n    tag_160:\n        /* \"#utility.yul\":8567:8591   */\n      tag_261\n        /* \"#utility.yul\":8585:8590   */\n      dup2\n        /* \"#utility.yul\":8567:8591   */\n      tag_137\n      jump\t// in\n    tag_261:\n        /* \"#utility.yul\":8562:8565   */\n      dup3\n        /* \"#utility.yul\":8555:8592   */\n      mstore\n        /* \"#utility.yul\":8480:8598   */\n      pop\n      pop\n      jump\t// out\n        /* \"#utility.yul\":8604:9046   */\n    tag_63:\n        /* \"#utility.yul\":8753:8757   */\n      0x00\n        /* \"#utility.yul\":8791:8793   */\n      0x60\n        /* \"#utility.yul\":8780:8789   */\n      dup3\n        /* \"#utility.yul\":8776:8794   */\n      add\n        /* \"#utility.yul\":8768:8794   */\n      swap1\n      pop\n        /* \"#utility.yul\":8804:8875   */\n      tag_263\n        /* \"#utility.yul\":8872:8873   */\n      0x00\n        /* \"#utility.yul\":8861:8870   */\n      dup4\n        /* \"#utility.yul\":8857:8874   */\n      add\n        /* \"#utility.yul\":8848:8854   */\n      dup7\n        /* \"#utility.yul\":8804:8875   */\n      tag_160\n      jump\t// in\n    tag_263:\n        /* \"#utility.yul\":8885:8957   */\n      tag_264\n        /* \"#utility.yul\":8953:8955   */\n      0x20\n        /* \"#utility.yul\":8942:8951   */\n      dup4\n        /* \"#utility.yul\":8938:8956   */\n      add\n        /* \"#utility.yul\":8929:8935   */\n      dup6\n        /* \"#utility.yul\":8885:8957   */\n      tag_160\n      jump\t// in\n    tag_264:\n        /* \"#utility.yul\":8967:9039   */\n      tag_265\n        /* \"#utility.yul\":9035:9037   */\n      0x40\n        /* \"#utility.yul\":9024:9033   */\n      dup4\n        /* \"#utility.yul\":9020:9038   */\n      add\n        /* \"#utility.yul\":9011:9017   */\n      dup5\n        /* \"#utility.yul\":8967:9039   */\n      tag_132\n      jump\t// in\n    tag_265:\n        /* \"#utility.yul\":8604:9046   */\n      swap5\n      swap4\n      pop\n      pop\n      pop\n      pop\n      jump\t// out\n        /* \"#utility.yul\":9052:9195   */\n    tag_161:\n        /* \"#utility.yul\":9109:9114   */\n      0x00\n        /* \"#utility.yul\":9140:9146   */\n      dup2\n        /* \"#utility.yul\":9134:9147   */\n      mload\n        /* \"#utility.yul\":9125:9147   */\n      swap1\n      pop\n        /* \"#utility.yul\":9156:9189   */\n      tag_267\n        /* \"#utility.yul\":9183:9188   */\n      dup2\n        /* \"#utility.yul\":9156:9189   */\n      tag_138\n      jump\t// in\n    tag_267:\n        /* \"#utility.yul\":9052:9195   */\n      swap3\n      swap2\n      pop\n      pop\n      jump\t// out\n        /* \"#utility.yul\":9201:9552   */\n    tag_77:\n        /* \"#utility.yul\":9271:9277   */\n      0x00\n        /* \"#utility.yul\":9320:9322   */\n      0x20\n        /* \"#utility.yul\":9308:9317   */\n      dup3\n        /* \"#utility.yul\":9299:9306   */\n      dup5\n        /* \"#utility.yul\":9295:9318   */\n      sub\n        /* \"#utility.yul\":9291:9323   */\n      slt\n        /* \"#utility.yul\":9288:9407   */\n      iszero\n      tag_269\n      jumpi\n        /* \"#utility.yul\":9326:9405   */\n      tag_270\n      tag_134\n      jump\t// in\n    tag_270:\n        /* \"#utility.yul\":9288:9407   */\n    tag_269:\n        /* \"#utility.yul\":9446:9447   */\n      0x00\n        /* \"#utility.yul\":9471:9535   */\n      tag_271\n        /* \"#utility.yul\":9527:9534   */\n      dup5\n        /* \"#utility.yul\":9518:9524   */\n      dup3\n        /* \"#utility.yul\":9507:9516   */\n      dup6\n        /* \"#utility.yul\":9503:9525   */\n      add\n        /* \"#utility.yul\":9471:9535   */\n      tag_161\n      jump\t// in\n    tag_271:\n        /* \"#utility.yul\":9461:9535   */\n      swap2\n      pop\n        /* \"#utility.yul\":9417:9545   */\n      pop\n        /* \"#utility.yul\":9201:9552   */\n      swap3\n      swap2\n      pop\n      pop\n      jump\t// out\n        /* \"#utility.yul\":9558:9738   */\n    tag_162:\n        /* \"#utility.yul\":9698:9730   */\n      0x4e46545374616b696e673a206e6f74206f776e6572206f6620746f6b656e0000\n        /* \"#utility.yul\":9694:9695   */\n      0x00\n        /* \"#utility.yul\":9686:9692   */\n      dup3\n        /* \"#utility.yul\":9682:9696   */\n      add\n        /* \"#utility.yul\":9675:9731   */\n      mstore\n        /* \"#utility.yul\":9558:9738   */\n      pop\n      jump\t// out\n        /* \"#utility.yul\":9744:10110   */\n    tag_163:\n        /* \"#utility.yul\":9886:9889   */\n      0x00\n        /* \"#utility.yul\":9907:9974   */\n      tag_274\n        /* \"#utility.yul\":9971:9973   */\n      0x1e\n        /* \"#utility.yul\":9966:9969   */\n      dup4\n        /* \"#utility.yul\":9907:9974   */\n      tag_155\n      jump\t// in\n    tag_274:\n        /* \"#utility.yul\":9900:9974   */\n      swap2\n      pop\n        /* \"#utility.yul\":9983:10076   */\n      tag_275\n        /* \"#utility.yul\":10072:10075   */\n      dup3\n        /* \"#utility.yul\":9983:10076   */\n      tag_162\n      jump\t// in\n    tag_275:\n        /* \"#utility.yul\":10101:10103   */\n      0x20\n        /* \"#utility.yul\":10096:10099   */\n      dup3\n        /* \"#utility.yul\":10092:10104   */\n      add\n        /* \"#utility.yul\":10085:10104   */\n      swap1\n      pop\n        /* \"#utility.yul\":9744:10110   */\n      swap2\n      swap1\n      pop\n      jump\t// out\n        /* \"#utility.yul\":10116:10535   */\n    tag_80:\n        /* \"#utility.yul\":10282:10286   */\n      0x00\n        /* \"#utility.yul\":10320:10322   */\n      0x20\n        /* \"#utility.yul\":10309:10318   */\n      dup3\n        /* \"#utility.yul\":10305:10323   */\n      add\n        /* \"#utility.yul\":10297:10323   */\n      swap1\n      pop\n        /* \"#utility.yul\":10369:10378   */\n      dup2\n        /* \"#utility.yul\":10363:10367   */\n      dup2\n        /* \"#utility.yul\":10359:10379   */\n      sub\n        /* \"#utility.yul\":10355:10356   */\n      0x00\n        /* \"#utility.yul\":10344:10353   */\n      dup4\n        /* \"#utility.yul\":10340:10357   */\n      add\n        /* \"#utility.yul\":10333:10380   */\n      mstore\n        /* \"#utility.yul\":10397:10528   */\n      tag_277\n        /* \"#utility.yul\":10523:10527   */\n      dup2\n        /* \"#utility.yul\":10397:10528   */\n      tag_163\n      jump\t// in\n    tag_277:\n        /* \"#utility.yul\":10389:10528   */\n      swap1\n      pop\n        /* \"#utility.yul\":10116:10535   */\n      swap2\n      swap1\n      pop\n      jump\t// out\n        /* \"#utility.yul\":10541:10717   */\n    tag_164:\n        /* \"#utility.yul\":10681:10709   */\n      0x4e46545374616b696e673a20616c7265616479207374616b6564000000000000\n        /* \"#utility.yul\":10677:10678   */\n      0x00\n        /* \"#utility.yul\":10669:10675   */\n      dup3\n        /* \"#utility.yul\":10665:10679   */\n      add\n        /* \"#utility.yul\":10658:10710   */\n      mstore\n        /* \"#utility.yul\":10541:10717   */\n      pop\n      jump\t// out\n        /* \"#utility.yul\":10723:11089   */\n    tag_165:\n        /* \"#utility.yul\":10865:10868   */\n      0x00\n        /* \"#utility.yul\":10886:10953   */\n      tag_280\n        /* \"#utility.yul\":10950:10952   */\n      0x1a\n        /* \"#utility.yul\":10945:10948   */\n      dup4\n        /* \"#utility.yul\":10886:10953   */\n      tag_155\n      jump\t// in\n    tag_280:\n        /* \"#utility.yul\":10879:10953   */\n      swap2\n      pop\n        /* \"#utility.yul\":10962:11055   */\n      tag_281\n        /* \"#utility.yul\":11051:11054   */\n      dup3\n        /* \"#utility.yul\":10962:11055   */\n      tag_164\n      jump\t// in\n    tag_281:\n        /* \"#utility.yul\":11080:11082   */\n      0x20\n        /* \"#utility.yul\":11075:11078   */\n      dup3\n        /* \"#utility.yul\":11071:11083   */\n      add\n        /* \"#utility.yul\":11064:11083   */\n      swap1\n      pop\n        /* \"#utility.yul\":10723:11089   */\n      swap2\n      swap1\n      pop\n      jump\t// out\n        /* \"#utility.yul\":11095:11514   */\n    tag_83:\n        /* \"#utility.yul\":11261:11265   */\n      0x00\n        /* \"#utility.yul\":11299:11301   */\n      0x20\n        /* \"#utility.yul\":11288:11297   */\n      dup3\n        /* \"#utility.yul\":11284:11302   */\n      add\n        /* \"#utility.yul\":11276:11302   */\n      swap1\n      pop\n        /* \"#utility.yul\":11348:11357   */\n      dup2\n        /* \"#utility.yul\":11342:11346   */\n      dup2\n        /* \"#utility.yul\":11338:11358   */\n      sub\n        /* \"#utility.yul\":11334:11335   */\n      0x00\n        /* \"#utility.yul\":11323:11332   */\n      dup4\n        /* \"#utility.yul\":11319:11336   */\n      add\n        /* \"#utility.yul\":11312:11359   */\n      mstore\n        /* \"#utility.yul\":11376:11507   */\n      tag_283\n        /* \"#utility.yul\":11502:11506   */\n      dup2\n        /* \"#utility.yul\":11376:11507   */\n      tag_165\n      jump\t// in\n    tag_283:\n        /* \"#utility.yul\":11368:11507   */\n      swap1\n      pop\n        /* \"#utility.yul\":11095:11514   */\n      swap2\n      swap1\n      pop\n      jump\t// out\n        /* \"#utility.yul\":11520:11694   */\n    tag_166:\n        /* \"#utility.yul\":11660:11686   */\n      0x4e46545374616b696e673a206e6f7420617070726f7665640000000000000000\n        /* \"#utility.yul\":11656:11657   */\n      0x00\n        /* \"#utility.yul\":11648:11654   */\n      dup3\n        /* \"#utility.yul\":11644:11658   */\n      add\n        /* \"#utility.yul\":11637:11687   */\n      mstore\n        /* \"#utility.yul\":11520:11694   */\n      pop\n      jump\t// out\n        /* \"#utility.yul\":11700:12066   */\n    tag_167:\n        /* \"#utility.yul\":11842:11845   */\n      0x00\n        /* \"#utility.yul\":11863:11930   */\n      tag_286\n        /* \"#utility.yul\":11927:11929   */\n      0x18\n        /* \"#utility.yul\":11922:11925   */\n      dup4\n        /* \"#utility.yul\":11863:11930   */\n      tag_155\n      jump\t// in\n    tag_286:\n        /* \"#utility.yul\":11856:11930   */\n      swap2\n      pop\n        /* \"#utility.yul\":11939:12032   */\n      tag_287\n        /* \"#utility.yul\":12028:12031   */\n      dup3\n        /* \"#utility.yul\":11939:12032   */\n      tag_166\n      jump\t// in\n    tag_287:\n        /* \"#utility.yul\":12057:12059   */\n      0x20\n        /* \"#utility.yul\":12052:12055   */\n      dup3\n        /* \"#utility.yul\":12048:12060   */\n      add\n        /* \"#utility.yul\":12041:12060   */\n      swap1\n      pop\n        /* \"#utility.yul\":11700:12066   */\n      swap2\n      swap1\n      pop\n      jump\t// out\n        /* \"#utility.yul\":12072:12491   */\n    tag_90:\n        /* \"#utility.yul\":12238:12242   */\n      0x00\n        /* \"#utility.yul\":12276:12278   */\n      0x20\n        /* \"#utility.yul\":12265:12274   */\n      dup3\n        /* \"#utility.yul\":12261:12279   */\n      add\n        /* \"#utility.yul\":12253:12279   */\n      swap1\n      pop\n        /* \"#utility.yul\":12325:12334   */\n      dup2\n        /* \"#utility.yul\":12319:12323   */\n      dup2\n        /* \"#utility.yul\":12315:12335   */\n      sub\n        /* \"#utility.yul\":12311:12312   */\n      0x00\n        /* \"#utility.yul\":12300:12309   */\n      dup4\n        /* \"#utility.yul\":12296:12313   */\n      add\n        /* \"#utility.yul\":12289:12336   */\n      mstore\n        /* \"#utility.yul\":12353:12484   */\n      tag_289\n        /* \"#utility.yul\":12479:12483   */\n      dup2\n        /* \"#utility.yul\":12353:12484   */\n      tag_167\n      jump\t// in\n    tag_289:\n        /* \"#utility.yul\":12345:12484   */\n      swap1\n      pop\n        /* \"#utility.yul\":12072:12491   */\n      swap2\n      swap1\n      pop\n      jump\t// out\n        /* \"#utility.yul\":12497:12678   */\n    tag_168:\n        /* \"#utility.yul\":12637:12670   */\n      0x5265656e7472616e637947756172643a207265656e7472616e742063616c6c00\n        /* \"#utility.yul\":12633:12634   */\n      0x00\n        /* \"#utility.yul\":12625:12631   */\n      dup3\n        /* \"#utility.yul\":12621:12635   */\n      add\n        /* \"#utility.yul\":12614:12671   */\n      mstore\n        /* \"#utility.yul\":12497:12678   */\n      pop\n      jump\t// out\n        /* \"#utility.yul\":12684:13050   */\n    tag_169:\n        /* \"#utility.yul\":12826:12829   */\n      0x00\n        /* \"#utility.yul\":12847:12914   */\n      tag_292\n        /* \"#utility.yul\":12911:12913   */\n      0x1f\n        /* \"#utility.yul\":12906:12909   */\n      dup4\n        /* \"#utility.yul\":12847:12914   */\n      tag_155\n      jump\t// in\n    tag_292:\n        /* \"#utility.yul\":12840:12914   */\n      swap2\n      pop\n        /* \"#utility.yul\":12923:13016   */\n      tag_293\n        /* \"#utility.yul\":13012:13015   */\n      dup3\n        /* \"#utility.yul\":12923:13016   */\n      tag_168\n      jump\t// in\n    tag_293:\n        /* \"#utility.yul\":13041:13043   */\n      0x20\n        /* \"#utility.yul\":13036:13039   */\n      dup3\n        /* \"#utility.yul\":13032:13044   */\n      add\n        /* \"#utility.yul\":13025:13044   */\n      swap1\n      pop\n        /* \"#utility.yul\":12684:13050   */\n      swap2\n      swap1\n      pop\n      jump\t// out\n        /* \"#utility.yul\":13056:13475   */\n    tag_108:\n        /* \"#utility.yul\":13222:13226   */\n      0x00\n        /* \"#utility.yul\":13260:13262   */\n      0x20\n        /* \"#utility.yul\":13249:13258   */\n      dup3\n        /* \"#utility.yul\":13245:13263   */\n      add\n        /* \"#utility.yul\":13237:13263   */\n      swap1\n      pop\n        /* \"#utility.yul\":13309:13318   */\n      dup2\n        /* \"#utility.yul\":13303:13307   */\n      dup2\n        /* \"#utility.yul\":13299:13319   */\n      sub\n        /* \"#utility.yul\":13295:13296   */\n      0x00\n        /* \"#utility.yul\":13284:13293   */\n      dup4\n        /* \"#utility.yul\":13280:13297   */\n      add\n        /* \"#utility.yul\":13273:13320   */\n      mstore\n        /* \"#utility.yul\":13337:13468   */\n      tag_295\n        /* \"#utility.yul\":13463:13467   */\n      dup2\n        /* \"#utility.yul\":13337:13468   */\n      tag_169\n      jump\t// in\n    tag_295:\n        /* \"#utility.yul\":13329:13468   */\n      swap1\n      pop\n        /* \"#utility.yul\":13056:13475   */\n      swap2\n      swap1\n      pop\n      jump\t// out\n        /* \"#utility.yul\":13481:13661   */\n    tag_170:\n        /* \"#utility.yul\":13529:13606   */\n      0x4e487b7100000000000000000000000000000000000000000000000000000000\n        /* \"#utility.yul\":13526:13527   */\n      0x00\n        /* \"#utility.yul\":13519:13607   */\n      mstore\n        /* \"#utility.yul\":13626:13630   */\n      0x11\n        /* \"#utility.yul\":13623:13624   */\n      0x04\n        /* \"#utility.yul\":13616:13631   */\n      mstore\n        /* \"#utility.yul\":13650:13654   */\n      0x24\n        /* \"#utility.yul\":13647:13648   */\n      0x00\n        /* \"#utility.yul\":13640:13655   */\n      revert\n        /* \"#utility.yul\":13667:13858   */\n    tag_111:\n        /* \"#utility.yul\":13707:13710   */\n      0x00\n        /* \"#utility.yul\":13726:13746   */\n      tag_298\n        /* \"#utility.yul\":13744:13745   */\n      dup3\n        /* \"#utility.yul\":13726:13746   */\n      tag_131\n      jump\t// in\n    tag_298:\n        /* \"#utility.yul\":13721:13746   */\n      swap2\n      pop\n        /* \"#utility.yul\":13760:13780   */\n      tag_299\n        /* \"#utility.yul\":13778:13779   */\n      dup4\n        /* \"#utility.yul\":13760:13780   */\n      tag_131\n      jump\t// in\n    tag_299:\n        /* \"#utility.yul\":13755:13780   */\n      swap3\n      pop\n        /* \"#utility.yul\":13803:13804   */\n      dup3\n        /* \"#utility.yul\":13800:13801   */\n      dup3\n        /* \"#utility.yul\":13796:13805   */\n      add\n        /* \"#utility.yul\":13789:13805   */\n      swap1\n      pop\n        /* \"#utility.yul\":13824:13827   */\n      dup1\n        /* \"#utility.yul\":13821:13822   */\n      dup3\n        /* \"#utility.yul\":13818:13828   */\n      gt\n        /* \"#utility.yul\":13815:13851   */\n      iszero\n      tag_300\n      jumpi\n        /* \"#utility.yul\":13831:13849   */\n      tag_301\n      tag_170\n      jump\t// in\n    tag_301:\n        /* \"#utility.yul\":13815:13851   */\n    tag_300:\n        /* \"#utility.yul\":13667:13858   */\n      swap3\n      swap2\n      pop\n      pop\n      jump\t// out\n        /* \"#utility.yul\":13864:14058   */\n    tag_124:\n        /* \"#utility.yul\":13904:13908   */\n      0x00\n        /* \"#utility.yul\":13924:13944   */\n      tag_303\n        /* \"#utility.yul\":13942:13943   */\n      dup3\n        /* \"#utility.yul\":13924:13944   */\n      tag_131\n      jump\t// in\n    tag_303:\n        /* \"#utility.yul\":13919:13944   */\n      swap2\n      pop\n        /* \"#utility.yul\":13958:13978   */\n      tag_304\n        /* \"#utility.yul\":13976:13977   */\n      dup4\n        /* \"#utility.yul\":13958:13978   */\n      tag_131\n      jump\t// in\n    tag_304:\n        /* \"#utility.yul\":13953:13978   */\n      swap3\n      pop\n        /* \"#utility.yul\":14002:14003   */\n      dup3\n        /* \"#utility.yul\":13999:14000   */\n      dup3\n        /* \"#utility.yul\":13995:14004   */\n      sub\n        /* \"#utility.yul\":13987:14004   */\n      swap1\n      pop\n        /* \"#utility.yul\":14026:14027   */\n      dup2\n        /* \"#utility.yul\":14020:14024   */\n      dup2\n        /* \"#utility.yul\":14017:14028   */\n      gt\n        /* \"#utility.yul\":14014:14051   */\n      iszero\n      tag_305\n      jumpi\n        /* \"#utility.yul\":14031:14049   */\n      tag_306\n      tag_170\n      jump\t// in\n    tag_306:\n        /* \"#utility.yul\":14014:14051   */\n    tag_305:\n        /* \"#utility.yul\":13864:14058   */\n      swap3\n      swap2\n      pop\n      pop\n      jump\t// out\n        /* \"#utility.yul\":14064:14474   */\n    tag_127:\n        /* \"#utility.yul\":14104:14111   */\n      0x00\n        /* \"#utility.yul\":14127:14147   */\n      tag_308\n        /* \"#utility.yul\":14145:14146   */\n      dup3\n        /* \"#utility.yul\":14127:14147   */\n      tag_131\n      jump\t// in\n    tag_308:\n        /* \"#utility.yul\":14122:14147   */\n      swap2\n      pop\n        /* \"#utility.yul\":14161:14181   */\n      tag_309\n        /* \"#utility.yul\":14179:14180   */\n      dup4\n        /* \"#utility.yul\":14161:14181   */\n      tag_131\n      jump\t// in\n    tag_309:\n        /* \"#utility.yul\":14156:14181   */\n      swap3\n      pop\n        /* \"#utility.yul\":14216:14217   */\n      dup3\n        /* \"#utility.yul\":14213:14214   */\n      dup3\n        /* \"#utility.yul\":14209:14218   */\n      mul\n        /* \"#utility.yul\":14238:14268   */\n      tag_310\n        /* \"#utility.yul\":14256:14267   */\n      dup2\n        /* \"#utility.yul\":14238:14268   */\n      tag_131\n      jump\t// in\n    tag_310:\n        /* \"#utility.yul\":14227:14268   */\n      swap2\n      pop\n        /* \"#utility.yul\":14417:14418   */\n      dup3\n        /* \"#utility.yul\":14408:14415   */\n      dup3\n        /* \"#utility.yul\":14404:14419   */\n      div\n        /* \"#utility.yul\":14401:14402   */\n      dup5\n        /* \"#utility.yul\":14398:14420   */\n      eq\n        /* \"#utility.yul\":14378:14379   */\n      dup4\n        /* \"#utility.yul\":14371:14380   */\n      iszero\n        /* \"#utility.yul\":14351:14434   */\n      or\n        /* \"#utility.yul\":14328:14467   */\n      tag_311\n      jumpi\n        /* \"#utility.yul\":14447:14465   */\n      tag_312\n      tag_170\n      jump\t// in\n    tag_312:\n        /* \"#utility.yul\":14328:14467   */\n    tag_311:\n        /* \"#utility.yul\":14112:14474   */\n      pop\n        /* \"#utility.yul\":14064:14474   */\n      swap3\n      swap2\n      pop\n      pop\n      jump\t// out\n        /* \"#utility.yul\":14480:14660   */\n    tag_171:\n        /* \"#utility.yul\":14528:14605   */\n      0x4e487b7100000000000000000000000000000000000000000000000000000000\n        /* \"#utility.yul\":14525:14526   */\n      0x00\n        /* \"#utility.yul\":14518:14606   */\n      mstore\n        /* \"#utility.yul\":14625:14629   */\n      0x12\n        /* \"#utility.yul\":14622:14623   */\n      0x04\n        /* \"#utility.yul\":14615:14630   */\n      mstore\n        /* \"#utility.yul\":14649:14653   */\n      0x24\n        /* \"#utility.yul\":14646:14647   */\n      0x00\n        /* \"#utility.yul\":14639:14654   */\n      revert\n        /* \"#utility.yul\":14666:14851   */\n    tag_130:\n        /* \"#utility.yul\":14706:14707   */\n      0x00\n        /* \"#utility.yul\":14723:14743   */\n      tag_315\n        /* \"#utility.yul\":14741:14742   */\n      dup3\n        /* \"#utility.yul\":14723:14743   */\n      tag_131\n      jump\t// in\n    tag_315:\n        /* \"#utility.yul\":14718:14743   */\n      swap2\n      pop\n        /* \"#utility.yul\":14757:14777   */\n      tag_316\n        /* \"#utility.yul\":14775:14776   */\n      dup4\n        /* \"#utility.yul\":14757:14777   */\n      tag_131\n      jump\t// in\n    tag_316:\n        /* \"#utility.yul\":14752:14777   */\n      swap3\n      pop\n        /* \"#utility.yul\":14796:14797   */\n      dup3\n        /* \"#utility.yul\":14786:14821   */\n      tag_317\n      jumpi\n        /* \"#utility.yul\":14801:14819   */\n      tag_318\n      tag_171\n      jump\t// in\n    tag_318:\n        /* \"#utility.yul\":14786:14821   */\n    tag_317:\n        /* \"#utility.yul\":14843:14844   */\n      dup3\n        /* \"#utility.yul\":14840:14841   */\n      dup3\n        /* \"#utility.yul\":14836:14845   */\n      div\n        /* \"#utility.yul\":14831:14845   */\n      swap1\n      pop\n        /* \"#utility.yul\":14666:14851   */\n      swap3\n      swap2\n      pop\n      pop\n      jump\t// out\n\n    auxdata: 0xa264697066735822122038fe381898f4b411411f8cb30b1e0205aeb68d7377e1424c0d1ebe8b9d05301d64736f6c63430008120033\n}\n",
				"bytecode": {
					"linkReferences": {},
					"object": "60806040523480156200001157600080fd5b5060405162001432380380620014328339818101604052810190620000379190620000f1565b600160008190555080600160006101000a81548173ffffffffffffffffffffffffffffffffffffffff021916908373ffffffffffffffffffffffffffffffffffffffff1602179055505062000123565b600080fd5b600073ffffffffffffffffffffffffffffffffffffffff82169050919050565b6000620000b9826200008c565b9050919050565b620000cb81620000ac565b8114620000d757600080fd5b50565b600081519050620000eb81620000c0565b92915050565b6000602082840312156200010a576200010962000087565b5b60006200011a84828501620000da565b91505092915050565b6112ff80620001336000396000f3fe608060405234801561001057600080fd5b50600436106100935760003560e01c80632e0f2625116100665780632e0f26251461012357806347ccca02146101415780635997bb371461015f578063a694fc3a1461017d578063b88a802f1461019957610093565b806302657ad014610098578063150b7a02146100b657806316934fc4146100e65780632def662014610119575b600080fd5b6100a06101a3565b6040516100ad9190610b23565b60405180910390f35b6100d060048036038101906100cb9190610c37565b6101aa565b6040516100dd9190610cfa565b60405180910390f35b61010060048036038101906100fb9190610d15565b6101bf565b6040516101109493929190610d5d565b60405180910390f35b6101216101fc565b005b61012b610464565b6040516101389190610b23565b60405180910390f35b610149610469565b6040516101569190610e01565b60405180910390f35b61016761048f565b6040516101749190610b23565b60405180910390f35b61019760048036038101906101929190610e1c565b610494565b005b6101a16108cd565b005b62278d0081565b600063150b7a0260e01b905095945050505050565b60026020528060005260406000206000915090508060000154908060010154908060020154908060030160009054906101000a900460ff16905084565b6102046109df565b6000600260003373ffffffffffffffffffffffffffffffffffffffff1673ffffffffffffffffffffffffffffffffffffffff16815260200190815260200160002090508060030160009054906101000a900460ff16610298576040517f08c379a000000000000000000000000000000000000000000000000000000000815260040161028f90610ea6565b60405180910390fd5b6102b262278d008260010154610a2e90919063ffffffff16565b4210156102f4576040517f08c379a00000000000000000000000000000000000000000000000000000000081526004016102eb90610f38565b60405180910390fd5b60006103003383610a44565b9050600160009054906101000a900473ffffffffffffffffffffffffffffffffffffffff1673ffffffffffffffffffffffffffffffffffffffff166342842e0e303385600001546040518463ffffffff1660e01b815260040161036593929190610f67565b600060405180830381600087803b15801561037f57600080fd5b505af1158015610393573d6000803e3d6000fd5b50505050600260003373ffffffffffffffffffffffffffffffffffffffff1673ffffffffffffffffffffffffffffffffffffffff168152602001908152602001600020600080820160009055600182016000905560028201600090556003820160006101000a81549060ff0219169055505081600001543373ffffffffffffffffffffffffffffffffffffffff167f7fc4727e062e336010f2c282598ef5f14facb3de68cf8195c2f23e1454b2b74e836040516104509190610b23565b60405180910390a35050610462610abe565b565b606481565b600160009054906101000a900473ffffffffffffffffffffffffffffffffffffffff1681565b600a81565b61049c6109df565b3373ffffffffffffffffffffffffffffffffffffffff16600160009054906101000a900473ffffffffffffffffffffffffffffffffffffffff1673ffffffffffffffffffffffffffffffffffffffff16636352211e836040518263ffffffff1660e01b815260040161050e9190610b23565b602060405180830381865afa15801561052b573d6000803e3d6000fd5b505050506040513d601f19601f8201168201806040525081019061054f9190610fb3565b73ffffffffffffffffffffffffffffffffffffffff16146105a5576040517f08c379a000000000000000000000000000000000000000000000000000000000815260040161059c9061102c565b60405180910390fd5b600260003373ffffffffffffffffffffffffffffffffffffffff1673ffffffffffffffffffffffffffffffffffffffff16815260200190815260200160002060030160009054906101000a900460ff1615610635576040517f08c379a000000000000000000000000000000000000000000000000000000000815260040161062c90611098565b60405180910390fd5b3073ffffffffffffffffffffffffffffffffffffffff16600160009054906101000a900473ffffffffffffffffffffffffffffffffffffffff1673ffffffffffffffffffffffffffffffffffffffff1663081812fc836040518263ffffffff1660e01b81526004016106a79190610b23565b602060405180830381865afa1580156106c4573d6000803e3d6000fd5b505050506040513d601f19601f820116820180604052508101906106e89190610fb3565b73ffffffffffffffffffffffffffffffffffffffff161461073e576040517f08c379a000000000000000000000000000000000000000000000000000000000815260040161073590611104565b60405180910390fd5b600160009054906101000a900473ffffffffffffffffffffffffffffffffffffffff1673ffffffffffffffffffffffffffffffffffffffff166342842e0e3330846040518463ffffffff1660e01b815260040161079d93929190610f67565b600060405180830381600087803b1580156107b757600080fd5b505af11580156107cb573d6000803e3d6000fd5b50505050604051806080016040528082815260200142815260200142815260200160011515815250600260003373ffffffffffffffffffffffffffffffffffffffff1673ffffffffffffffffffffffffffffffffffffffff16815260200190815260200160002060008201518160000155602082015181600101556040820151816002015560608201518160030160006101000a81548160ff021916908315150217905550905050803373ffffffffffffffffffffffffffffffffffffffff167f1449c6dd7851abc30abf37f57715f492010519147cc2652fbc38202c18a6ee90426040516108ba9190610b23565b60405180910390a36108ca610abe565b50565b6108d56109df565b6000600260003373ffffffffffffffffffffffffffffffffffffffff1673ffffffffffffffffffffffffffffffffffffffff16815260200190815260200160002090508060030160009054906101000a900460ff16610969576040517f08c379a000000000000000000000000000000000000000000000000000000000815260040161096090610ea6565b60405180910390fd5b60006109753383610a44565b905042826002018190555081600001543373ffffffffffffffffffffffffffffffffffffffff167ff01da32686223933d8a18a391060918c7f11a3648639edd87ae013e2e2731743836040516109cb9190610b23565b60405180910390a350506109dd610abe565b565b600260005403610a24576040517f08c379a0000000000000000000000000000000000000000000000000000000008152600401610a1b90611170565b60405180910390fd5b6002600081905550565b60008183610a3c91906111bf565b905092915050565b600080610a5e836002015442610ac890919063ffffffff16565b90506000610ab16064610aa362278d00610a956064610a87600a89610ade90919063ffffffff16565b610ade90919063ffffffff16565b610af490919063ffffffff16565b610af490919063ffffffff16565b9050809250505092915050565b6001600081905550565b60008183610ad691906111f3565b905092915050565b60008183610aec9190611227565b905092915050565b60008183610b029190611298565b905092915050565b6000819050919050565b610b1d81610b0a565b82525050565b6000602082019050610b386000830184610b14565b92915050565b600080fd5b600080fd5b600073ffffffffffffffffffffffffffffffffffffffff82169050919050565b6000610b7382610b48565b9050919050565b610b8381610b68565b8114610b8e57600080fd5b50565b600081359050610ba081610b7a565b92915050565b610baf81610b0a565b8114610bba57600080fd5b50565b600081359050610bcc81610ba6565b92915050565b600080fd5b600080fd5b600080fd5b60008083601f840112610bf757610bf6610bd2565b5b8235905067ffffffffffffffff811115610c1457610c13610bd7565b5b602083019150836001820283011115610c3057610c2f610bdc565b5b9250929050565b600080600080600060808688031215610c5357610c52610b3e565b5b6000610c6188828901610b91565b9550506020610c7288828901610b91565b9450506040610c8388828901610bbd565b935050606086013567ffffffffffffffff811115610ca457610ca3610b43565b5b610cb088828901610be1565b92509250509295509295909350565b60007fffffffff0000000000000000000000000000000000000000000000000000000082169050919050565b610cf481610cbf565b82525050565b6000602082019050610d0f6000830184610ceb565b92915050565b600060208284031215610d2b57610d2a610b3e565b5b6000610d3984828501610b91565b91505092915050565b60008115159050919050565b610d5781610d42565b82525050565b6000608082019050610d726000830187610b14565b610d7f6020830186610b14565b610d8c6040830185610b14565b610d996060830184610d4e565b95945050505050565b6000819050919050565b6000610dc7610dc2610dbd84610b48565b610da2565b610b48565b9050919050565b6000610dd982610dac565b9050919050565b6000610deb82610dce565b9050919050565b610dfb81610de0565b82525050565b6000602082019050610e166000830184610df2565b92915050565b600060208284031215610e3257610e31610b3e565b5b6000610e4084828501610bbd565b91505092915050565b600082825260208201905092915050565b7f4e46545374616b696e673a206e6f74207374616b656400000000000000000000600082015250565b6000610e90601683610e49565b9150610e9b82610e5a565b602082019050919050565b60006020820190508181036000830152610ebf81610e83565b9050919050565b7f4e46545374616b696e673a207374616b696e672074696d65206e6f742072656160008201527f6368656400000000000000000000000000000000000000000000000000000000602082015250565b6000610f22602483610e49565b9150610f2d82610ec6565b604082019050919050565b60006020820190508181036000830152610f5181610f15565b9050919050565b610f6181610b68565b82525050565b6000606082019050610f7c6000830186610f58565b610f896020830185610f58565b610f966040830184610b14565b949350505050565b600081519050610fad81610b7a565b92915050565b600060208284031215610fc957610fc8610b3e565b5b6000610fd784828501610f9e565b91505092915050565b7f4e46545374616b696e673a206e6f74206f776e6572206f6620746f6b656e0000600082015250565b6000611016601e83610e49565b915061102182610fe0565b602082019050919050565b6000602082019050818103600083015261104581611009565b9050919050565b7f4e46545374616b696e673a20616c7265616479207374616b6564000000000000600082015250565b6000611082601a83610e49565b915061108d8261104c565b602082019050919050565b600060208201905081810360008301526110b181611075565b9050919050565b7f4e46545374616b696e673a206e6f7420617070726f7665640000000000000000600082015250565b60006110ee601883610e49565b91506110f9826110b8565b602082019050919050565b6000602082019050818103600083015261111d816110e1565b9050919050565b7f5265656e7472616e637947756172643a207265656e7472616e742063616c6c00600082015250565b600061115a601f83610e49565b915061116582611124565b602082019050919050565b600060208201905081810360008301526111898161114d565b9050919050565b7f4e487b7100000000000000000000000000000000000000000000000000000000600052601160045260246000fd5b60006111ca82610b0a565b91506111d583610b0a565b92508282019050808211156111ed576111ec611190565b5b92915050565b60006111fe82610b0a565b915061120983610b0a565b925082820390508181111561122157611220611190565b5b92915050565b600061123282610b0a565b915061123d83610b0a565b925082820261124b81610b0a565b9150828204841483151761126257611261611190565b5b5092915050565b7f4e487b7100000000000000000000000000000000000000000000000000000000600052601260045260246000fd5b60006112a382610b0a565b91506112ae83610b0a565b9250826112be576112bd611269565b5b82820490509291505056fea264697066735822122038fe381898f4b411411f8cb30b1e0205aeb68d7377e1424c0d1ebe8b9d05301d64736f6c63430008120033",
					"opcodes": "PUSH1 0x80 PUSH1 0x40 MSTORE CALLVALUE DUP1 ISZERO PUSH3 0x11 JUMPI PUSH1 0x0 DUP1 REVERT JUMPDEST POP PUSH1 0x40 MLOAD PUSH3 0x1432 CODESIZE SUB DUP1 PUSH3 0x1432 DUP4 CODECOPY DUP2 DUP2 ADD PUSH1 0x40 MSTORE DUP2 ADD SWAP1 PUSH3 0x37 SWAP2 SWAP1 PUSH3 0xF1 JUMP JUMPDEST PUSH1 0x1 PUSH1 0x0 DUP2 SWAP1 SSTORE POP DUP1 PUSH1 0x1 PUSH1 0x0 PUSH2 0x100 EXP DUP2 SLOAD DUP2 PUSH20 0xFFFFFFFFFFFFFFFFFFFFFFFFFFFFFFFFFFFFFFFF MUL NOT AND SWAP1 DUP4 PUSH20 0xFFFFFFFFFFFFFFFFFFFFFFFFFFFFFFFFFFFFFFFF AND MUL OR SWAP1 SSTORE POP POP PUSH3 0x123 JUMP JUMPDEST PUSH1 0x0 DUP1 REVERT JUMPDEST PUSH1 0x0 PUSH20 0xFFFFFFFFFFFFFFFFFFFFFFFFFFFFFFFFFFFFFFFF DUP3 AND SWAP1 POP SWAP2 SWAP1 POP JUMP JUMPDEST PUSH1 0x0 PUSH3 0xB9 DUP3 PUSH3 0x8C JUMP JUMPDEST SWAP1 POP SWAP2 SWAP1 POP JUMP JUMPDEST PUSH3 0xCB DUP2 PUSH3 0xAC JUMP JUMPDEST DUP2 EQ PUSH3 0xD7 JUMPI PUSH1 0x0 DUP1 REVERT JUMPDEST POP JUMP JUMPDEST PUSH1 0x0 DUP2 MLOAD SWAP1 POP PUSH3 0xEB DUP2 PUSH3 0xC0 JUMP JUMPDEST SWAP3 SWAP2 POP POP JUMP JUMPDEST PUSH1 0x0 PUSH1 0x20 DUP3 DUP5 SUB SLT ISZERO PUSH3 0x10A JUMPI PUSH3 0x109 PUSH3 0x87 JUMP JUMPDEST JUMPDEST PUSH1 0x0 PUSH3 0x11A DUP5 DUP3 DUP6 ADD PUSH3 0xDA JUMP JUMPDEST SWAP2 POP POP SWAP3 SWAP2 POP POP JUMP JUMPDEST PUSH2 0x12FF DUP1 PUSH3 0x133 PUSH1 0x0 CODECOPY PUSH1 0x0 RETURN INVALID PUSH1 0x80 PUSH1 0x40 MSTORE CALLVALUE DUP1 ISZERO PUSH2 0x10 JUMPI PUSH1 0x0 DUP1 REVERT JUMPDEST POP PUSH1 0x4 CALLDATASIZE LT PUSH2 0x93 JUMPI PUSH1 0x0 CALLDATALOAD PUSH1 0xE0 SHR DUP1 PUSH4 0x2E0F2625 GT PUSH2 0x66 JUMPI DUP1 PUSH4 0x2E0F2625 EQ PUSH2 0x123 JUMPI DUP1 PUSH4 0x47CCCA02 EQ PUSH2 0x141 JUMPI DUP1 PUSH4 0x5997BB37 EQ PUSH2 0x15F JUMPI DUP1 PUSH4 0xA694FC3A EQ PUSH2 0x17D JUMPI DUP1 PUSH4 0xB88A802F EQ PUSH2 0x199 JUMPI PUSH2 0x93 JUMP JUMPDEST DUP1 PUSH4 0x2657AD0 EQ PUSH2 0x98 JUMPI DUP1 PUSH4 0x150B7A02 EQ PUSH2 0xB6 JUMPI DUP1 PUSH4 0x16934FC4 EQ PUSH2 0xE6 JUMPI DUP1 PUSH4 0x2DEF6620 EQ PUSH2 0x119 JUMPI JUMPDEST PUSH1 0x0 DUP1 REVERT JUMPDEST PUSH2 0xA0 PUSH2 0x1A3 JUMP JUMPDEST PUSH1 0x40 MLOAD PUSH2 0xAD SWAP2 SWAP1 PUSH2 0xB23 JUMP JUMPDEST PUSH1 0x40 MLOAD DUP1 SWAP2 SUB SWAP1 RETURN JUMPDEST PUSH2 0xD0 PUSH1 0x4 DUP1 CALLDATASIZE SUB DUP2 ADD SWAP1 PUSH2 0xCB SWAP2 SWAP1 PUSH2 0xC37 JUMP JUMPDEST PUSH2 0x1AA JUMP JUMPDEST PUSH1 0x40 MLOAD PUSH2 0xDD SWAP2 SWAP1 PUSH2 0xCFA JUMP JUMPDEST PUSH1 0x40 MLOAD DUP1 SWAP2 SUB SWAP1 RETURN JUMPDEST PUSH2 0x100 PUSH1 0x4 DUP1 CALLDATASIZE SUB DUP2 ADD SWAP1 PUSH2 0xFB SWAP2 SWAP1 PUSH2 0xD15 JUMP JUMPDEST PUSH2 0x1BF JUMP JUMPDEST PUSH1 0x40 MLOAD PUSH2 0x110 SWAP5 SWAP4 SWAP3 SWAP2 SWAP1 PUSH2 0xD5D JUMP JUMPDEST PUSH1 0x40 MLOAD DUP1 SWAP2 SUB SWAP1 RETURN JUMPDEST PUSH2 0x121 PUSH2 0x1FC JUMP JUMPDEST STOP JUMPDEST PUSH2 0x12B PUSH2 0x464 JUMP JUMPDEST PUSH1 0x40 MLOAD PUSH2 0x138 SWAP2 SWAP1 PUSH2 0xB23 JUMP JUMPDEST PUSH1 0x40 MLOAD DUP1 SWAP2 SUB SWAP1 RETURN JUMPDEST PUSH2 0x149 PUSH2 0x469 JUMP JUMPDEST PUSH1 0x40 MLOAD PUSH2 0x156 SWAP2 SWAP1 PUSH2 0xE01 JUMP JUMPDEST PUSH1 0x40 MLOAD DUP1 SWAP2 SUB SWAP1 RETURN JUMPDEST PUSH2 0x167 PUSH2 0x48F JUMP JUMPDEST PUSH1 0x40 MLOAD PUSH2 0x174 SWAP2 SWAP1 PUSH2 0xB23 JUMP JUMPDEST PUSH1 0x40 MLOAD DUP1 SWAP2 SUB SWAP1 RETURN JUMPDEST PUSH2 0x197 PUSH1 0x4 DUP1 CALLDATASIZE SUB DUP2 ADD SWAP1 PUSH2 0x192 SWAP2 SWAP1 PUSH2 0xE1C JUMP JUMPDEST PUSH2 0x494 JUMP JUMPDEST STOP JUMPDEST PUSH2 0x1A1 PUSH2 0x8CD JUMP JUMPDEST STOP JUMPDEST PUSH3 0x278D00 DUP2 JUMP JUMPDEST PUSH1 0x0 PUSH4 0x150B7A02 PUSH1 0xE0 SHL SWAP1 POP SWAP6 SWAP5 POP POP POP POP POP JUMP JUMPDEST PUSH1 0x2 PUSH1 0x20 MSTORE DUP1 PUSH1 0x0 MSTORE PUSH1 0x40 PUSH1 0x0 KECCAK256 PUSH1 0x0 SWAP2 POP SWAP1 POP DUP1 PUSH1 0x0 ADD SLOAD SWAP1 DUP1 PUSH1 0x1 ADD SLOAD SWAP1 DUP1 PUSH1 0x2 ADD SLOAD SWAP1 DUP1 PUSH1 0x3 ADD PUSH1 0x0 SWAP1 SLOAD SWAP1 PUSH2 0x100 EXP SWAP1 DIV PUSH1 0xFF AND SWAP1 POP DUP5 JUMP JUMPDEST PUSH2 0x204 PUSH2 0x9DF JUMP JUMPDEST PUSH1 0x0 PUSH1 0x2 PUSH1 0x0 CALLER PUSH20 0xFFFFFFFFFFFFFFFFFFFFFFFFFFFFFFFFFFFFFFFF AND PUSH20 0xFFFFFFFFFFFFFFFFFFFFFFFFFFFFFFFFFFFFFFFF AND DUP2 MSTORE PUSH1 0x20 ADD SWAP1 DUP2 MSTORE PUSH1 0x20 ADD PUSH1 0x0 KECCAK256 SWAP1 POP DUP1 PUSH1 0x3 ADD PUSH1 0x0 SWAP1 SLOAD SWAP1 PUSH2 0x100 EXP SWAP1 DIV PUSH1 0xFF AND PUSH2 0x298 JUMPI PUSH1 0x40 MLOAD PUSH32 0x8C379A000000000000000000000000000000000000000000000000000000000 DUP2 MSTORE PUSH1 0x4 ADD PUSH2 0x28F SWAP1 PUSH2 0xEA6 JUMP JUMPDEST PUSH1 0x40 MLOAD DUP1 SWAP2 SUB SWAP1 REVERT JUMPDEST PUSH2 0x2B2 PUSH3 0x278D00 DUP3 PUSH1 0x1 ADD SLOAD PUSH2 0xA2E SWAP1 SWAP2 SWAP1 PUSH4 0xFFFFFFFF AND JUMP JUMPDEST TIMESTAMP LT ISZERO PUSH2 0x2F4 JUMPI PUSH1 0x40 MLOAD PUSH32 0x8C379A000000000000000000000000000000000000000000000000000000000 DUP2 MSTORE PUSH1 0x4 ADD PUSH2 0x2EB SWAP1 PUSH2 0xF38 JUMP JUMPDEST PUSH1 0x40 MLOAD DUP1 SWAP2 SUB SWAP1 REVERT JUMPDEST PUSH1 0x0 PUSH2 0x300 CALLER DUP4 PUSH2 0xA44 JUMP JUMPDEST SWAP1 POP PUSH1 0x1 PUSH1 0x0 SWAP1 SLOAD SWAP1 PUSH2 0x100 EXP SWAP1 DIV PUSH20 0xFFFFFFFFFFFFFFFFFFFFFFFFFFFFFFFFFFFFFFFF AND PUSH20 0xFFFFFFFFFFFFFFFFFFFFFFFFFFFFFFFFFFFFFFFF AND PUSH4 0x42842E0E ADDRESS CALLER DUP6 PUSH1 0x0 ADD SLOAD PUSH1 0x40 MLOAD DUP5 PUSH4 0xFFFFFFFF AND PUSH1 0xE0 SHL DUP2 MSTORE PUSH1 0x4 ADD PUSH2 0x365 SWAP4 SWAP3 SWAP2 SWAP1 PUSH2 0xF67 JUMP JUMPDEST PUSH1 0x0 PUSH1 0x40 MLOAD DUP1 DUP4 SUB DUP2 PUSH1 0x0 DUP8 DUP1 EXTCODESIZE ISZERO DUP1 ISZERO PUSH2 0x37F JUMPI PUSH1 0x0 DUP1 REVERT JUMPDEST POP GAS CALL ISZERO DUP1 ISZERO PUSH2 0x393 JUMPI RETURNDATASIZE PUSH1 0x0 DUP1 RETURNDATACOPY RETURNDATASIZE PUSH1 0x0 REVERT JUMPDEST POP POP POP POP PUSH1 0x2 PUSH1 0x0 CALLER PUSH20 0xFFFFFFFFFFFFFFFFFFFFFFFFFFFFFFFFFFFFFFFF AND PUSH20 0xFFFFFFFFFFFFFFFFFFFFFFFFFFFFFFFFFFFFFFFF AND DUP2 MSTORE PUSH1 0x20 ADD SWAP1 DUP2 MSTORE PUSH1 0x20 ADD PUSH1 0x0 KECCAK256 PUSH1 0x0 DUP1 DUP3 ADD PUSH1 0x0 SWAP1 SSTORE PUSH1 0x1 DUP3 ADD PUSH1 0x0 SWAP1 SSTORE PUSH1 0x2 DUP3 ADD PUSH1 0x0 SWAP1 SSTORE PUSH1 0x3 DUP3 ADD PUSH1 0x0 PUSH2 0x100 EXP DUP2 SLOAD SWAP1 PUSH1 0xFF MUL NOT AND SWAP1 SSTORE POP POP DUP2 PUSH1 0x0 ADD SLOAD CALLER PUSH20 0xFFFFFFFFFFFFFFFFFFFFFFFFFFFFFFFFFFFFFFFF AND PUSH32 0x7FC4727E062E336010F2C282598EF5F14FACB3DE68CF8195C2F23E1454B2B74E DUP4 PUSH1 0x40 MLOAD PUSH2 0x450 SWAP2 SWAP1 PUSH2 0xB23 JUMP JUMPDEST PUSH1 0x40 MLOAD DUP1 SWAP2 SUB SWAP1 LOG3 POP POP PUSH2 0x462 PUSH2 0xABE JUMP JUMPDEST JUMP JUMPDEST PUSH1 0x64 DUP2 JUMP JUMPDEST PUSH1 0x1 PUSH1 0x0 SWAP1 SLOAD SWAP1 PUSH2 0x100 EXP SWAP1 DIV PUSH20 0xFFFFFFFFFFFFFFFFFFFFFFFFFFFFFFFFFFFFFFFF AND DUP2 JUMP JUMPDEST PUSH1 0xA DUP2 JUMP JUMPDEST PUSH2 0x49C PUSH2 0x9DF JUMP JUMPDEST CALLER PUSH20 0xFFFFFFFFFFFFFFFFFFFFFFFFFFFFFFFFFFFFFFFF AND PUSH1 0x1 PUSH1 0x0 SWAP1 SLOAD SWAP1 PUSH2 0x100 EXP SWAP1 DIV PUSH20 0xFFFFFFFFFFFFFFFFFFFFFFFFFFFFFFFFFFFFFFFF AND PUSH20 0xFFFFFFFFFFFFFFFFFFFFFFFFFFFFFFFFFFFFFFFF AND PUSH4 0x6352211E DUP4 PUSH1 0x40 MLOAD DUP3 PUSH4 0xFFFFFFFF AND PUSH1 0xE0 SHL DUP2 MSTORE PUSH1 0x4 ADD PUSH2 0x50E SWAP2 SWAP1 PUSH2 0xB23 JUMP JUMPDEST PUSH1 0x20 PUSH1 0x40 MLOAD DUP1 DUP4 SUB DUP2 DUP7 GAS STATICCALL ISZERO DUP1 ISZERO PUSH2 0x52B JUMPI RETURNDATASIZE PUSH1 0x0 DUP1 RETURNDATACOPY RETURNDATASIZE PUSH1 0x0 REVERT JUMPDEST POP POP POP POP PUSH1 0x40 MLOAD RETURNDATASIZE PUSH1 0x1F NOT PUSH1 0x1F DUP3 ADD AND DUP3 ADD DUP1 PUSH1 0x40 MSTORE POP DUP2 ADD SWAP1 PUSH2 0x54F SWAP2 SWAP1 PUSH2 0xFB3 JUMP JUMPDEST PUSH20 0xFFFFFFFFFFFFFFFFFFFFFFFFFFFFFFFFFFFFFFFF AND EQ PUSH2 0x5A5 JUMPI PUSH1 0x40 MLOAD PUSH32 0x8C379A000000000000000000000000000000000000000000000000000000000 DUP2 MSTORE PUSH1 0x4 ADD PUSH2 0x59C SWAP1 PUSH2 0x102C JUMP JUMPDEST PUSH1 0x40 MLOAD DUP1 SWAP2 SUB SWAP1 REVERT JUMPDEST PUSH1 0x2 PUSH1 0x0 CALLER PUSH20 0xFFFFFFFFFFFFFFFFFFFFFFFFFFFFFFFFFFFFFFFF AND PUSH20 0xFFFFFFFFFFFFFFFFFFFFFFFFFFFFFFFFFFFFFFFF AND DUP2 MSTORE PUSH1 0x20 ADD SWAP1 DUP2 MSTORE PUSH1 0x20 ADD PUSH1 0x0 KECCAK256 PUSH1 0x3 ADD PUSH1 0x0 SWAP1 SLOAD SWAP1 PUSH2 0x100 EXP SWAP1 DIV PUSH1 0xFF AND ISZERO PUSH2 0x635 JUMPI PUSH1 0x40 MLOAD PUSH32 0x8C379A000000000000000000000000000000000000000000000000000000000 DUP2 MSTORE PUSH1 0x4 ADD PUSH2 0x62C SWAP1 PUSH2 0x1098 JUMP JUMPDEST PUSH1 0x40 MLOAD DUP1 SWAP2 SUB SWAP1 REVERT JUMPDEST ADDRESS PUSH20 0xFFFFFFFFFFFFFFFFFFFFFFFFFFFFFFFFFFFFFFFF AND PUSH1 0x1 PUSH1 0x0 SWAP1 SLOAD SWAP1 PUSH2 0x100 EXP SWAP1 DIV PUSH20 0xFFFFFFFFFFFFFFFFFFFFFFFFFFFFFFFFFFFFFFFF AND PUSH20 0xFFFFFFFFFFFFFFFFFFFFFFFFFFFFFFFFFFFFFFFF AND PUSH4 0x81812FC DUP4 PUSH1 0x40 MLOAD DUP3 PUSH4 0xFFFFFFFF AND PUSH1 0xE0 SHL DUP2 MSTORE PUSH1 0x4 ADD PUSH2 0x6A7 SWAP2 SWAP1 PUSH2 0xB23 JUMP JUMPDEST PUSH1 0x20 PUSH1 0x40 MLOAD DUP1 DUP4 SUB DUP2 DUP7 GAS STATICCALL ISZERO DUP1 ISZERO PUSH2 0x6C4 JUMPI RETURNDATASIZE PUSH1 0x0 DUP1 RETURNDATACOPY RETURNDATASIZE PUSH1 0x0 REVERT JUMPDEST POP POP POP POP PUSH1 0x40 MLOAD RETURNDATASIZE PUSH1 0x1F NOT PUSH1 0x1F DUP3 ADD AND DUP3 ADD DUP1 PUSH1 0x40 MSTORE POP DUP2 ADD SWAP1 PUSH2 0x6E8 SWAP2 SWAP1 PUSH2 0xFB3 JUMP JUMPDEST PUSH20 0xFFFFFFFFFFFFFFFFFFFFFFFFFFFFFFFFFFFFFFFF AND EQ PUSH2 0x73E JUMPI PUSH1 0x40 MLOAD PUSH32 0x8C379A000000000000000000000000000000000000000000000000000000000 DUP2 MSTORE PUSH1 0x4 ADD PUSH2 0x735 SWAP1 PUSH2 0x1104 JUMP JUMPDEST PUSH1 0x40 MLOAD DUP1 SWAP2 SUB SWAP1 REVERT JUMPDEST PUSH1 0x1 PUSH1 0x0 SWAP1 SLOAD SWAP1 PUSH2 0x100 EXP SWAP1 DIV PUSH20 0xFFFFFFFFFFFFFFFFFFFFFFFFFFFFFFFFFFFFFFFF AND PUSH20 0xFFFFFFFFFFFFFFFFFFFFFFFFFFFFFFFFFFFFFFFF AND PUSH4 0x42842E0E CALLER ADDRESS DUP5 PUSH1 0x40 MLOAD DUP5 PUSH4 0xFFFFFFFF AND PUSH1 0xE0 SHL DUP2 MSTORE PUSH1 0x4 ADD PUSH2 0x79D SWAP4 SWAP3 SWAP2 SWAP1 PUSH2 0xF67 JUMP JUMPDEST PUSH1 0x0 PUSH1 0x40 MLOAD DUP1 DUP4 SUB DUP2 PUSH1 0x0 DUP8 DUP1 EXTCODESIZE ISZERO DUP1 ISZERO PUSH2 0x7B7 JUMPI PUSH1 0x0 DUP1 REVERT JUMPDEST POP GAS CALL ISZERO DUP1 ISZERO PUSH2 0x7CB JUMPI RETURNDATASIZE PUSH1 0x0 DUP1 RETURNDATACOPY RETURNDATASIZE PUSH1 0x0 REVERT JUMPDEST POP POP POP POP PUSH1 0x40 MLOAD DUP1 PUSH1 0x80 ADD PUSH1 0x40 MSTORE DUP1 DUP3 DUP2 MSTORE PUSH1 0x20 ADD TIMESTAMP DUP2 MSTORE PUSH1 0x20 ADD TIMESTAMP DUP2 MSTORE PUSH1 0x20 ADD PUSH1 0x1 ISZERO ISZERO DUP2 MSTORE POP PUSH1 0x2 PUSH1 0x0 CALLER PUSH20 0xFFFFFFFFFFFFFFFFFFFFFFFFFFFFFFFFFFFFFFFF AND PUSH20 0xFFFFFFFFFFFFFFFFFFFFFFFFFFFFFFFFFFFFFFFF AND DUP2 MSTORE PUSH1 0x20 ADD SWAP1 DUP2 MSTORE PUSH1 0x20 ADD PUSH1 0x0 KECCAK256 PUSH1 0x0 DUP3 ADD MLOAD DUP2 PUSH1 0x0 ADD SSTORE PUSH1 0x20 DUP3 ADD MLOAD DUP2 PUSH1 0x1 ADD SSTORE PUSH1 0x40 DUP3 ADD MLOAD DUP2 PUSH1 0x2 ADD SSTORE PUSH1 0x60 DUP3 ADD MLOAD DUP2 PUSH1 0x3 ADD PUSH1 0x0 PUSH2 0x100 EXP DUP2 SLOAD DUP2 PUSH1 0xFF MUL NOT AND SWAP1 DUP4 ISZERO ISZERO MUL OR SWAP1 SSTORE POP SWAP1 POP POP DUP1 CALLER PUSH20 0xFFFFFFFFFFFFFFFFFFFFFFFFFFFFFFFFFFFFFFFF AND PUSH32 0x1449C6DD7851ABC30ABF37F57715F492010519147CC2652FBC38202C18A6EE90 TIMESTAMP PUSH1 0x40 MLOAD PUSH2 0x8BA SWAP2 SWAP1 PUSH2 0xB23 JUMP JUMPDEST PUSH1 0x40 MLOAD DUP1 SWAP2 SUB SWAP1 LOG3 PUSH2 0x8CA PUSH2 0xABE JUMP JUMPDEST POP JUMP JUMPDEST PUSH2 0x8D5 PUSH2 0x9DF JUMP JUMPDEST PUSH1 0x0 PUSH1 0x2 PUSH1 0x0 CALLER PUSH20 0xFFFFFFFFFFFFFFFFFFFFFFFFFFFFFFFFFFFFFFFF AND PUSH20 0xFFFFFFFFFFFFFFFFFFFFFFFFFFFFFFFFFFFFFFFF AND DUP2 MSTORE PUSH1 0x20 ADD SWAP1 DUP2 MSTORE PUSH1 0x20 ADD PUSH1 0x0 KECCAK256 SWAP1 POP DUP1 PUSH1 0x3 ADD PUSH1 0x0 SWAP1 SLOAD SWAP1 PUSH2 0x100 EXP SWAP1 DIV PUSH1 0xFF AND PUSH2 0x969 JUMPI PUSH1 0x40 MLOAD PUSH32 0x8C379A000000000000000000000000000000000000000000000000000000000 DUP2 MSTORE PUSH1 0x4 ADD PUSH2 0x960 SWAP1 PUSH2 0xEA6 JUMP JUMPDEST PUSH1 0x40 MLOAD DUP1 SWAP2 SUB SWAP1 REVERT JUMPDEST PUSH1 0x0 PUSH2 0x975 CALLER DUP4 PUSH2 0xA44 JUMP JUMPDEST SWAP1 POP TIMESTAMP DUP3 PUSH1 0x2 ADD DUP2 SWAP1 SSTORE POP DUP2 PUSH1 0x0 ADD SLOAD CALLER PUSH20 0xFFFFFFFFFFFFFFFFFFFFFFFFFFFFFFFFFFFFFFFF AND PUSH32 0xF01DA32686223933D8A18A391060918C7F11A3648639EDD87AE013E2E2731743 DUP4 PUSH1 0x40 MLOAD PUSH2 0x9CB SWAP2 SWAP1 PUSH2 0xB23 JUMP JUMPDEST PUSH1 0x40 MLOAD DUP1 SWAP2 SUB SWAP1 LOG3 POP POP PUSH2 0x9DD PUSH2 0xABE JUMP JUMPDEST JUMP JUMPDEST PUSH1 0x2 PUSH1 0x0 SLOAD SUB PUSH2 0xA24 JUMPI PUSH1 0x40 MLOAD PUSH32 0x8C379A000000000000000000000000000000000000000000000000000000000 DUP2 MSTORE PUSH1 0x4 ADD PUSH2 0xA1B SWAP1 PUSH2 0x1170 JUMP JUMPDEST PUSH1 0x40 MLOAD DUP1 SWAP2 SUB SWAP1 REVERT JUMPDEST PUSH1 0x2 PUSH1 0x0 DUP2 SWAP1 SSTORE POP JUMP JUMPDEST PUSH1 0x0 DUP2 DUP4 PUSH2 0xA3C SWAP2 SWAP1 PUSH2 0x11BF JUMP JUMPDEST SWAP1 POP SWAP3 SWAP2 POP POP JUMP JUMPDEST PUSH1 0x0 DUP1 PUSH2 0xA5E DUP4 PUSH1 0x2 ADD SLOAD TIMESTAMP PUSH2 0xAC8 SWAP1 SWAP2 SWAP1 PUSH4 0xFFFFFFFF AND JUMP JUMPDEST SWAP1 POP PUSH1 0x0 PUSH2 0xAB1 PUSH1 0x64 PUSH2 0xAA3 PUSH3 0x278D00 PUSH2 0xA95 PUSH1 0x64 PUSH2 0xA87 PUSH1 0xA DUP10 PUSH2 0xADE SWAP1 SWAP2 SWAP1 PUSH4 0xFFFFFFFF AND JUMP JUMPDEST PUSH2 0xADE SWAP1 SWAP2 SWAP1 PUSH4 0xFFFFFFFF AND JUMP JUMPDEST PUSH2 0xAF4 SWAP1 SWAP2 SWAP1 PUSH4 0xFFFFFFFF AND JUMP JUMPDEST PUSH2 0xAF4 SWAP1 SWAP2 SWAP1 PUSH4 0xFFFFFFFF AND JUMP JUMPDEST SWAP1 POP DUP1 SWAP3 POP POP POP SWAP3 SWAP2 POP POP JUMP JUMPDEST PUSH1 0x1 PUSH1 0x0 DUP2 SWAP1 SSTORE POP JUMP JUMPDEST PUSH1 0x0 DUP2 DUP4 PUSH2 0xAD6 SWAP2 SWAP1 PUSH2 0x11F3 JUMP JUMPDEST SWAP1 POP SWAP3 SWAP2 POP POP JUMP JUMPDEST PUSH1 0x0 DUP2 DUP4 PUSH2 0xAEC SWAP2 SWAP1 PUSH2 0x1227 JUMP JUMPDEST SWAP1 POP SWAP3 SWAP2 POP POP JUMP JUMPDEST PUSH1 0x0 DUP2 DUP4 PUSH2 0xB02 SWAP2 SWAP1 PUSH2 0x1298 JUMP JUMPDEST SWAP1 POP SWAP3 SWAP2 POP POP JUMP JUMPDEST PUSH1 0x0 DUP2 SWAP1 POP SWAP2 SWAP1 POP JUMP JUMPDEST PUSH2 0xB1D DUP2 PUSH2 0xB0A JUMP JUMPDEST DUP3 MSTORE POP POP JUMP JUMPDEST PUSH1 0x0 PUSH1 0x20 DUP3 ADD SWAP1 POP PUSH2 0xB38 PUSH1 0x0 DUP4 ADD DUP5 PUSH2 0xB14 JUMP JUMPDEST SWAP3 SWAP2 POP POP JUMP JUMPDEST PUSH1 0x0 DUP1 REVERT JUMPDEST PUSH1 0x0 DUP1 REVERT JUMPDEST PUSH1 0x0 PUSH20 0xFFFFFFFFFFFFFFFFFFFFFFFFFFFFFFFFFFFFFFFF DUP3 AND SWAP1 POP SWAP2 SWAP1 POP JUMP JUMPDEST PUSH1 0x0 PUSH2 0xB73 DUP3 PUSH2 0xB48 JUMP JUMPDEST SWAP1 POP SWAP2 SWAP1 POP JUMP JUMPDEST PUSH2 0xB83 DUP2 PUSH2 0xB68 JUMP JUMPDEST DUP2 EQ PUSH2 0xB8E JUMPI PUSH1 0x0 DUP1 REVERT JUMPDEST POP JUMP JUMPDEST PUSH1 0x0 DUP2 CALLDATALOAD SWAP1 POP PUSH2 0xBA0 DUP2 PUSH2 0xB7A JUMP JUMPDEST SWAP3 SWAP2 POP POP JUMP JUMPDEST PUSH2 0xBAF DUP2 PUSH2 0xB0A JUMP JUMPDEST DUP2 EQ PUSH2 0xBBA JUMPI PUSH1 0x0 DUP1 REVERT JUMPDEST POP JUMP JUMPDEST PUSH1 0x0 DUP2 CALLDATALOAD SWAP1 POP PUSH2 0xBCC DUP2 PUSH2 0xBA6 JUMP JUMPDEST SWAP3 SWAP2 POP POP JUMP JUMPDEST PUSH1 0x0 DUP1 REVERT JUMPDEST PUSH1 0x0 DUP1 REVERT JUMPDEST PUSH1 0x0 DUP1 REVERT JUMPDEST PUSH1 0x0 DUP1 DUP4 PUSH1 0x1F DUP5 ADD SLT PUSH2 0xBF7 JUMPI PUSH2 0xBF6 PUSH2 0xBD2 JUMP JUMPDEST JUMPDEST DUP3 CALLDATALOAD SWAP1 POP PUSH8 0xFFFFFFFFFFFFFFFF DUP2 GT ISZERO PUSH2 0xC14 JUMPI PUSH2 0xC13 PUSH2 0xBD7 JUMP JUMPDEST JUMPDEST PUSH1 0x20 DUP4 ADD SWAP2 POP DUP4 PUSH1 0x1 DUP3 MUL DUP4 ADD GT ISZERO PUSH2 0xC30 JUMPI PUSH2 0xC2F PUSH2 0xBDC JUMP JUMPDEST JUMPDEST SWAP3 POP SWAP3 SWAP1 POP JUMP JUMPDEST PUSH1 0x0 DUP1 PUSH1 0x0 DUP1 PUSH1 0x0 PUSH1 0x80 DUP7 DUP9 SUB SLT ISZERO PUSH2 0xC53 JUMPI PUSH2 0xC52 PUSH2 0xB3E JUMP JUMPDEST JUMPDEST PUSH1 0x0 PUSH2 0xC61 DUP9 DUP3 DUP10 ADD PUSH2 0xB91 JUMP JUMPDEST SWAP6 POP POP PUSH1 0x20 PUSH2 0xC72 DUP9 DUP3 DUP10 ADD PUSH2 0xB91 JUMP JUMPDEST SWAP5 POP POP PUSH1 0x40 PUSH2 0xC83 DUP9 DUP3 DUP10 ADD PUSH2 0xBBD JUMP JUMPDEST SWAP4 POP POP PUSH1 0x60 DUP7 ADD CALLDATALOAD PUSH8 0xFFFFFFFFFFFFFFFF DUP2 GT ISZERO PUSH2 0xCA4 JUMPI PUSH2 0xCA3 PUSH2 0xB43 JUMP JUMPDEST JUMPDEST PUSH2 0xCB0 DUP9 DUP3 DUP10 ADD PUSH2 0xBE1 JUMP JUMPDEST SWAP3 POP SWAP3 POP POP SWAP3 SWAP6 POP SWAP3 SWAP6 SWAP1 SWAP4 POP JUMP JUMPDEST PUSH1 0x0 PUSH32 0xFFFFFFFF00000000000000000000000000000000000000000000000000000000 DUP3 AND SWAP1 POP SWAP2 SWAP1 POP JUMP JUMPDEST PUSH2 0xCF4 DUP2 PUSH2 0xCBF JUMP JUMPDEST DUP3 MSTORE POP POP JUMP JUMPDEST PUSH1 0x0 PUSH1 0x20 DUP3 ADD SWAP1 POP PUSH2 0xD0F PUSH1 0x0 DUP4 ADD DUP5 PUSH2 0xCEB JUMP JUMPDEST SWAP3 SWAP2 POP POP JUMP JUMPDEST PUSH1 0x0 PUSH1 0x20 DUP3 DUP5 SUB SLT ISZERO PUSH2 0xD2B JUMPI PUSH2 0xD2A PUSH2 0xB3E JUMP JUMPDEST JUMPDEST PUSH1 0x0 PUSH2 0xD39 DUP5 DUP3 DUP6 ADD PUSH2 0xB91 JUMP JUMPDEST SWAP2 POP POP SWAP3 SWAP2 POP POP JUMP JUMPDEST PUSH1 0x0 DUP2 ISZERO ISZERO SWAP1 POP SWAP2 SWAP1 POP JUMP JUMPDEST PUSH2 0xD57 DUP2 PUSH2 0xD42 JUMP JUMPDEST DUP3 MSTORE POP POP JUMP JUMPDEST PUSH1 0x0 PUSH1 0x80 DUP3 ADD SWAP1 POP PUSH2 0xD72 PUSH1 0x0 DUP4 ADD DUP8 PUSH2 0xB14 JUMP JUMPDEST PUSH2 0xD7F PUSH1 0x20 DUP4 ADD DUP7 PUSH2 0xB14 JUMP JUMPDEST PUSH2 0xD8C PUSH1 0x40 DUP4 ADD DUP6 PUSH2 0xB14 JUMP JUMPDEST PUSH2 0xD99 PUSH1 0x60 DUP4 ADD DUP5 PUSH2 0xD4E JUMP JUMPDEST SWAP6 SWAP5 POP POP POP POP POP JUMP JUMPDEST PUSH1 0x0 DUP2 SWAP1 POP SWAP2 SWAP1 POP JUMP JUMPDEST PUSH1 0x0 PUSH2 0xDC7 PUSH2 0xDC2 PUSH2 0xDBD DUP5 PUSH2 0xB48 JUMP JUMPDEST PUSH2 0xDA2 JUMP JUMPDEST PUSH2 0xB48 JUMP JUMPDEST SWAP1 POP SWAP2 SWAP1 POP JUMP JUMPDEST PUSH1 0x0 PUSH2 0xDD9 DUP3 PUSH2 0xDAC JUMP JUMPDEST SWAP1 POP SWAP2 SWAP1 POP JUMP JUMPDEST PUSH1 0x0 PUSH2 0xDEB DUP3 PUSH2 0xDCE JUMP JUMPDEST SWAP1 POP SWAP2 SWAP1 POP JUMP JUMPDEST PUSH2 0xDFB DUP2 PUSH2 0xDE0 JUMP JUMPDEST DUP3 MSTORE POP POP JUMP JUMPDEST PUSH1 0x0 PUSH1 0x20 DUP3 ADD SWAP1 POP PUSH2 0xE16 PUSH1 0x0 DUP4 ADD DUP5 PUSH2 0xDF2 JUMP JUMPDEST SWAP3 SWAP2 POP POP JUMP JUMPDEST PUSH1 0x0 PUSH1 0x20 DUP3 DUP5 SUB SLT ISZERO PUSH2 0xE32 JUMPI PUSH2 0xE31 PUSH2 0xB3E JUMP JUMPDEST JUMPDEST PUSH1 0x0 PUSH2 0xE40 DUP5 DUP3 DUP6 ADD PUSH2 0xBBD JUMP JUMPDEST SWAP2 POP POP SWAP3 SWAP2 POP POP JUMP JUMPDEST PUSH1 0x0 DUP3 DUP3 MSTORE PUSH1 0x20 DUP3 ADD SWAP1 POP SWAP3 SWAP2 POP POP JUMP JUMPDEST PUSH32 0x4E46545374616B696E673A206E6F74207374616B656400000000000000000000 PUSH1 0x0 DUP3 ADD MSTORE POP JUMP JUMPDEST PUSH1 0x0 PUSH2 0xE90 PUSH1 0x16 DUP4 PUSH2 0xE49 JUMP JUMPDEST SWAP2 POP PUSH2 0xE9B DUP3 PUSH2 0xE5A JUMP JUMPDEST PUSH1 0x20 DUP3 ADD SWAP1 POP SWAP2 SWAP1 POP JUMP JUMPDEST PUSH1 0x0 PUSH1 0x20 DUP3 ADD SWAP1 POP DUP2 DUP2 SUB PUSH1 0x0 DUP4 ADD MSTORE PUSH2 0xEBF DUP2 PUSH2 0xE83 JUMP JUMPDEST SWAP1 POP SWAP2 SWAP1 POP JUMP JUMPDEST PUSH32 0x4E46545374616B696E673A207374616B696E672074696D65206E6F7420726561 PUSH1 0x0 DUP3 ADD MSTORE PUSH32 0x6368656400000000000000000000000000000000000000000000000000000000 PUSH1 0x20 DUP3 ADD MSTORE POP JUMP JUMPDEST PUSH1 0x0 PUSH2 0xF22 PUSH1 0x24 DUP4 PUSH2 0xE49 JUMP JUMPDEST SWAP2 POP PUSH2 0xF2D DUP3 PUSH2 0xEC6 JUMP JUMPDEST PUSH1 0x40 DUP3 ADD SWAP1 POP SWAP2 SWAP1 POP JUMP JUMPDEST PUSH1 0x0 PUSH1 0x20 DUP3 ADD SWAP1 POP DUP2 DUP2 SUB PUSH1 0x0 DUP4 ADD MSTORE PUSH2 0xF51 DUP2 PUSH2 0xF15 JUMP JUMPDEST SWAP1 POP SWAP2 SWAP1 POP JUMP JUMPDEST PUSH2 0xF61 DUP2 PUSH2 0xB68 JUMP JUMPDEST DUP3 MSTORE POP POP JUMP JUMPDEST PUSH1 0x0 PUSH1 0x60 DUP3 ADD SWAP1 POP PUSH2 0xF7C PUSH1 0x0 DUP4 ADD DUP7 PUSH2 0xF58 JUMP JUMPDEST PUSH2 0xF89 PUSH1 0x20 DUP4 ADD DUP6 PUSH2 0xF58 JUMP JUMPDEST PUSH2 0xF96 PUSH1 0x40 DUP4 ADD DUP5 PUSH2 0xB14 JUMP JUMPDEST SWAP5 SWAP4 POP POP POP POP JUMP JUMPDEST PUSH1 0x0 DUP2 MLOAD SWAP1 POP PUSH2 0xFAD DUP2 PUSH2 0xB7A JUMP JUMPDEST SWAP3 SWAP2 POP POP JUMP JUMPDEST PUSH1 0x0 PUSH1 0x20 DUP3 DUP5 SUB SLT ISZERO PUSH2 0xFC9 JUMPI PUSH2 0xFC8 PUSH2 0xB3E JUMP JUMPDEST JUMPDEST PUSH1 0x0 PUSH2 0xFD7 DUP5 DUP3 DUP6 ADD PUSH2 0xF9E JUMP JUMPDEST SWAP2 POP POP SWAP3 SWAP2 POP POP JUMP JUMPDEST PUSH32 0x4E46545374616B696E673A206E6F74206F776E6572206F6620746F6B656E0000 PUSH1 0x0 DUP3 ADD MSTORE POP JUMP JUMPDEST PUSH1 0x0 PUSH2 0x1016 PUSH1 0x1E DUP4 PUSH2 0xE49 JUMP JUMPDEST SWAP2 POP PUSH2 0x1021 DUP3 PUSH2 0xFE0 JUMP JUMPDEST PUSH1 0x20 DUP3 ADD SWAP1 POP SWAP2 SWAP1 POP JUMP JUMPDEST PUSH1 0x0 PUSH1 0x20 DUP3 ADD SWAP1 POP DUP2 DUP2 SUB PUSH1 0x0 DUP4 ADD MSTORE PUSH2 0x1045 DUP2 PUSH2 0x1009 JUMP JUMPDEST SWAP1 POP SWAP2 SWAP1 POP JUMP JUMPDEST PUSH32 0x4E46545374616B696E673A20616C7265616479207374616B6564000000000000 PUSH1 0x0 DUP3 ADD MSTORE POP JUMP JUMPDEST PUSH1 0x0 PUSH2 0x1082 PUSH1 0x1A DUP4 PUSH2 0xE49 JUMP JUMPDEST SWAP2 POP PUSH2 0x108D DUP3 PUSH2 0x104C JUMP JUMPDEST PUSH1 0x20 DUP3 ADD SWAP1 POP SWAP2 SWAP1 POP JUMP JUMPDEST PUSH1 0x0 PUSH1 0x20 DUP3 ADD SWAP1 POP DUP2 DUP2 SUB PUSH1 0x0 DUP4 ADD MSTORE PUSH2 0x10B1 DUP2 PUSH2 0x1075 JUMP JUMPDEST SWAP1 POP SWAP2 SWAP1 POP JUMP JUMPDEST PUSH32 0x4E46545374616B696E673A206E6F7420617070726F7665640000000000000000 PUSH1 0x0 DUP3 ADD MSTORE POP JUMP JUMPDEST PUSH1 0x0 PUSH2 0x10EE PUSH1 0x18 DUP4 PUSH2 0xE49 JUMP JUMPDEST SWAP2 POP PUSH2 0x10F9 DUP3 PUSH2 0x10B8 JUMP JUMPDEST PUSH1 0x20 DUP3 ADD SWAP1 POP SWAP2 SWAP1 POP JUMP JUMPDEST PUSH1 0x0 PUSH1 0x20 DUP3 ADD SWAP1 POP DUP2 DUP2 SUB PUSH1 0x0 DUP4 ADD MSTORE PUSH2 0x111D DUP2 PUSH2 0x10E1 JUMP JUMPDEST SWAP1 POP SWAP2 SWAP1 POP JUMP JUMPDEST PUSH32 0x5265656E7472616E637947756172643A207265656E7472616E742063616C6C00 PUSH1 0x0 DUP3 ADD MSTORE POP JUMP JUMPDEST PUSH1 0x0 PUSH2 0x115A PUSH1 0x1F DUP4 PUSH2 0xE49 JUMP JUMPDEST SWAP2 POP PUSH2 0x1165 DUP3 PUSH2 0x1124 JUMP JUMPDEST PUSH1 0x20 DUP3 ADD SWAP1 POP SWAP2 SWAP1 POP JUMP JUMPDEST PUSH1 0x0 PUSH1 0x20 DUP3 ADD SWAP1 POP DUP2 DUP2 SUB PUSH1 0x0 DUP4 ADD MSTORE PUSH2 0x1189 DUP2 PUSH2 0x114D JUMP JUMPDEST SWAP1 POP SWAP2 SWAP1 POP JUMP JUMPDEST PUSH32 0x4E487B7100000000000000000000000000000000000000000000000000000000 PUSH1 0x0 MSTORE PUSH1 0x11 PUSH1 0x4 MSTORE PUSH1 0x24 PUSH1 0x0 REVERT JUMPDEST PUSH1 0x0 PUSH2 0x11CA DUP3 PUSH2 0xB0A JUMP JUMPDEST SWAP2 POP PUSH2 0x11D5 DUP4 PUSH2 0xB0A JUMP JUMPDEST SWAP3 POP DUP3 DUP3 ADD SWAP1 POP DUP1 DUP3 GT ISZERO PUSH2 0x11ED JUMPI PUSH2 0x11EC PUSH2 0x1190 JUMP JUMPDEST JUMPDEST SWAP3 SWAP2 POP POP JUMP JUMPDEST PUSH1 0x0 PUSH2 0x11FE DUP3 PUSH2 0xB0A JUMP JUMPDEST SWAP2 POP PUSH2 0x1209 DUP4 PUSH2 0xB0A JUMP JUMPDEST SWAP3 POP DUP3 DUP3 SUB SWAP1 POP DUP2 DUP2 GT ISZERO PUSH2 0x1221 JUMPI PUSH2 0x1220 PUSH2 0x1190 JUMP JUMPDEST JUMPDEST SWAP3 SWAP2 POP POP JUMP JUMPDEST PUSH1 0x0 PUSH2 0x1232 DUP3 PUSH2 0xB0A JUMP JUMPDEST SWAP2 POP PUSH2 0x123D DUP4 PUSH2 0xB0A JUMP JUMPDEST SWAP3 POP DUP3 DUP3 MUL PUSH2 0x124B DUP2 PUSH2 0xB0A JUMP JUMPDEST SWAP2 POP DUP3 DUP3 DIV DUP5 EQ DUP4 ISZERO OR PUSH2 0x1262 JUMPI PUSH2 0x1261 PUSH2 0x1190 JUMP JUMPDEST JUMPDEST POP SWAP3 SWAP2 POP POP JUMP JUMPDEST PUSH32 0x4E487B7100000000000000000000000000000000000000000000000000000000 PUSH1 0x0 MSTORE PUSH1 0x12 PUSH1 0x4 MSTORE PUSH1 0x24 PUSH1 0x0 REVERT JUMPDEST PUSH1 0x0 PUSH2 0x12A3 DUP3 PUSH2 0xB0A JUMP JUMPDEST SWAP2 POP PUSH2 0x12AE DUP4 PUSH2 0xB0A JUMP JUMPDEST SWAP3 POP DUP3 PUSH2 0x12BE JUMPI PUSH2 0x12BD PUSH2 0x1269 JUMP JUMPDEST JUMPDEST DUP3 DUP3 DIV SWAP1 POP SWAP3 SWAP2 POP POP JUMP INVALID LOG2 PUSH5 0x6970667358 0x22 SLT KECCAK256 CODESIZE INVALID CODESIZE XOR SWAP9 DELEGATECALL 0xB4 GT COINBASE 0x1F DUP13 0xB3 SIGNEXTEND 0x1E MUL SDIV 0xAE 0xB6 DUP14 PUSH20 0x77E1424C0D1EBE8B9D05301D64736F6C63430008 SLT STOP CALLER "
				},
				"gasEstimates": {
					"creation": {
						"codeDepositCost": "972600",
						"executionCost": "infinite",
						"totalCost": "infinite"
					},
					"external": {
						"DECIMALS()": "329",
						"MINIMUM_STAKING_TIME()": "330",
						"REWARD_RATE()": "373",
						"claimReward()": "infinite",
						"nft()": "infinite",
						"onERC721Received(address,address,uint256,bytes)": "infinite",
						"stake(uint256)": "infinite",
						"stakes(address)": "infinite",
						"unstake()": "infinite"
					},
					"internal": {
						"calculateReward(address,struct NFTStaking.Stake storage pointer)": "infinite"
					}
				},
				"methodIdentifiers": {
					"DECIMALS()": "2e0f2625",
					"MINIMUM_STAKING_TIME()": "02657ad0",
					"REWARD_RATE()": "5997bb37",
					"claimReward()": "b88a802f",
					"nft()": "47ccca02",
					"onERC721Received(address,address,uint256,bytes)": "150b7a02",
					"stake(uint256)": "a694fc3a",
					"stakes(address)": "16934fc4",
					"unstake()": "2def6620"
				}
			},
			"storageLayout": {
				"storage": [
					{
						"astId": 10,
						"contract": "Staking Contract/StakingNFT.sol:NFTStaking",
						"label": "_status",
						"offset": 0,
						"slot": "0",
						"type": "t_uint256"
					},
					{
						"astId": 879,
						"contract": "Staking Contract/StakingNFT.sol:NFTStaking",
						"label": "nft",
						"offset": 0,
						"slot": "1",
						"type": "t_contract(IERC721)169"
					},
					{
						"astId": 884,
						"contract": "Staking Contract/StakingNFT.sol:NFTStaking",
						"label": "stakes",
						"offset": 0,
						"slot": "2",
						"type": "t_mapping(t_address,t_struct(Stake)876_storage)"
					}
				],
				"types": {
					"t_address": {
						"encoding": "inplace",
						"label": "address",
						"numberOfBytes": "20"
					},
					"t_bool": {
						"encoding": "inplace",
						"label": "bool",
						"numberOfBytes": "1"
					},
					"t_contract(IERC721)169": {
						"encoding": "inplace",
						"label": "contract IERC721",
						"numberOfBytes": "20"
					},
					"t_mapping(t_address,t_struct(Stake)876_storage)": {
						"encoding": "mapping",
						"key": "t_address",
						"label": "mapping(address => struct NFTStaking.Stake)",
						"numberOfBytes": "32",
						"value": "t_struct(Stake)876_storage"
					},
					"t_struct(Stake)876_storage": {
						"encoding": "inplace",
						"label": "struct NFTStaking.Stake",
						"members": [
							{
								"astId": 869,
								"contract": "Staking Contract/StakingNFT.sol:NFTStaking",
								"label": "tokenId",
								"offset": 0,
								"slot": "0",
								"type": "t_uint256"
							},
							{
								"astId": 871,
								"contract": "Staking Contract/StakingNFT.sol:NFTStaking",
								"label": "stakedTime",
								"offset": 0,
								"slot": "1",
								"type": "t_uint256"
							},
							{
								"astId": 873,
								"contract": "Staking Contract/StakingNFT.sol:NFTStaking",
								"label": "lastClaimedTime",
								"offset": 0,
								"slot": "2",
								"type": "t_uint256"
							},
							{
								"astId": 875,
								"contract": "Staking Contract/StakingNFT.sol:NFTStaking",
								"label": "active",
								"offset": 0,
								"slot": "3",
								"type": "t_bool"
							}
						],
						"numberOfBytes": "128"
					},
					"t_uint256": {
						"encoding": "inplace",
						"label": "uint256",
						"numberOfBytes": "32"
					}
				}
			},
			"userdoc": {
				"kind": "user",
				"methods": {},
				"version": 1
			}
		}
	}
}